:020000040800F2
:102000002834002001210008553600085934000802
:10201000E1350008652500080950000800000000AF
:10202000000000000000000000000000D33D000898
:10203000712F000800000000573A00088B44000888
:102040001B2100081B2100081B2100081B21000880
:102050001B2100081B2100081B2100081B21000870
:102060001B2100081B2100081B2100081B21000860
:102070001B2100081B2100081B2100081B21000850
:102080001B2100081B2100081B2100081B21000840
:10209000AD4F00081B2100081B2100081B21000870
:1020A0001B2100081B2100081B2100081B21000820
:1020B0001B2100081B2100081B2100081B21000810
:1020C0001B2100081B2100081B2100081B21000800
:1020D0001B210008454D00081B2100081B2100089A
:1020E0001B2100081B2100081B210008DFF80CD071
:1020F00000F054F9004800478D50000828340020B3
:102100000648804706480047FEE7FEE7FEE7FEE791
:10211000FEE7FEE7FEE7FEE7FEE7FEE79144000884
:10212000ED20000800487047886A0008A0F16101AE
:10213000192900D820387047A0F14101192900D889
:102140002030704740EA01039B0703D009E008C92B
:10215000121F08C0042AFAD203E011F8013B00F86C
:10216000013B521EF9D27047D2B201E000F8012BB8
:10217000491EFBD270470022F6E710B513460A4607
:1021800004461946FFF7F0FF204610BD30B505465E
:102190002A460B4612F8010B13F8014B08B1A04276
:1021A000F8D01CB1002802D06D1CF1E7284630BDE4
:1021B00010B5044604E00B7800F8013B03B1491C5C
:1021C000521EF8D2204610BD421C10F8011B0029F7
:1021D000FBD1801A7047000070B50F4D00B9286818
:1021E000002412E00A4602E09E4203D0521C1378FB
:1021F000002BF9D1DAB2224305D02BB124B1002152
:1022000000F8011B04E00446401C0678002EE9D1CA
:102210002860204670BD0000000000202DE9F04736
:1022200091460F4680460446002614F8015B2DB106
:10223000FFF778FF0068405DC007F6D12B2D02D074
:102240002D2D18D0641E4A463946204600F057F816
:1022500027B13968A14201D1C7F8008071054FF05C
:1022600002040BD54042002803DD04F0B9FB0460F2
:10227000A007BDE8F08746F48066E4E70028F8DAB6
:1022800004F0AEFB04606FF00040F2E72DE9F05F70
:1022900093460F4680460446002604F0A1FBD0F882
:1022A0000090824614F8015B2DB1FFF73BFF0068F8
:1022B000405DC007F6D12B2D02D02D2D1AD0641E03
:1022C0000021CAF800105A463946204600F017F897
:1022D000014627B13868A04201D1C7F80080DAF87A
:1022E0000000022809D0CAF80090700505D54842C0
:1022F000BDE8F09F46F48066E2E70846F8E72DE97E
:10230000F05F82460078002715468B460AF10104EB
:10231000B946302801D09DB113E014F8010B012714
:10232000782803D0582801D045B10AE00DB1102D0E
:1023300007D10027102514F8010B02E0082500E062
:102340000A250026B0460EE005FB080005FB06F155
:10235000012701EB10461FFA80F8B6F5803F00D345
:10236000B94614F8010B294600F02AF80028EBDAE8
:10237000BBF1000F05D00FB1641E00E05446CBF84E
:102380000040B9F1000F06D004F02AFB02210160E1
:10239000C81EBDE8F09F48EA0640FAE7064C074D24
:1023A00006E0E06840F0010394E807009847103425
:1023B000AC42F6D3FFF79EFE88710008A8710008B2
:1023C0003A2800D2303820F02002412A01D3A2F16D
:1023D0003700884201D34FF0FF30704730B58C187A
:1023E00010F8012B12F00F0301D110F8013B120974
:1023F00006D110F8012B03E010F8015B01F8015B36
:102400005B1EF9D101E001F8013B521EFBD1A14254
:10241000E6D3002030BD406A417A89B9017A79B9A2
:1024200042F67E71C2F20001498B02686FF3DF2130
:102430008A4205D1817A012902D1C07A04F069B9B2
:10244000704742F66C0CC2F2000CDCF80834002233
:10245000B2EB932F10D1DCF800240CF2FF33117093
:10246000DCF800144A1C9A4288BFA1F2FF320CF536
:102470008161CCF8002401E00CF20C410A680132C1
:102480000A60B0F84201704710B50446D0F8010068
:1024900046F6963144F8410FC0F6000134F83C0C82
:1024A0000988A08008BA000CE08042F68040C2F2A1
:1024B000000040890E21000A20720020C4F80900A3
:1024C0006073204601F08EF8E08110BDB0B5B0F821
:1024D0000110054620F8411F4FF2E873811C0022CD
:1024E000C1F6FF73D45C8C5401320C2AFAD10E2150
:1024F00001F078F8A5F84F00B0BD10B50446D0F84B
:10250000010044F8410F34F83D0C14F83B1C00BAAC
:10251000020C042928BF042101EB10403F2834F8A5
:102520003C0C88BF81F03F02A08042F67E70C2F270
:10253000000000EB42014B78A37110F81200E0712B
:10254000C8782072887860724879A0720879E07241
:10255000C879207388790E216073204601F042F813
:10256000E08110BDFEE70000022988BF704749B234
:1025700003A252F82110826811438160704700BFA6
:102580008000000000800000000080002DE9F04382
:1025900081B046F20048C4F20008404600F050F80E
:1025A00040F21006C2F2000606F10805284600F0C7
:1025B0007BFB4FF0010942F6804086F80F9086F8C9
:1025C0001390C2F200004189C1F30121B172408928
:1025D00000F01F01284600F04FFB4046294600F05E
:1025E00047F942F67E740025C2F20004002700BFBE
:1025F00004EBC7010A6A304640F8142FA28A09FA90
:1026000007F31A4018BF0122C272E28A496A1A40CF
:1026100018BF01220273228B87721A4018BF012251
:1026200042734160058100F029F80137082FDFD19E
:1026300040460221012201B0BDE8F04300F00FB98D
:1026400010B546F20041C4F200014FF080648842A8
:1026500008BF4FF000742046012101F0E3FA204644
:102660000021BDE8104001F0DDBA1022002908BFAA
:102670000C22815841F0200181507047B0B546F2DC
:102680000061C4F2000190F80AE0037B0A680124AB
:1026900042F001020A60CA6904FA0EF56FEA050CFD
:1026A000AA43012BCA610DD0F3B9CA6802EA0C0231
:1026B000CA60C288438843EA024201EBCE031A642F
:1026C00003460AE0CA682A43CA600288438843EA8C
:1026D000024201EBCE031A64831D82881B8843EA01
:1026E000024201EBCE035A64C27A4B68002A43EAE5
:1026F000050408BF03EA0C044C600389012B04D0D5
:102700003BB94A6902EA0C0302E04A6942EA05035E
:102710004B61407B012802D1C8692843C861086821
:1027200020F001000860B0BD02464069084204BFC5
:1027300000207047FF294FF0000011DC0F291EDC3C
:102740000139072949D8DFE801F0043B483D4848F2
:10275000483F906840F20111C0F20101084040E09A
:10276000B1F5006F16DBB1F5803F20DAB1F5006FEF
:102770002ED0B1F5004F18BF7047506814E01029F3
:102780002CD0202930D0402902BF1069C0F300109E
:1027900070477047B1F5807F28D0B1F5007F29D010
:1027A000B1F5806F19D19069C0F38000704725D0D2
:1027B000B1F5003F02BF5068C0F30010704770478A
:1027C000D0680CE0D0681AE0D068C0F30010704701
:1027D000906910F0700018BF01207047106910F068
:1027E000030018BF01207047106908E0906900F0ED
:1027F000010070479069C0F3400070475068C0F313
:10280000C000704703288FBF02A000B203A151F897
:1028100020007047556E6B6E6F776E00B96B0008C5
:10282000B06B0008C06B0008A96B000846F6A02238
:102830000021C0F6000200BF02EBC103DB88834227
:1028400004D001311629F7D1052102E0162928BF4D
:10285000052102EBC100C08840EA01407047002A10
:1028600042690CBF22EA0101114341617047000037
:1028700080B5026822F002020260026842F00102A2
:1028800002604FF6FF7200BFD0F804C0531E93429F
:1028900003D21CF001021A46F6D04268D20704BFE8
:1028A000002080BD91F806C00368BCF1010F23F041
:1028B000800208BF43F08002026091F807C00368FD
:1028C000BCF1010F23F0400208BF43F04002026058
:1028D00091F808C00368BCF1010F23F0200208BF83
:1028E00043F02002026091F809C00368BCF1010FB7
:1028F00023F0100208BF43F01002026091F80AC0F2
:102900000368BCF1010F23F0080208BF43F008027E
:10291000026091F80BC00368BCF1010F23F00402C0
:1029200008BF43F004020260CB7891F802C00A7934
:102930001B0691F805E043EA8C73098843EA0242DA
:1029400042EA0E5201391143C161016821F00101CF
:1029500001604FF6FF7100BF43684A1E8A4203D2EE
:1029600013F001011146F7D14068012121EA00006E
:1029700080BD00002DE9F04381B042F63057C2F22D
:102980000007397802295ED00446012976D0002953
:1029900040F0A580606A616B0129C0F2A080D0E997
:1029A000001204F10C05C4E903120189A182817AA5
:1029B000A17561B104F1170100F10B02002300BF02
:1029C000D65CCE54867A0133B342F9D3606A42F6BC
:1029D000240200F11401224446F2004642F2EC7354
:1029E000914288BFC11AC4F20006616230460221DA
:1029F00000224FF00008FFF732FF606B0221013820
:102A00006063304601224FF00109FFF728FFA06AFA
:102A10000130A06200F04EFD3046294600F04EF92C
:102A200040F20801C2F20001087042F68040C2F292
:102A30000000C0F89C80A6F5C040002102F00AF911
:102A400087F800904BE042F68044C2F20004D4F8CC
:102A5000AC00002841D0D4F8AC0042F2107188429A
:102A600033D846F20040C4F20000A0F5C04002F0A6
:102A7000B4F8D4F8AC1081422FD330E040F208090A
:102A8000C2F2000946F2004899F80010C4F20008AA
:102A9000404600F061F942F68045C2F200056989BE
:102AA000C90402D4064601281CD1206801302060E8
:102AB000022000223870A8F5C0400021C5F89C20F3
:102AC00001B0BDE8F04302F0C5B8D4F89C00642121
:102AD000D4F8AC204843904201D90020387001B0AE
:102AE000BDE8F083D5F89C0042F211718842F6D31C
:102AF00099F800104046FFF737FDE88810F0300FD6
:102B000005D099F8001004A0324603F0F2FD606889
:102B100001306060CCE700BF206D62783D25642005
:102B200054784661696C6564205374617475733DB3
:102B30003078253032580A002DE9F04381B0044640
:102B4000406B012844DB46F2004642F6240042F680
:102B500080458846C4F200062718C2F2000542F2FA
:102B6000EC7900BF288900F44050B0F5805F05D1B2
:102B70002046414600F0E6FD0DE000BF288900F444
:102B80004050B0F5005F03D12046FFF744FC02E05F
:102B9000204601F03DFE606A002200F11401B942B6
:102BA00088BFA0EB0901616230460221FFF757FEA2
:102BB000606B02210138606330460122FFF74FFE4F
:102BC000A06A0130A06200F075FC606B0028C9DCCF
:102BD000A06A01B0BDE8F08310B500EB0114D4F891
:102BE000B0C11CF004031372D4F8B0E104F5D87C32
:102BF00019BF4FEADE0353604FEA5E531360DCF8FF
:102C00000030002903F002035372D4F8B43103F00A
:102C10000F039372D4F8B4314FEA1323D374D4F86A
:102C2000B831D372D4F8B8314FEA13231373D4F800
:102C3000B8314FEA13435373D4F8B8314FEA1363F2
:102C40009373D4F8BC31D373D4F8BC314FEA132357
:102C50001374D4F8BC314FEA13435374D4F8BC3125
:102C60004FEA136393744FF0100208BF0C2281588F
:102C700041F02001815010BD152946F6A02C88BFD7
:102C80000521C0F6000C48B13CF831300CEBC10214
:102C9000A0F8033093789288437102800CEBC10056
:102CA000C08840EA014070470021C0F80610418109
:102CB00040F203218180012101607047B0B50246D6
:102CC0008068400109D49068000108D49068C00071
:102CD0005CBF0420B0BD022002E0002000E0012023
:102CE00002EB0012D2F8803102F5C07E03F001033E
:102CF000C2F8803191F808C0BCF1000F03D04B68D6
:102D00004CEAC30C02E00B684FEA435C4B7A8C7AC6
:102D1000DEF8005043EA0C032B43CEF8003004F0F9
:102D20000F038B72D2F8845125F00F05C2F884513D
:102D3000D2F884512B43C2F88431D1F80B30C2F859
:102D40008831D1F80F10C2F88C11DEF8001041F074
:102D50000101CEF80010B0BD022925D849B21AA24F
:102D600052F8211080680840FF21C0F60001884217
:102D700010DD4FF6FF71C1F20001884216DC40F20F
:102D80000011C0F6000188421CD040F20031C0F6AC
:102D9000000113E040B10121C0F20041884211D08E
:102DA0000321C0F2004109E0022070470021C1F276
:102DB0000101884206D00021C1F20301884204BF0C
:102DC0000120704700207047030000040003000842
:102DD000000003102DE9F04746F20045C4F200055B
:102DE000044628460221FFF79FFCA0B342F62400C8
:102DF00042F6804704F1300804EB000A04F12C0687
:102E000042F2EC79C2F20007606BB0F5007F11DA94
:102E1000226A28460021FFF7DFFE206A616B00F17D
:102E20001402524588BFA0EB0902481C226260636D
:102E3000304604E028460021FFF717FC40460168B1
:102E400001310160F86802210130F8602846FFF77F
:102E50006BFC0028D8D1BDE8F08780B50220C0F215
:102E60000020012100F0D2FE44F21D00012100F0FB
:102E7000E5FE0020BDE8804000F03EBF80B584B094
:102E800036228DF80020026843688068CDF8012062
:102E9000AA228DF805202522CDF806308DF80A20CB
:102EA000CDF80B009B208DF80F0068460C2201F036
:102EB0006DFB9DE80F0048405040584004B080BD75
:102EC00010B50FA003F04EFC40F23404C2F200042F
:102ED0000020C4E90B00C4E9000046F6E970C0F622
:102EE00000000021002203F004FCD4E9001246F6A1
:102EF000FE70C0F60000BDE8104003F0FABB00BF52
:102F000020436C6561722052582F545820436F75CE
:102F10006E746572732E0A00B0B590F806E0BEF1CB
:102F2000040F28BF4FF0040EBEF1000F08BFB0BD64
:102F3000818842F67E7C09BA0A0C0EEB02013F2919
:102F40004FF00003C2F2000C4FF0000188BF8EF07A
:102F50003F0200BF00EB4304B4F80740013124BA3C
:102F60009D188BB2240C9E452CF81540F2D8B0BDAC
:102F70007047000042F68041C2F20001D1F898206B
:102F8000D1F898309B1A834228BF704700BFF7E7FB
:102F900070B541F60045C0F600054FF6FF76A81C57
:102FA0000021802202F4607330F8024C2B431B880E
:102FB0000CB9B34215D001318030082902F18002EA
:102FC000F0D142F6FE74C2F200040020208000F02E
:102FD00040F9208805EBC01000F092F800F0B8F836
:102FE00005E042F6FE72C2F2000211800688304609
:102FF00070BD000080B542F6FE70C2F2000001888C
:1030000041F6024CC0F6000C01F0070202804FEAC4
:10301000C21E4CEAC21042F67E72831C0020C2F22D
:10302000000200BF195A115202307C28FAD14EEA30
:103030000C000088A2F87C0080BD42F67E71C0B210
:10304000C2F2000131F81000704742F67E71C0B242
:10305000C2F2000151F81000704700002DE9F04164
:1030600042F6FE76C2F20006308842F67E7400F028
:103070000700C2F2000441F60048308020463E219D
:10308000C0F6000800F0CAFA054600F0E2F8318800
:103090004FF48072481C00F0070002EBC111308031
:1030A00001F4607131F808204FF6FF739A4204D0A2
:1030B00041EA080000F024F8308808EBC010290429
:1030C00000F04FF8002700BF308808EB470101EB04
:1030D000C01054F81710043000F043F8B91C8FB238
:1030E0003E2FF1D3054600F033F82846BDE8F081C5
:1030F00042F67E72C0B2C2F2000222F8101070478F
:10310000B0B504464FF4302000F0B2F8042818BFE0
:10311000B0BD42F21005C4F20205286840F002007A
:1031200028606C60286840F0400028604FF4302030
:1031300000F09EF8296841F6FD7211402960B0BD8B
:1031400042F21C00C4F202000068C0F34000704765
:1031500042F21000C4F20200016841F080010160F7
:10316000704770B582B00546002001904FF40050C2
:103170000C4600F07DF804281CD142F21006C4F27F
:103180000206306840F0010030604FF400502C809F
:1031900000F06EF8042808D1A81C01900198210CB9
:1031A00001804FF4005000F063F8316841F6FE7280
:1031B0001140316002B070BDB0B504464FF430200C
:1031C00000F056F8042843D142F2100540F22310D3
:1031D000C4F20205C4F2675045F8080C48F6AB107B
:1031E000CCF6EF5045F8080C286840F02000286025
:1031F000286840F0400028604FF4302000F038F894
:10320000052808BFB0BD04281DD1286841F6DF712C
:103210000840286028684FF6000140F01000286040
:103220000020002C08BFA520C1F6FF7108804FF4D4
:10323000302000F01DF8052804BF0520B0BD296826
:1032400041F6EF7202E0296841F6DF721140296011
:10325000B0BD42F2040040F22311C4F20200C4F2F5
:103260006751016048F6AB11CCF6EF510160704731
:1032700042F20C01C4F202010A68D20709D10A68BD
:1032800052070ED40968C9064FF0030158BF042144
:1032900015E020B10A68D20705D00138FAD1012122
:1032A0000DE002210BE00A68520706D40968C9063E
:1032B0004FF0030158BF042100E00221013800282B
:1032C00008BF052108467047B0B582B0022040F61D
:1032D0000005C1F60300C4F2010501AC01902846C7
:1032E000214600F059F82846022100F0B0F80420E9
:1032F000C1F6030001902846214600F04DF8C02099
:10330000C1F6030001902846214600F045F840F23E
:103310000010C1F6030001902846214600F03CF859
:10332000E020C1F6030001902846214600F034F861
:1033300040F20020C1F6030001902846214600F02B
:103340002BF84FF40060ADF8040048208DF807001A
:103350002846214600F020F841F20000C1F60300A3
:1033600001902846214600F017F841F20000C1F212
:103370000200019005F58060214600F00DF842F250
:103380000000C4F60200019005F50060214600F03F
:1033900003F802B0B0BD00002DE9F041CA7802F098
:1033A0000F0CD30644BF8B784CEA030C09880B063C
:1033B00020D0056800234FF001084FF00F0E0026C3
:1033C00008FA06F70F420FD00EFA03F425EA0404B8
:1033D0000CFA03F5482A45EA040503D0282A08BF59
:1033E000476101E0076100BF0136082E03F10403C5
:1033F000E6D10560B1F5807F38BFBDE8F081446853
:1034000000234FF4807E4FF00F0800260EFA06F7D7
:1034100007EA0105BD420DD108FA03F5AC430CFAE9
:1034200003F5482A44EA050403D0282A08BF476167
:1034300000E007610136082E03F10403E6D1446081
:10344000BDE8F0818068084018BF012070474161E5
:103450007047016170470000FEE7000070B50C4640
:1034600005460026A85DFEF761FEC1B2A1F130025B
:103470000A2A01D2D02103E0413905290FD8C921F8
:10348000F207014402D10901700802E07008225CD1
:1034900011430136802E2154E4D1402070BDF0B29A
:1034A000400870BD43F20000C4F200004CF6CC416D
:1034B0000160704743F20000C4F200004AF6AA21FE
:1034C0000160704743F20401C4F2000108607047D4
:1034D00043F20801C4F200010860704743F20001A2
:1034E000C4F200010860704780B541F20000C4F2E8
:1034F00001004FF40051FFF7A5FF42F6325CC2F223
:10350000000CBCF8003048B10020D908632B88BFFC
:10351000012000227C2988BF022006E04FF47A7245
:103520000020B3F57A7F38BF5A1CACF8002080BD6C
:1035300010B542F67E74C2F200042046382100F035
:103540006DF808B1002010BDB4F8601042F680405C
:10355000C2F20000C18021880181218A4181018954
:1035600001F44051B1F5405F03D1018921F440518C
:10357000018146F684320189C0F600021278C1F357
:103580000321914205D3018921F4706101F5407155
:103590000181028942F63461D3B2013BC2F20001DB
:1035A000F72B81F8412108D3028942F0010222F071
:1035B000FE020281012281F8412146F65032418902
:1035C000C0F60002127801F01F01914205D3418933
:1035D00041F00C0121F0130141814FF0FF3010BD8B
:1035E000FEE70000B0B54FF6FF72A9B14FF0000C36
:1035F0004AF2010E10F80C305A4000238EEA5204B1
:10360000D50703F1010308BF5408082B2246F5D360
:103610000CF1010C8C45EDD190B2B0BDB0B54FF6B8
:10362000FF72A9B14FF0000C4AF2010E30F81C30C5
:103630005A4000238EEA5204D50703F1010308BF64
:103640005408082B2246F5D30CF1010C8C45EDD122
:1036500090B2B0BD7047000010B582B04FF4E0608A
:1036600000F065F825208DF804004FF4807001AC5F
:10367000ADF80600204600F02BF81420C0F2001030
:103680000190204600F024F840F20C00C2F2000045
:10369000006841F25971CDF2B711A0FB01014FF062
:1036A000FF3000EB5130B0F1807F00D3FEE74EF2E7
:1036B0001001CEF2000148604EF62350CEF2000019
:1036C000F0220270002088600720086002B010BD60
:1036D00010B5C17800294EF20011CEF200011AD0C7
:1036E0004EF60C52CEF200021268072323EA122291
:1036F0000F23C2F1040C23FA02F24378847890F885
:1037000000E003FA0CF322401A43120101EB0E030E
:1037100083F8002300E080310078012300F01F02CD
:1037200003FA02F2C0F3421041F8202010BD40F02D
:1037300080604EF60C5140F0FD70CEF20001086042
:1037400070470000B0B50C4694F84121416A20460C
:1037500000F8412F4A7A022A06D082B90A7A042A4E
:1037600008D062B9302208E00A7A042A04D032B9BB
:10377000402202E0502200E0602284F842208A7A4F
:1037800094F8423004F141051A4384F842200A7A41
:103790000B1D002A14BFCA79002284F843200A7A3C
:1037A000002A14BFCA88002284F844200A7A002A1A
:1037B0001A4608BF0A461268120A84F845200A7A97
:1037C000002A08BF0B461A6884F84620D1F80F205B
:1037D000D1F80B10C4F84B20C4F847100E21FFF7A6
:1037E00001FFA4F84F000024285D02F092FF01348D
:1037F000102CF9D1B0BD0000F0B581B0044642F6FE
:103800008040C2F200000025C0F89850B4F844216E
:1038100000203F2A15D8A0184170B4F844010128AF
:1038200008D048B994F84101401AB0FA80F045092F
:10383000002006E0022504E0052888BF0D2804D8F2
:10384000451CA4F8445101B0F0BD0E2833D00F2818
:1038500040F07680651C28461021FFF7C3FE002843
:103860006ED1A17801F0700030380009032869D8C2
:10387000DFE800F00247232D6079A179002541EAB5
:10388000002040F23401C2F2000141F80C0F0D811A
:10389000A07800F00F008872D4F80B00D4F807204D
:1038A000C1F80F0046F20040C4F20000C1F80B203E
:1038B000FFF704FABCE70F25C3E7D4F8030040F292
:1038C000340200BAC2F200021061042009E0D4F808
:1038D000030040F2340200BAC2F2000210614FF459
:1038E00001709082A07802F10C0100F00F00907539
:1038F000D4F80B00D4F80730C2F81B00C2F8173018
:1039000018E06079A17941EA002040F23401C2F266
:10391000000141F80C0F4FF400700881A07800F00E
:103920000F008872D4F80B00D4F80720C1F80F00FC
:10393000C1F80B2046F20040C4F20000FFF7BEF9C8
:10394000002575E701F00F0001380828F8D8DFE8F6
:1039500000F0054F282C176A2F3F1A0004F141068A
:10396000304629461022FEF7EDFB00270025F05DCA
:1039700002F0CFFE0137102F4FF00000F7D160E7C3
:1039800000F028FADCE7E079002841D046F2004058
:10399000C4F2000000F528404FF48051FFF757FDB6
:1039A000CEE72046FFF7B8FACAE7FFF7C1FDC7E741
:1039B0002046FEF769FD04F1410600270025F05D71
:1039C00002F0A7FE0137102F4FF00000F7D138E7C3
:1039D0002046FEF77BFD04F1410600270025F05D3F
:1039E00002F097FE0137102F4FF00000F7D128E7C3
:1039F0002046FEF782FD04F1410600270025F05D18
:103A000002F087FE0137102F4FF00000F7D118E7C2
:103A100046F20040C4F2000000F528404FF4805107
:103A2000FFF717FD8CE7012080F3138801F000FBFE
:103A300042F68041C2F200010A8902F44052B2F516
:103A4000805F18BF7047D1F89810652924BF002106
:103A5000A0F844117047704780B586B001A800F007
:103A600005F901990EA002F044FE029911A002F09E
:103A700040FE039914A002F03CFE049917A002F046
:103A800038FE05991AA002F034FE42F68040C2F2D8
:103A90000000D0F898101BA002F02BFE06B080BDED
:103AA00020535953434C4B203D20256C64487A0ADF
:103AB000000000002048434C4B2020203D20256C76
:103AC00064487A0A000000002050434C4B3120200B
:103AD0003D20256C64487A0A000000002050434CC9
:103AE0004B3220203D20256C64487A0A00000000FB
:103AF00020414443434C4B203D20256C64487A0AC6
:103B000000000000205449434B2020203D20256C1C
:103B1000640A00002DE9F04742F68049C2F200092C
:103B2000B9F8107017A002F0E4FD47F22A08002649
:103B30000FF2580AC0F6000800240025B81900F05A
:103B40003F0009EB4000418A5046A14238BF0C4675
:103B5000A94288BF0D4602F0CCFD06F007000728F9
:103B600002D1404602F0FEFD0136402EE6D109A00A
:103B700002F0BFFD17A021462A46BDE8F04702F03B
:103B8000B8BD00BF4F6C646573740A0025366420AD
:103B900000000000202020202020202020202020A5
:103BA0002020202020202020202020202020202015
:103BB0002020202020202020202020202020202005
:103BC000202020202020202020204E65776573743F
:103BD0000A00000043414E2052582073706565640E
:103BE000206174206C617374203634207365636FB8
:103BF0006E64732E204D494E3D2564667073204DD2
:103C000041583D25646670730A000000002941F2A6
:103C10001C01C4F202010A680CBF22EA0000104332
:103C200008607047002941F21001C4F202010A68DD
:103C30000CBF22EA0000104308607047002941F2DF
:103C40001801C4F202010A680CBF22EA0000104306
:103C500008607047002941F20C01C4F202010A68B1
:103C60000CBF22EA000010430860704710B541F213
:103C70000404C4F20204226802F00C02082A41F291
:103C80000022C0F27A0212D12368D4F800C0C3F334
:103C9000834E5FEACC330EF1020C02D523689B03FE
:103CA00003D540F60012C0F23D020CFB02F20260A6
:103CB000236846F69021C3F30313C0F60001CB5CE2
:103CC000DA4042602368C3F30223CB5C22FA03F399
:103CD00083602368C3F3C223C95C46F68C2322FAAF
:103CE00001F1C1602268C0F60003C2F381329A5C20
:103CF000B1FBF2F1016110BD41F20701C4F2020112
:103D00000870704710B542F67E74C2F20004A01C21
:103D10006C21FF22FEF728FA42F68040C2F2000032
:103D20000021C180C288012342F00102C280C28802
:103D300022F00202C280C28842F0100222F0200269
:103D4000C280C288A4F860200181028942F0010289
:103D500022F0FE020281028922F4706202F54072B2
:103D60000281028922F440520281028963F39F3268
:103D70000281028922804181418941F0050121F0BF
:103D80001A014181418921F440714181418941F405
:103D900080614181418921F400614181418921F49F
:103DA00080514181418921F4005141814089402164
:103DB00020820020CFF6FF7060610120C0F28700F2
:103DC000A06145F2FF40E08304F12000FEF7D3F943
:103DD00010BD704710B542F68040C2F20000C188A5
:103DE00042F67E74C2F20004A4F8601001892180BA
:103DF0004089372120822046FFF710FCA4F86E008E
:103E0000BDE81040FFF72AB92DE9F04F83B042F624
:103E1000804846F21C41C2F20008C4F20001D8F802
:103E200098600968B1F1FF3F40F3BF80002488F833
:103E300094408246D8F8A8000128C0F2E88040F2F9
:103E4000004BC4F2000B0AF10C050AF117090BF53F
:103E5000C0470290FFF72EFB58460021C8F89C404F
:103E600000F0F8FE38462946FEF728FF044658467B
:103E700000F0B3FEB0F57A7F00F2B280042CF1D0EE
:103E80000196B8F80A00C0040DD400BF3846214698
:103E9000FEF762FFD8F89C100646B1F57A7F00F273
:103EA000A980012EF2D1B8F80A00400530D59AF861
:103EB000150073A3002869A09AF8141008BF0346E0
:103EC00080A077A208BF10461022002908BF0C224C
:103ED000DAF800105AF8022018BF184602F009FC60
:103EE0009AF8160047F22C06C0F6000650B10024DE
:103EF00019F80410304602F0FCFB9AF81600013461
:103F00008442F5D347F22A00C0F6000002F02AFCF2
:103F1000B8F80A00019E000505D5DAE90301013071
:103F20000131CAE90301DAF8000000240130CAF8BF
:103F3000000098F89400002866D1D8F8AC0042F24E
:103F4000117188420298A0F10100029019D300BFBC
:103F5000D8F89C00D8F8AC106422504388421FD295
:103F6000D8F89C0048F29F61C0F20101884217D83E
:103F7000FFF7A0FA98F894000028E9D088F8944058
:103F80000EE0D8F8AC0058B1584600F026FED8F83C
:103F9000AC10814204D9D8F89C00C828F4D300BFE3
:103FA000029800283FF755AF31E046F66240C0F670
:103FB000000002F0D7FBB8F80A00C0F30124B8F8FB
:103FC0000A00C0F30120FEF71DFC024647F21F0065
:103FD000C0F60000214603B0BDE8F04F02F089BBF7
:103FE00046F67E70C0F60000214603B0BDE8F04FF3
:103FF00002F07FBB38462146FEF7B6FA46F66570FA
:10400000C0F600003146F0E7002088F89400D8F8A8
:10401000A80065281FD3D8F898004FF47A71831B45
:10402000D8F8A80047F2B4024843B0FBF3F7D8F839
:10403000A8109AF8140047F25106002846F6C1600D
:10404000C0F60002C0F60000C0F6000608BF324607
:10405000009702F04EFB03B0BDE8F08F2054583AB1
:10406000253038642044415441204D534720494471
:104070003D30782530385820444154413D000000FF
:104080002054583A253038642052454D4F5445202D
:104090004D53472049443D307825303858000000C2
:1040A0002054583A253038642044415441204D531F
:1040B000472049443D30782530345820444154410C
:1040C0003D0000002054583A253038642052454DB8
:1040D0004F5445204D53472049443D3078253034D6
:1040E0005800000070B584B046F20045C4F20005E7
:1040F00046F698742968C0F60004204602F0F9FAE2
:104100006968204602F0F5FAA96825A002F0F1FAE4
:10411000E96828A002F0EDFA29692BA002F0E9FA7B
:1041200069692EA002F0E5FAA969D5F818C0AA6954
:10413000C2F30743AA69C2F3021EAA69C2F3800050
:10414000AA69C2F34004AE69CDE900E046F6AA7060
:104150004FEA1C6206F00106C0F6000002940396C6
:1041600002F0C7FAE969D5F81CC0EA69C2F38073A6
:10417000EA69C2F30166EA69C2F30254EA69C2F36A
:104180000340ED694FEADC726FF39F25CDE90064CF
:10419000029017A0039502F0ACFA04B070BD00BF06
:1041A0002043414E5F5453523D30782530384C58AF
:1041B0000A0000002043414E5F524630523D3078A5
:1041C0002530384C580A00002043414E5F5246319A
:1041D000523D30782530384C580A00002043414E7B
:1041E0005F4945523D30782530384C580A00000070
:1041F0002043414E5F4254523D30782530384C5870
:104200002053494C4D3D2564204C424B4D3D256487
:1042100020534A573D2564205453323D2564205491
:1042200053313D2564204252503D25640A00000070
:10423000B0B542F68040C2F200004189438946F69B
:10424000A02201F01F01C0F60002C3F3012440893F
:1042500002EBC101CD88C0F30120FEF7D3FA03467B
:104260000DA02946224602F044FA40F23404C2F27C
:104270000004D4E90B1246F6E970C0F6000002F023
:1042800038FAD4E9001246F6FE70C0F60000BDE828
:10429000B04002F02EBA00BF20424155443D256C8B
:1042A000646B204D4F44453D25642025730A000072
:1042B00070B504461AA0214602F01BFA42F67E753C
:1042C000C2F20005A88A012101FA04F619A10642EA
:1042D0001AA016A208BF114602F00BFAE88A1BA129
:1042E00006421BA018A208BF114602F002FA288B52
:1042F000E04000F0010119A002F0FBF905EBC40455
:10430000208C618C41EA004116A002F0F2F9A08CE9
:10431000E18C41EA004116A0BDE8704002F0E9B925
:104320002066696C746572202564000069646D61A3
:10433000736B000069646C6973740000204D4F4416
:10434000453D257300000000313600003332000087
:10435000205343414C453D25730000002041435408
:104360003D2564002052303D30782530385800001B
:104370002052313D3078253038580A00B0B542F629
:104380008045C2F20005288940F60044C0F30130A0
:10439000C4F2010448B3022870D0012818BFB0BD90
:1043A00020464FF48051FFF754F8D5F89800D5F81F
:1043B0009810091A632905D800BFD5F89810091A72
:1043C0006429F9D320464FF48051FFF740F8D5F81F
:1043D0009800D5F89810091A63294FD800BFD5F86E
:1043E0009810091A6429F9D348E020464FF4805107
:1043F000FFF72FF8D5F89800D5F89810091A632917
:1044000006D800BF00BFD5F89810091A6429F9D35F
:1044100020464FF48051FFF71AF8D5F89800D5F8E8
:104420009810091A632905D800BFD5F89810091A01
:104430006429F9D320464FF48051FFF70AF8D5F8E4
:104440009800D5F89810091A632905D800BFD5F847
:104450009810091A6429F9D320464FF48051FEF7C9
:10446000F6FFD5F89800D5F89810091A632905D8F1
:1044700000BFD5F89810091A6429F9D320464FF4E3
:104480008051BDE8B040FEF7E4BF02F06DB8000017
:1044900082B041F20000C4F202000168002241F043
:1044A000010101604168CFF6FF02114041600168DF
:1044B0004FF6FF72CFF6F66211400160016821F4F9
:1044C00080210160416821F4FE0141604FF41F0129
:1044D0008160002101910091016841F48031016007
:1044E000016801F4003100910199013101910099B5
:1044F00019B90199B1F5A06FF2D10168890354BFD0
:104500000021012100910099012934D142F20001DA
:10451000C4F202010A6842F010020A600A6822F03E
:1045200003020A600A6842F002020A6041684160C0
:1045300041684160416841F480614160416821F413
:104540007C114160416841F4E8114160016841F02B
:104550008071016001688901FCD5416821F0030187
:104560004160416841F00201416000BF416801F0D3
:104570000C010829FAD14EF6085042F20001CEF2A1
:104580000000C0F60001016002B070472DE9F04F55
:104590004FF0FF37930807EB92093427B7FBF3F38B
:1045A00050F8298047F6B91E03F1040C4FF0000AB9
:1045B000C9F6376EF244B9F1010FCAF3810B4FF01F
:1045C000000623DB0025474600EB860252680135D2
:1045D0009300D40883EA571384EA0714234406F0AF
:1045E000030484EA0B0451F8244082EA0A027C4066
:1045F000224450F826405A40171940F82670EEB26F
:10460000B145E1DC50F8298001E000BF474602686F
:104610009300D40883EA571384EA0714234406F06E
:10462000030484EA0B0451F8244082EA0A027C4025
:1046300022445A4090445FEA0C6240F82980ACF171
:10464000010C08BFBDE8F08FB4E7000070B5044668
:1046500000200D46A4F84201FDF764FD0068405DAE
:1046600010F03E0F18D0B4F8466101203F2EA4F898
:10467000420184F841501CD82846FDF75DFD711CAD
:10468000A4F84611A11981F8C10012E0402824BF06
:104690000020A4F8420170BD1A2D1DDCA5F1080010
:1046A000082825D8DFE800F0082E052E2E462E2EED
:1046B0007600B4F84201E9E742F20800A4F84100AC
:1046C0000320A4F84201B4F846010821002884F828
:1046D0004310EED0013898E01B2D6AD01D2D11D16A
:1046E000B4F84801411C0AB2012AC8BF411E67E064
:1046F000032D07D142F68040C2F20000012180F86C
:104700009410D6E742F67C40C2F200000068290906
:10471000415C0122A4F8422184F8411005F00F0108
:10472000405C84F842000320A4F84201202084F871
:104730004300BEE740F60D20A4F84100B4F846015E
:1047400002213F28A4F842115CD804F1C1010022E3
:104750000A540120A4F846212070B4F9480100EB66
:10476000D07222F00102801A42F63452C2F20002E4
:10477000A4F8480102EBC0108022FDF719FDB4F93E
:104780004801013000EBD07121F00101401AA4F87A
:1047900048018EE742F68040C2F20000418942891A
:1047A00001F4806122F48062114481F480614181CE
:1047B0007FE7B4F84801411E0AB2002A48BF411CF5
:1047C00042F63455A4F8481109B2C2F2000504F1CA
:1047D000C10005EBC1118022FDF7EAFCFDF7F4FCF6
:1047E000A4F84601B4F9481104F1410005EBC111E8
:1047F0008022FDF7DDFCFDF7E7FC014680B2A4F85E
:10480000421143E7002084F80001A4F8460150E774
:10481000F0B581B042F68041C2F20001456A498993
:1048200049055CBF01B0F0BD2A7A697A2AB11CA3A0
:104830000029816A6A6813A704E028A30029816A15
:104840002A681FA708BF3B46184601F052FF687A46
:1048500090B9A97A29A001F04CFFA87A60B105F1BE
:104860000B06002729A400BFF15D204601F041FF9F
:10487000A87A01378742F7D326A001B0BDE8F040FF
:1048800001F070BF2052583A25303864204441541A
:1048900041204D53472049443D3078253038580059
:1048A0002052583A253038642052454D4F54452007
:1048B0004D53472049443D3078253038580000009A
:1048C0002052583A253038642044415441204D53F9
:1048D000472049443D307825303458002052583A1A
:1048E000253038642052454D4F5445204D534720C4
:1048F00049443D307825303458000000204C454E66
:104900003D25642020444154413D0000253032586B
:10491000200000000D0A00000288002942F0010377
:1049200008BF22F001030380704710B58CB06846C1
:10493000FFF79CF940F20044C4F20004204600F066
:1049400034F802984DF683614000C4F21B31A0FB9D
:1049500001014FF0FF3000EB91400021ADF8240041
:104960000020CFF6FF71ADF82A00CDF826108DF8A3
:104970002C0009A9204600F06FF96020C0F2010068
:1049800005900020C6F2A71006904FF40030079063
:104990004FF00070089005A9204600F020F920464D
:1049A0000121FFF7B9FF0CB010BD80B541F6FF71D2
:1049B000C4F20001884228DD44F2FF31C4F2010153
:1049C00088423FDD44F6FF31C4F2010188426EDDCA
:1049D00044F60041C4F20101884200F0B58045F27E
:1049E0000001C4F20101884200F0B68045F20041A6
:1049F000C4F20101884218BF80BD4FF400100121AC
:104A0000FFF728F94FF40010D7E040F6FF71C4F229
:104A10000001884232DC40F2FF71C4F2000188429A
:104A20005ADCB0F1804F00F09F8040F20041C4F2A8
:104A30000001884240F0D08002200121FFF7F2F807
:104A40000220C4E043F2FF31C4F20101884255DC88
:104A500042F20001C4F20001884200F08B8042F66D
:104A60000041C4F20101884240F0B6804FF400607A
:104A70000121FFF7EFF84FF400609EE041F2FF7173
:104A8000C4F2000188424DDC41F20001C4F2000191
:104A9000884277D041F20041C4F20001884240F0E0
:104AA0009B8020200121FFF7BDF820208FE044F2F9
:104AB0000041C4F2010188426AD044F60001C4F208
:104AC0000101884240F088804FF480200121FFF7E7
:104AD000C1F84FF4802070E040F60001C4F20001FC
:104AE00088425DD040F60041C4F20001884273D193
:104AF00008200121FFF796F8082068E043F2004102
:104B0000C4F20101884251D044F20001C4F2010113
:104B1000884261D14FF480300121FFF79BF84FF4B8
:104B200080304AE041F60001C4F20001884249D0D9
:104B300041F60041C4F2000188424DD1802001219C
:104B4000FFF770F8802042E04FF400200121FFF7CA
:104B500081F84FF4002030E04FF480100121FFF77E
:104B600079F84FF4801028E001200121FFF75AF86E
:104B700001202CE04FF480700121FFF753F84FF42F
:104B8000807024E010200121FFF74CF810201EE077
:104B90004FF400300121FFF75DF84FF400300CE0D6
:104BA00004200121FFF73EF8042010E04FF40050EC
:104BB0000121FFF74FF84FF400500021BDE880407D
:104BC000FFF748B840200121FFF72CF840200021D2
:104BD000BDE88040FFF726B880BD808C704710B5D7
:104BE000028C22F001020284048CB0F804E0038BF2
:104BF0000A8823F0730343EA020C0A8924F00203B3
:104C00001A43A0F180434C88A3F596334FEAB323AF
:104C1000072B42EA040215D8012404FA03F313F027
:104C2000E50F0FD04B8922F00C0223F004038C888F
:104C30001A4322438C892EF4407ECB8944EA0E0429
:104C400044EA030EA0F804E0A0F818C0C9888186E1
:104C5000028410BD8184704740F6FF33B0F800C075
:104C6000C4F2000398420DDCB0F1804F1CD040F23A
:104C70000043C4F20003984216D040F60003C4F289
:104C800000030FE040F60043C4F2000398420BD04B
:104C900043F20043C4F20103984205D042F60043B8
:104CA000C4F20103984204D14B882CF0700243EA0D
:104CB000020C41F2004240F48063C4F200029342CD
:104CC00004D0CA882CF4407342EA030CA0F800C058
:104CD0008A888285A0F18042A2F596320B884FEA3D
:104CE000B222072A038507D8012303FA02F212F041
:104CF000E50F1CBF097A01860121818270470000FF
:104D000046F654320021C0F6000200BF52F82130AE
:104D1000834203D901310C29F8D10C21C8B2704764
:104D200046F654320021C0F6000200BF52F821308E
:104D3000834208BF704701310C29F7D14FF4E130AD
:104D40007047000070B543F60004C4F20104204629
:104D5000082100F088F810B1204600F016F920462E
:104D600040F2255100F084F8A0B1204600F00DF982
:104D700042F68041C2F200010A8902F44052B2F5C3
:104D8000805F08D1C1B242F63460C2F20000FEF783
:104D900033FD2CE070BD098901F44051B1F5005F8D
:104DA00007D1C1B242F63460C2F20000FDF749FB00
:104DB0001DE042F63465C2F20005C1B22846FFF795
:104DC00045FCB5F8420190B1002600BFA81990F843
:104DD0004110204600F0DDF82046802100F043F825
:104DE0000028F9D0B5F8420101368642EED32046BC
:104DF00040F22551BDE87040AFF30080090A01225E
:104E000002FA01F1C943018070478289002942F406
:104E1000005308BF22F4005383817047B0B584B0BB
:104E20006D460446284600F0B8F82046FFF778FFA4
:104E300043F60004C4F2010400902046294600F025
:104E40004BF8204640F22551012200F02EF8204672
:104E500040F22771002200F028F820460121FFF7D8
:104E6000D4FF04B0B0BD0088084018BF01207047CF
:104E700001F01F024FF0010CC1F34213022B0CFA98
:104E800002F206D0012B14BF00F1140300F10C0351
:104E900001E000F110031B880088090A1A4020FA7B
:104EA00001F018BF012210407047C1F3421301F016
:104EB0001F0C1421022B08BF1021012B4FF00103FE
:104EC00008BF0C21002A03FA0CF243580CBF23EA56
:104ED00002021A434250704770B586B00446008AF9
:104EE0000D46C98820F4405008432082A0894EF620
:104EF000F3110840A9882A896B8908431043184395
:104F0000A081A08AA98920F44070084301AEA08244
:104F10003046FEF7ABFE43F6000106F10800C4F28E
:104F200001018C4208BF06F10C0000681922B4F997
:104F30000C1050432A680223002948BF012302FABB
:104F400003F1B0FBF1F048F21F51C5F2EB11A0FBE9
:104F500001235A096FF0630302FB0300B4F90C301C
:104F60000426002B48BF032600FA06F000F13200A9
:104F7000A0FB01014FF00F0048BF072000EA5110CD
:104F800040EA0210208106B070BD80886FF35F2078
:104F900070476FF35F21818070474FF416510022F4
:104FA0004FF4402380E80E008281704740F23400C5
:104FB000C2F20000FDF70EBF42F67E70C2F20000A2
:104FC000B0F87600A0F110018AB2120942EA01316C
:104FD00089B2072905D8012202FA01F111F08B0FDD
:104FE00004D14FF2E070C1F6FF70008843F2040173
:104FF000C2F200010880800243F2000100F100606B
:10500000C2F2000108607047FEE780B545F25550D6
:10501000FEF764FA0520FEF755FA4FF47A70FEF7B2
:1050200057FAFEF747FABDE88040FEF73BBA0000AA
:105030004EF60C50BFF34F8FCEF2000001680422F1
:1050400001F4E061C0F2FA5211430160BFF34F8FE7
:1050500000BFFDE74EF60C50BFF34F8FCEF20000BD
:105060000168042201F4E061C0F2FA5211430160C8
:10507000BFF34F8F00BFFDE780B5FEF761F8002159
:10508000012808BF4FF0FF31084680BDFDF7E5FE5F
:10509000FEF71AF9FFF790FFFDF77AFFFDF7AAFF79
:1050A000FEF746FA18B9FEF72DFEFEF793FEFEF75F
:1050B000D3FAFFF73AFCFFF7A8FF43F2240046F2C9
:1050C000D161C2F20000C0F600010160FFF7D4FF19
:1050D00030B9FEF7BEF80120FEF76EF8FEF738F89B
:1050E00046F685314FF2E87040F60044C0F6000104
:1050F000C1F6FF70C4F20104FDF7C0FE0546392079
:10510000FDF7A3FFA84205D0FC20C0F60000006810
:10511000A8423BD104F580604FF40051FEF792F9AC
:1051200018B9FEF7EFFDFEF755FEFDF72FFA42F630
:105130008045C2F20005288946F65431C0F30320A9
:10514000C0F6000151F82000FFF768FE288910F42E
:10515000405F08BF01F0B2F8FFF710F942F634647F
:10516000C2F20004288910F4405F08BF01F03AFA47
:1051700001F04FF901F0F2F801F0D4F901F060F913
:105180002046FEF755FCFEF795F9EBE742F6804521
:10519000C2F2000520464FF48051FEF758F9D5F8C9
:1051A0009800D5F89810091A312905D800BFD5F80C
:1051B0009810091A3229F9D320464FF48051FEF78E
:1051C00048F9D5F89800D5F89810091A3129E1D88E
:1051D00000BFD5F89810091A3229F9D3DAE7000090
:1051E00010B543F21000C2F200000468C4B347F2E5
:1051F0005501C0F600012046FCF7C8FFD0B343F2CA
:105200001400C2F200000068002865D000210A22C4
:10521000FDF73CF880B2FDF709FB46F65031C0F6C9
:1052200000010978B1EB104F98BF10BD42F68041E4
:10523000C2F200014A89000C60F304024A814889E5
:1052400046F6A02100F01F00C0F6000101EBC000EF
:10525000C18847F21300C0F6000001F04AFA37E0B7
:1052600046F6DC50C0F6000001F07CFABDE81040C4
:10527000FEF7DEBF47F25A01C0F600012046FCF7F8
:1052800085FF002841D043F21400C2F200000068FC
:10529000002843D000210A22FCF7F8FF42F68041A3
:1052A000C2F200014A8922F4407260F309224A8165
:1052B0004889C0F301244889C0F30120FDF7A2FA10
:1052C000024647F21F00C0F60000214601F011FA25
:1052D000BDE81040FDF75AB92BA001F043FA42F6A1
:1052E0008040C2F20000408946F6A02100F01F0075
:1052F000C0F6000101EBC000C18847F21300C0F600
:105300000000BDE8104001F0F4B934A12046FCF7DC
:105310003DFFE0B1BDE81040FEF7E4BE25A001F07E
:1053200021FA42F68040C2F200004189C1F3012413
:105330004089C0F30120FDF765FA024647F21F00DD
:10534000C0F600002146BDE8104001F0D2B924A10A
:105350002046FCF71BFF18B1BDE81040FEF7DABB92
:1053600047F29B01C0F600012046FCF70FFF18B181
:10537000BDE81040FDF7A4BD46F6DC50C0F60000C5
:10538000BDE8104001F0EEB92063616E20626175E6
:1053900064205B6261756420696E206B6270735D6E
:1053A000207365742043414E20626175647261749C
:1053B000652E0A002063616E206D6F6465205B308E
:1053C0007C317C327C335D207365742043414E20F8
:1053D000776F726B206D6F64652E0A0072656700CF
:1053E0007370656564000000FDF76ABD10B582B09A
:1053F00043F21000C2F200000468DCB15AA120465A
:10540000FCF7C4FE88B343F21400C2F20000006847
:1054100042F68044C2F2000438B100210A22FCF7AF
:10542000FDFEE18860F30001E180E08800F0010109
:105430004FA05DE046F61350C0F6000001F092F96F
:1054400042F68040C2F20000C188C28801F001012A
:10545000C2F30112C388C3F34003D0F8A0405EA09A
:10546000009401F046F902B010BD44A12046FCF7BB
:105470008DFEE0B143F21400C2F20000006868B192
:1054800000211022FCF7CAFE42F68041C2F2000160
:10549000CA8822F0300260F30512CA8042F68040CA
:1054A000C2F20000C088C0F3011136A020E038A18C
:1054B0002046FCF76BFE00B343F21400C2F200007A
:1054C000006868B100210A22FCF7A8FE42F680417C
:1054D000C2F20001CA8822F0020260F34102CA80CF
:1054E00042F68040C2F20000C088C0F340012AA00A
:1054F00002B0BDE8104001F0FCB847F24701C0F629
:1055000000012046FCF742FE40B142F68040C2F264
:105510000000C0888007A6D422A020E029A1204650
:10552000FCF734FEB8B143F21400C2F20000006888
:1055300048B100210A22FCF771FE42F68041C2F216
:105540000001C1F8A00042F68040C2F20000D0F88D
:10555000A0101EA0CCE746F61350C0F6000002B023
:10556000BDE8104001F0FEB86563686F0000000000
:10557000204543484F3D25640A0000006C65766570
:105580006C000000204C4556454C3D25580A000053
:10559000746573740000000020544553543D256425
:1055A0000A0000002073657420544553543D312097
:1055B00066697273742C2061626F7274696E672EF3
:1055C0002E2E0A0074696D65000000002054494DBC
:1055D000453D256C640A0000204543484F3D256445
:1055E000204C4556454C3D255820544553543D25A7
:1055F000642054494D453D256C640A002DE9F04373
:1056000081B043F21000C2F200000468002C00F0E8
:105610008E804BA12046FCF7B9FDF0B143F2140097
:10562000C2F200000068002845D000211022FCF7DB
:105630002DFE43F21801C2F2000109680446E9B3E5
:10564000084600211022FCF721FE87B2A7F10800CE
:10565000382888BF402797BB4CE040A12046FCF784
:1056600095FD00284BD043F21400C2F20000006800
:1056700008B343F21804C2F200042168D9B1002132
:105680001022FCF703FE2168044608460021102280
:10569000FCF7FCFDE4B285B220462946FDF728FD63
:1056A00030A0294601F025F833A0214601B0BDE81D
:1056B000F04301F01EB801B0BDE8F0834027E4B22A
:1056C00000200FF284080FF28C09002506193E2EE7
:1056D00010D8400703D14046314601F00AF8B0B275
:1056E000FDF7ABFC0146484601F003F80135A8B2CE
:1056F0008742EBD847F22A00C0F600001BE047F2D1
:105700004201C0F600012046FCF740FD18B1FDF74C
:1057100071FC20A00FE047F26E01C0F600012046A8
:10572000FCF734FD18B1FDF799FC21A003E046F623
:105730000440C0F6000001B0BDE8F04301F012B82B
:1057400072656164000000000A307825303458200A
:105750002000000025303458200000007772697462
:105760006500000020777269746520307825303438
:105770005820746F0000000020656570726F6D2006
:105780006164647265737320307825303458202E3C
:105790002E2E0A004C6F61642066726F6D20496E78
:1057A000742E20454550524F4D2E2E2E0A000000DB
:1057B0005361766520746F20496E742E20454550E4
:1057C000524F4D2E2E2E0A00B0B584B043F2100079
:1057D000C2F200000468ECB18BA12046FCF7D6FCB5
:1057E000D8B343F21400C2F20000006842F68044CD
:1057F000C2F2000448B100210A22FCF747FD61898A
:1058000021F4806160F38A2161816089C0F3802185
:105810007FA0C1E046F68960C0F6000000F0A2FF5C
:1058200042F68040C2F200004189C1F380214289E2
:10583000C2F3C0224389C3F300334589C5F3403521
:10584000D0F8A840D0F8ACC0CDE9005489A0CDF87C
:1058500008C000F04EFF04B0B0BD70A12046FCF7B8
:1058600095FCE0B143F21400C2F20000006868B198
:1058700000210A22FCF70AFD42F68041C2F2000133
:105880004A8922F4006260F3CB224A8142F68040CA
:10589000C2F200004089C0F3C02161A07CE063A196
:1058A0002046FCF773FCE0B143F21400C2F20000A2
:1058B000006868B100210A22FCF7E8FC42F680414A
:1058C000C2F200014A8922F4805260F30C324A810C
:1058D00042F68040C2F200004089C0F3003155A07A
:1058E0005AE057A12046FCF751FCE0B143F2140006
:1058F000C2F20000006868B100210A22FCF7C6FC71
:1059000042F68041C2F200014A8922F4005260F35B
:105910004D324A8142F68040C2F200004089C0F315
:10592000403149A038E04BA12046FCF72FFCB8B12C
:1059300043F21400C2F20000006848B100210A22BC
:10594000FCF7A4FC42F68041C2F20001C1F8A800B5
:1059500042F68040C2F20000D0F8A8103EA01BE042
:1059600040A12046FCF712FCD8B143F21400C2F269
:105970000000006848B100210A22FCF787FC42F6CB
:105980008041C2F20001C1F8AC0042F68040C2F290
:105990000000D0F8AC1034A004B0BDE8B04000F076
:1059A000A8BE47F28501C0F600012046FCF7EEFBD9
:1059B00008B346F21840C4F200000168D0F800C0F5
:1059C0000368C3F307430468C4F3021E0268C2F30A
:1059D00080040268C2F3400500684FEA1C6200F0D0
:1059E000010C46F6AA70C0F60000CDE900E402956D
:1059F000CDF80CC02DE746F68960C0F6000004B073
:105A0000BDE8B04000F0AEBE73686F7700000000E4
:105A10002053484F573D25640A000000616464002C
:105A2000204144443D25640A0000000073696E670C
:105A30006C6500002053494E474C453D25640A00E3
:105A40006C6F6F7000000000204C4F4F503D25647C
:105A50000A000000636E740020434E543D25640A22
:105A60000000000070726400205052443D256475AF
:105A7000730A00002053484F573D25642041444499
:105A80003D25642053494E474C453D2564204C4FED
:105A90004F503D256420434E543D256420505244D0
:105AA0003D256475730A000070B543F21000C2F220
:105AB00000000068F0B1002110220026FCF7E6FB90
:105AC00040F2340420F06040C2F20004206143F24E
:105AD0001400C2F200000568042047F26701207537
:105AE000C0F600012846FCF751FB58B10220607552
:105AF00000210EE046F69140C0F60000BDE870407F
:105B000000F030BE04F1170128466675FDF7A6FCCB
:105B100001462046A175BDE87040FEF775B900004A
:105B2000B0B543F21000C2F200000468ACB347F213
:105B30005F01C0F600012046FCF728FBD0BB2046E1
:105B400000210A22FCF7A2FB43F21401C2F2000179
:105B50000D6847F25A0100F00704C0F6000128461C
:105B6000FCF714FB38B343F21800C2F200000068DF
:105B700000B300210A22FCF789FB42F67E72C2F2D2
:105B800000020121938AA14043EA0105C00708BF32
:105B900023EA01052046958286E046F69D50C0F630
:105BA000000000F0DFFD0024A0B2FEF781FB01340D
:105BB000082CF9D1B0BD3EA12846FCF7E7FAD0B1D8
:105BC00043F21800C2F2000000680028F2D0002161
:105BD0000A22FCF75BFB42F67E72C2F20002012150
:105BE000D38AA14043EA0105C00708BF23EA0105A3
:105BF0002046D58258E030A12846FCF7C7FAD0B13C
:105C000043F21800C2F2000000680028D2D0002140
:105C10000A22FCF73BFB42F67E72C2F2000201212F
:105C2000138BA14043EA0105C00708BF23EA010521
:105C30002046158338E021A12846FCF7A7FAB0B129
:105C400043F21800C2F2000000680028B2D0002120
:105C50001022FCF71BFB42F67E72C2F200020146E4
:105C6000000C02EBC4021084204651841CE014A1F5
:105C70002846FCF78BFAB0B143F21800C2F20000DC
:105C80000068002896D000211022FCF7FFFA42F6A7
:105C90007E72C2F200020146000C02EBC402908444
:105CA0002046D18400E02046BDE8B040FEF700BBAE
:105CB0007363616C65000000616374007230000002
:105CC0007231000070B547F2BC060025C0F6000630
:105CD00005A400BF701971594268204600F009FD03
:105CE0000C35782DF6D170BD202573202D3E202552
:105CF0007300000010B543F21000C2F20000046807
:105D00002CB317A12046FCF741FA38B947F29B01A2
:105D1000C0F600012046FCF739FA00B110BD11A110
:105D20002046FCF733FA48B142F68040C2F2000048
:105D3000C1880EA0BDE8104000F0DBBC0FA12046DA
:105D4000FCF724FA18B1BDE81040FDF785BE46F611
:105D50007850C0F60000BDE8104000F003BD00BF61
:105D60007379730072656773000000002046554E1A
:105D7000433D3078253034580A000000636C6B00D6
:105D800010B543F21000C2F20000006880B140F686
:105D9000004400211022C4F20104FCF777FAC00786
:105DA00007D120464FF48051BDE81040FDF751BBAC
:105DB00010BD20464FF48051BDE81040FDF747BBB1
:105DC000B0B543F21000C2F20000006800B3002139
:105DD0001022FCF75BFAE0B1044643F21400C2F271
:105DE0000000006830B100211022FCF74FFA85B2A4
:105DF000072D01D84FF4807520462946FDF7F2FBA8
:105E0000034608A021462A46BDE8B04000F071BC18
:105E1000B0BD46F6C730C0F60000BDE8B04000F0A7
:105E2000A1BC00BF53544152543D307825303858FE
:105E3000204C454E3D307825303858204352433D64
:105E40003078253034580A002DE9F04F81B0FFF743
:105E500013F910B101B0BDE8F08F43F21000C2F2A7
:105E600000000068C8B300211022FCF70FFAC8B385
:105E700047F22C0647F22A0982464FF0000B0FF238
:105E80007808C0F600061EA7C0F60009044600BF49
:105E90000AEB0B11404600F02CFC0025615D3046FA
:105EA00000F027FC0135102DF8D10025615DA1F12E
:105EB00020005F28384628BF2E2100F01AFC01354B
:105EC000102DF3D1484600F04DFC0BF1010BBBF156
:105ED000100F04F11004DBD1BCE746F63C70C0F6AD
:105EE000000003E046F6C730C0F6000001B0BDE890
:105EF000F04F00F037BC00BF307825303458200018
:105F00002563000010B543F21000C2F200000468DF
:105F100064B347F24201C0F600012046FCF736F9AF
:105F200030B116A000F01EFCBDE81040FDF700BB2C
:105F300047F26E01C0F600012046FCF727F930B1A8
:105F400017A000F00FFCBDE81040FDF743BF47F27B
:105F50005F01C0F600012046FCF718F930B118A027
:105F600000F000FCBDE81040FDF7CCBE46F6E9604D
:105F7000C0F60000BDE8104000F0F4BB204C6F619B
:105F80006420706172616D65746572732066726FF2
:105F90006D20454550524F4D2E2E2E0A0000000018
:105FA000205361766520706172616D6574657273EE
:105FB00020746F20454550524F4D2E2E2E0A000062
:105FC00020526573746F72652064656661756C74C8
:105FD00020706172616D65746572732E2E2E0A00D9
:105FE00043F21000C2F20000006808B9002003E08C
:105FF00000210A22FCF74AF9FCF7BCFF03A000F0DD
:10600000B1FB012080F31388FFF724F8207265624A
:106010006F6F74696E672E2E2E200A0070B543F2E2
:106020001000C2F200000068E8B100211022002632
:10603000FCF72CF940F234046FF3DF20C2F20004C5
:10604000E06043F21400C2F20000056847F2670105
:10605000C0F6000128462675FCF798F858B10220D2
:10606000607500210EE046F6D240C0F60000BDE8A3
:10607000704000F077BB04F1170128466675FDF704
:10608000EDF901462046A175BDE87040FDF7BCBEA4
:1060900010B543F21000C2F20000046864B347F286
:1060A0005501C0F600012046FCF770F8002855D0D5
:1060B00043F21400C2F200000068002871D00021F1
:1060C0000A22FCF7E3F8FEF71BFE42F68041C2F21B
:1060D00000010A8900F00F0022F4706242EA0020F9
:1060E0000881088946F65431C0F30320C0F6000148
:1060F00051F820104BA062E046F60960C0F600009F
:1061000000F030FB42F68044C2F20004208946F6DB
:106110005431C0F30320C0F6000151F8201061A0F3
:1061200000F0E7FA208947F23202C0F301312089FA
:1061300047F2370300F44050B0F5805F47F21F008C
:10614000C0F60002C0F60000C0F6000308BF1A4601
:1061500000F0CFFA2089C1B255A030E047F25A01D1
:10616000C0F600012046FCF711F860B342F680400B
:10617000C2F20000018947F23202C1F30131008905
:1061800047F2370300F44050C0F60002C0F60003A7
:10619000B0F5805F08BF1A4636A0BDE8104000F099
:1061A000A8BA42F68040C2F20000008946F6543197
:1061B000C0F30320C0F6000151F8201028A0BDE86C
:1061C000104000F096BA30A12046FBF7DFFFC0B1C7
:1061D00043F21400C2F200000068D0B100210A228C
:1061E000FCF754F842F68041C2F200010A8960F3DC
:1061F00007020A810889C1B246F63160C0F6000084
:10620000DDE746F60960C0F60000BDE8104000F08A
:10621000A9BA42F68040C2F200000089C1B21CA0B7
:10622000CDE700BF20736574205541525420424190
:10623000554420746F20256C642C20736176652092
:1062400026207265626F6F7420746F206170706CAD
:1062500079206E657720626175642E0A0000000067
:1062600020554152542042415544203D20256C6424
:106270000A0000002055415254204D4F4445203D16
:106280002025642025730A00616464720000000008
:1062900020554152542041444452203D2025640A57
:1062A0000000000020424155443D256C640A000076
:1062B00020414444523D25640A00000070B546F672
:1062C0009630C0F600000088410AC0F3431200F087
:1062D0001F030BA000F00DFA4FF2E8760025C1F67F
:1062E000FF760DA436F81510204600F002FA0135AD
:1062F000062DF7D10AA0BDE8704000F033BA00BF08
:10630000205541525443414E207625642E25642E5B
:10631000256420534E3A0000253034580000000018
:106320000A204543484F2053747564696F203C65CB
:1063300063686F2E786A747540676D61696C2E634F
:106340006F6D3E2E20416C6C20526967687473201B
:1063500052657365727665642E200A002DE9F04758
:1063600042F67E70C2F20000408B40F234086FF3B8
:10637000DF20C2F20008C8F80C000020A8F81400C2
:10638000012042F66C0788F81600C2F20007D7F821
:106390000804E0B343F60009C4F20109A9F5544525
:1063A00008F10C0607F2FF3AD7F80404002400783D
:1063B00088F8170028463146FCF780FC042806D1EF
:1063C000FDF778F8B4F5704F04F10104F2D9D7F86D
:1063D00004040022411C514588BFA0F2FF31C7F8D8
:1063E0000414484640F22551FEF75FFDD7F8080433
:1063F00040F225510138C7F8080448460122FEF74B
:1064000054FDFDF757F8D7F808040028CCD1BDE8B3
:10641000F08742F68040C2F200004089800409D42F
:1064200040F2340042F63461C2F20000C2F20001D0
:10643000FCF782BB40F23400C2F20000FCF79ABACB
:1064400070B584B042F6804446F21845C2F20004AA
:10645000C4F20005A0882968800601F0060026D451
:1064600050B3E08810F0300F1DD014A000F041F9B7
:106470002968D5F800C02A68C2F307432A68C2F326
:10648000021E2A68C2F380002A68C2F340062D6803
:106490004FEA1C6205F00105CDE900E011A002966B
:1064A000039500F026F9A08840F0200003E018B919
:1064B000A08820F02000A08004B070BD2057617239
:1064C0006E696E673A2043414E2062757320657293
:1064D000726F72206F636375727265642E2E2E0A5E
:1064E000000000002043414E5F4553523D30782567
:1064F00030384C58205245433D2564205445433D97
:106500002564204C45433D256420424F46463D25A9
:106510006420455056463D256420455747463D2555
:10652000640A000042F68040C2F2000001780229AD
:1065300004D0012918BF7047FDF720BF01894AF632
:10654000AB22C1F301310131CAF6AA22A1FB022319
:106550005A08038902EB4202891A23F4405242EAA4
:1065600001310181FDF736BC10B542F68044C2F21C
:106570000004D4F89C0042F211730130C4F89C006E
:1065800043F22000C2F20000018801318AB29A422F
:10659000018010D300210180208A00F03F0020827A
:1065A000204650F80C2F238A00EB4303DA80016069
:1065B000208A0130208243F22200C2F200000188CA
:1065C00001310AB20A2A0180B8BF10BD0021018042
:1065D000D4F898000130C4F89800FCF785FF2070CB
:1065E00010BD00002DE9F04F81B042F63465C2F2D3
:1065F00000052878002867D047F2300105F1C10076
:10660000C0F60001FBF7E8FD43F20C0643F2100B65
:1066100043F2140443F2180843F21C09C2F20006C4
:10662000C2F2000BC2F20004C2F20008C2F200097A
:10663000306028B347F23001C0F600010020FBF7BC
:10664000CBFDCBF80000D8B147F23001C0F6000115
:106650000020FBF7C1FD206090B147F23001C0F689
:1066600000010020FBF7B8FDC8F8000040B147F278
:106670003001C0F600010020FBF7AEFDC9F80000B4
:10668000A146346847F2BC0A0027C0F6000A00BFE2
:106690005AF807102046FBF779FD18B90C37CC2FB4
:1066A000F6D103E00AEB07008068804743F21C0143
:1066B0000020C2F200013060CBF80000C9F80000F1
:1066C000C8F800000860287001B0BDE8F08F000035
:1066D00010B543F60004C4F2010401462046FEF75B
:1066E00058FC00BF20468021FEF7BDFB0128F9D1F0
:1066F00010BD83B080B581B00DF10C0C8CE80E009C
:1067000003A9009100F03AF801B0BDE8804003B061
:106710007047B0B543F2080504460A28C2F20005E6
:106720000ED1296821B1481C0D2228600A7009E0A9
:1067300043F22400C2F20000016889B10D208847AD
:10674000286818B1411C29600470B0BD43F22400D0
:10675000C2F20000016819B12046BDE8B040084708
:10676000B0BD000010B5017839B1441CC8B2FFF7C4
:10677000D0FF14F8011B0029F8D110BD2DE9F04F0E
:1067800085B00DF1040B0C460546ABF1010900BFC5
:106790002A4615F8010B252802D0002847D11BE115
:1067A0005078302803D02D2805D1022100E00121A6
:1067B0009078D51C01E0951C0021A0F13002D2B2E6
:1067C0004FF0000A092A0DD8C2B215F8010B0AEBE6
:1067D0008A0302EB4302A0F13003DBB20A2BA2F1E1
:1067E000300AF1D340F020026C2A04BF15F8010BE7
:1067F0000431002800F0F0800246602888BF203A6B
:10680000D3B24E2B0CDDA3F14F02092A0FD8DFE8DB
:1068100002F0050E0E0E150E110E0E13082264E086
:10682000422B61D0432B00F0D480442B02D0FFF7E1
:1068300070FFADE70A2258E0102256E054F8046BCE
:10684000002000BF0746305C002807F10100F9D1A5
:106850008907A0F101081DD4D04580461AD20094C2
:1068600043F2080443F22408C2F20004C2F2000812
:10687000206820B1411C21602021017004E0D8F87B
:10688000001009B12020884701375745F0D3009CFC
:1068900007F10108307840B1013600BFC0B2FFF700
:1068A00038FF16F8010B0028F8D1D045BFF470AFBF
:1068B00043F22407009443F20804C2F20007AAEB53
:1068C0000806C2F20004B846202700BF206818B1AD
:1068D000411C2160077004E0D8F8001009B12020A5
:1068E0008847013EF2D172E0022254F8046B443B27
:1068F000B3FA83F35B09002E4FF0000748BF01276E
:1069000013EA070CA6464FF0000818BF7642782815
:106910004FF0070008BF2720B6FBF2F7444607FBFD
:10692000126308F10108092B88BF03443033B8F122
:106930000F0F0BF8043002D8B2423E46ECD9BCF13E
:10694000000F18BF0831080742BF2D200BF80800C0
:1069500008F10108C8074FF03006744608BF20262A
:10696000880747460CD4D04508D247463046FFF743
:10697000D0FE01375745F9D3013701E008F101078F
:1069800019F80800A8F10108FFF7C3FEB8F1000FDD
:10699000F6D15745BFF4FCAEAAEB070643F2240735
:1069A000009443F20804C2F20007C2F20004B846A1
:1069B000202700BF206818B1411C2160077004E047
:1069C000D8F8001009B120208847013EF2D1009C80
:1069D000DEE614F8040B2AE705B0BDE8F08F0000EE
:1069E000004870470400002002E008C8121F08C1D8
:1069F000002AFAD170477047002001E001C1121F40
:106A0000002AFBD170470040404040404040404099
:106A10004141414141404040404040404040404071
:106A20004040404040404005020202020202020291
:106A30000202020202020220202020202020202028
:106A40002002020202020202909090909090101098
:106A50001010101010101010101010101010101036
:106A600010100202020202028888888888880808BA
:106A70000808080808080808080808080808080896
:106A80000808020202024000076A00080204060821
:106A900000000000010203040102030406070809C4
:106AA000000702000300E80300040100050084035E
:106AB00000050100050020030005010006009A0200
:106AC0000006010006005802000300000C00F4015B
:106AD000000D020005009001000601000C002C01D1
:106AE000000300001800FA00000801000F00C800B1
:106AF00000060100180096000003000030007D0031
:106B0000000801001E006400000C010019005A007A
:106B1000000300004B005000000601003C003C0058
:106B2000000801003C00320000030000960028002D
:106B30000006010078001E00000300002C01140074
:106B40000003000058020A00000701005802050077
:106B50001600000000100E0000080700008403006B
:106B600000C2010000E1000000960000004B0000A0
:106B700080250000C012000060090000B004000081
:106B80002C0100000CE48D70097BDD41DA886E0E6B
:106B900095C161B92D009A2D3031323334353637F5
:106BA00038394142434445460053696C656E745F11
:106BB0004C6F6F704261636B004E6F726D616C0061
:106BC00053696C656E740020426164204164647294
:106BD000657373210A006D656D637263205B686580
:106BE0007820616464725D205B686578206C656EF6
:106BF0005D2053686F77204D656D6F727920435229
:106C0000432E0A00656570726F6D205B6C6F616466
:106C10007C736176657C726561647C77726974658A
:106C20005D205B616464725D205B646174615D2002
:106C30004F70657261746520496E742E2045455011
:106C4000524F4D2E0A00646973706C61792053575E
:106C50002076657273696F6E20616E6420534E2ECC
:106C60000A00205761726E696E673A2043616E2098
:106C70006E6F742073656E64206D736720756E642B
:106C800065722053696C656E74204D6F64652E0AC1
:106C900000657874205B68657849445D205B6865B1
:106CA00078444154417C72656D6F74655D20536515
:106CB0006E6420657874656E6465642064617461D7
:106CC0002F72656D6F7465206D6573736167652ED6
:106CD0000A00737464205B68657849445D205B68D2
:106CE0006578444154417C72656D6F74655D2053D5
:106CF000656E64207374616E646172642064617493
:106D0000612F72656D6F7465206D65737361676562
:106D10002E0A006374726C205B6563686F7C6C651F
:106D200076656C7C746573747C6C65647C74696D69
:106D3000655D205B706172616D5D2044657669639D
:106D400065204374726C2E0A007265626F6F742046
:106D50005B64656C6179206D735D2052657374614D
:106D600072742073797374656D2E0A0068656C7097
:106D700020496E666F2E0A00696E666F205B73791C
:106D8000737C636C6561727C636C6B5D2053686FB0
:106D9000772F53657420496E666F2E0A0066696C02
:106DA000746572205B302D375D205B6D6F64657C90
:106DB0007363616C657C6163747C72307C72315D7D
:106DC000205B706172616D5D2043414E2066696C8D
:106DD0007465722073657475702E0A0063616E208D
:106DE0005B626175647C6D6F64657C7370656564FE
:106DF0007C636C6561725D2043414E20706F7274DC
:106E00002073657475702E0A0075617274205B6260
:106E10006175647C6D6F64657C616464725D20552E
:106E200041525420706F72742073657475702E0A0D
:106E3000002073657420554152542041444452202F
:106E4000746F2025642C207361766520262072657E
:106E5000626F6F7420746F206170706C79206E6542
:106E60007720616464722E0A00636C65617220632E
:106E70006C6561722043414E2052582F5458206354
:106E80006F756E7465722E0A00656E76205B73688E
:106E90006F777C6164647C636E747C7072645D2067
:106EA0005365742F53686F7720656E7669726F6EC5
:106EB0006D656E74207661726961626C65732E0A0D
:106EC000002053656E6420256C6420257320667253
:106ED000616D657320696E20256C646D732061742B
:106EE0002025646670732E0A00706172616D205BEC
:106EF0006C6F61647C736176657C726573746F72AC
:106F0000655D204F70657261746520706172616D9E
:106F100065746572732E0A006C6564205B307C3189
:106F20005D20636F6E74726F6C20746865206C6591
:106F30006420646973706C61792E0A006D656D72EE
:106F400064205B68657820616464725D205B6865BD
:106F500078206C656E5D2053686F77204D656D6F8E
:106F600072792E0A002054784661696C656420535A
:106F700074617475733D3078253032580A00204EA4
:106F80006F4D61696C426F78205374617475733D05
:106F90003078253032580A002043414E5F4D53521D
:106FA0003D30782530384C580A002043414E5F452B
:106FB00053523D30782530384C58205245433D25BA
:106FC00064205445433D2564204C45433D256420C1
:106FD000424F46463D256420455056463D25642097
:106FE000455747463D25640A00205258204F4B3DE7
:106FF000256C64204C4F53543D256C640A0020548A
:1070000058204F4B3D256C64204C4F53543D256C0C
:10701000640A0020424155443D256C646B0A0020FF
:107020004D4F44453D25642025730A0025303258D4
:1070300020005445524D00504B54006D656D6372F5
:1070400063006C6F6164006C6564006D656D7264F3
:10705000007374640062617564006D6F6465007232
:107060006573746F72650072656D6F74650073612E
:107070007665006374726C00706172616D006565A5
:1070800070726F6D0063616E0076657273696F6E0A
:1070900000696E666F0068656C7000636C65617294
:1070A0000066696C746572007265626F6F7400755A
:1070B0006172740065787400656E760085700008F2
:1070C000DC6D0008E151000851700008D26C000826
:1070D0001D600008B4700008916C0008A95A0008EF
:1070E000B8700008896E0008C9570008AF70000822
:1070F000096E000891600008A17000089D6D0008ED
:10710000215B000878700008E96E0008055F000840
:10711000A8700008496D0008E15F0008967000083B
:107120006C6D0008C55C000889700008466C00089A
:10713000BD6200087E700008046C0008FD55000860
:1071400091700008786D0008F55C00087370000805
:10715000136D0008ED53000847700008186F000811
:10716000815D00084B7000083C6F0008495E000814
:107170003B700008D66B0008C15D00089B700008DA
:10718000696E0008E9530008A8710008000000209B
:10719000302D0000DC23000828720008302D00206C
:1071A000F8060000F869000891520454A24A04321B
:1071B00034023D20326C33206C02FF2001FF01FFBE
:1071C00001FF01FF01FF01FF01FF01FF01FF01FFBF
:1071D00001FF01FF01FF01FF01FF01FF01FF01FFAF
:1071E00001FF01FF01FF01FF01FF01FF01FF01FF9F
:1071F00001FF01FF01FF01FF01FF01FF01FF01FF8F
:1072000001FF01FF01FF01FF01FF01FF01FF01FF7E
:1072100001FF0169996C2800206C28002005A998BD
:087220006B0008820100000070
:04000005080020EDE2
:00000001FF
