:020000040800F2
:102000002834002001210008ED350008F1330008D4
:102010007935000821250008794F000800000000EC
:10202000000000000000000000000000873D0008E4
:10203000092F0008000000000B3A000823440008A4
:102040001B2100081B2100081B2100081B21000880
:102050001B2100081B2100081B2100081B21000870
:102060001B2100081B2100081B2100081B21000860
:102070001B2100081B2100081B2100081B21000850
:102080001B2100081B2100081B2100081B21000840
:102090003D4F00081B2100081B2100081B210008E0
:1020A0001B2100081B2100081B2100081B21000820
:1020B0001B2100081B2100081B2100081B21000810
:1020C0001B2100081B2100081B2100081B21000800
:1020D0001B210008D94C00081B2100081B21000807
:1020E0001B2100081B2100081B210008DFF80CD071
:1020F00000F054F900480047FD4F00082834002044
:102100000648804706480047FEE7FEE7FEE7FEE791
:10211000FEE7FEE7FEE7FEE7FEE7FEE729440008EC
:10212000ED20000800487047A46A0008A0F1610192
:10213000192900D820387047A0F14101192900D889
:102140002030704740EA01039B0703D009E008C92B
:10215000121F08C0042AFAD203E011F8013B00F86C
:10216000013B521EF9D27047D2B201E000F8012BB8
:10217000491EFBD270470022F6E710B513460A4607
:1021800004461946FFF7F0FF204610BD30B505465E
:102190002A460B4612F8010B13F8014B08B1A04276
:1021A000F8D01CB1002802D06D1CF1E7284630BDE4
:1021B00010B5044604E00B7800F8013B03B1491C5C
:1021C000521EF8D2204610BD421C10F8011B0029F7
:1021D000FBD1801A7047000070B50F4D00B9286818
:1021E000002412E00A4602E09E4203D0521C1378FB
:1021F000002BF9D1DAB2224305D02BB124B1002152
:1022000000F8011B04E00446401C0678002EE9D1CA
:102210002860204670BD0000000000202DE9F04736
:1022200091460F4680460446002614F8015B2DB106
:10223000FFF778FF0068405DC007F6D12B2D02D074
:102240002D2D18D0641E4A463946204600F057F816
:1022500027B13968A14201D1C7F8008071054FF05C
:1022600002040BD54042002803DD04F0C7FB0460E4
:10227000A007BDE8F08746F48066E4E70028F8DAB6
:1022800004F0BCFB04606FF00040F2E72DE9F05F62
:1022900093460F4680460446002604F0AFFBD0F874
:1022A0000090824614F8015B2DB1FFF73BFF0068F8
:1022B000405DC007F6D12B2D02D02D2D1AD0641E03
:1022C0000021CAF800105A463946204600F017F897
:1022D000014627B13868A04201D1C7F80080DAF87A
:1022E0000000022809D0CAF80090700505D54842C0
:1022F000BDE8F09F46F48066E2E70846F8E72DE97E
:10230000F05F82460078002715468B460AF10104EB
:10231000B946302801D09DB113E014F8010B012714
:10232000782803D0582801D045B10AE00DB1102D0E
:1023300007D10027102514F8010B02E0082500E062
:102340000A250026B0460EE005FB080005FB06F155
:10235000012701EB10461FFA80F8B6F5803F00D345
:10236000B94614F8010B294600F02AF80028EBDAE8
:10237000BBF1000F05D00FB1641E00E05446CBF84E
:102380000040B9F1000F06D004F038FB02210160D3
:10239000C81EBDE8F09F48EA0640FAE7064C074D24
:1023A00006E0E06840F0010394E807009847103425
:1023B000AC42F6D3FFF79EFEE871000808720008F1
:1023C0003A2800D2303820F02002412A01D3A2F16D
:1023D0003700884201D34FF0FF30704730B58C187A
:1023E00010F8012B12F00F0301D110F8013B120974
:1023F00006D110F8012B03E010F8015B01F8015B36
:102400005B1EF9D101E001F8013B521EFBD1A14254
:10241000E6D3002030BD406A417A89B9017A79B9A2
:1024200042F67E71C2F20001498B02686FF3DF2130
:102430008A4205D1817A012902D1C07A04F07BB9A0
:10244000704742F66C0CC2F2000CDCF80834002233
:10245000B2EB932F10D1DCF800240CF2FF33117093
:10246000DCF800144A1C9A4288BFA1F2FF320CF536
:102470008161CCF8002401E00CF20C410A680132C1
:102480000A60B0F842017047B0B5B0F801100546D7
:1024900020F8411F4FF2E873811C0022C1F6FF7340
:1024A000D45C8C5401320C2AFAD10E2101F066F86A
:1024B000A5F84F00B0BD10B50446D0F8010044F8AF
:1024C000410F34F83D0C14F83B1C00BA020C0429EF
:1024D00028BF042101EB10403F2834F83C0C88BF92
:1024E00081F03F02A08042F67E70C2F2000000EB55
:1024F00042014B78A37110F81200E071C878207285
:10250000887860724879A0720879E072C87920737F
:1025100088790E216073204601F030F8E08110BD0B
:10252000FEE70000022988BF704749B203A252F8B3
:102530002110826811438160704700BF8000000055
:1025400000800000000080002DE9F04381B046F2D9
:102550000048C4F20008404600F050F840F210066F
:10256000C2F2000606F10805284600F069FB4FF0AC
:10257000010942F6804086F80F9086F81390C2F267
:1025800000004189C1F30121B172408900F01F01AF
:10259000284600F03DFB4046294600F047F942F648
:1025A0007E740025C2F20004002700BF04EBC701BF
:1025B0000A6A304640F8142FA28A09FA07F31A4033
:1025C00018BF0122C272E28A496A1A4018BF01226A
:1025D0000273228B87721A4018BF01224273416036
:1025E000058100F029F80137082FDFD1404602218C
:1025F000012201B0BDE8F04300F00FB910B546F27A
:102600000041C4F200014FF08064884208BF4FF0DF
:1026100000742046012101F0DFFA20460021BDE8C8
:10262000104001F0D9BA1022002908BF0C228158AD
:1026300041F0200181507047B0B546F20061C4F20C
:10264000000190F80AE0037B0A68012442F00102CD
:102650000A60CA6904FA0EF56FEA050CAA43012B59
:10266000CA610DD0F3B9CA6802EA0C02CA60C28816
:10267000438843EA024201EBCE031A6403460AE0B0
:10268000CA682A43CA600288438843EA024201EBCF
:10269000CE031A64831D82881B8843EA024201EB41
:1026A000CE035A64C27A4B68002A43EA050408BF85
:1026B00003EA0C044C600389012B04D03BB94A693E
:1026C00002EA0C0302E04A6942EA05034B61407BDF
:1026D000012802D1C8692843C861086820F00100B8
:1026E0000860B0BD02464069084204BF0020704740
:1026F000FF294FF0000011DC0F291EDC01390729EA
:1027000049D8DFE801F0043B483D4848483F90681D
:1027100040F20111C0F20101084040E0B1F5006F44
:1027200016DBB1F5803F20DAB1F5006F2ED0B1F5A0
:10273000004F18BF7047506814E010292CD0202992
:1027400030D0402902BF1069C0F30010704722E06A
:10275000B1F5807F28D0B1F5007F29D0B1F5806F29
:1027600019D19069C0F38000704725D0B1F5003FC2
:1027700002BF5068C0F3001070470CE0D0680CE056
:10278000D0681AE0D068C0F300107047906910F06C
:10279000700018BF01207047106910F0030018BFC7
:1027A00001207047106908E0906900F0010070474F
:1027B0009069C0F3400070475068C0F3C000704794
:1027C00003288FBF02A000B203A151F82000704778
:1027D000556E6B6E6F776E00D56B0008CC6B000882
:1027E000DC6B0008C56B000846F6BC220021C0F671
:1027F000000200BF02EBC103DB88834204D0013139
:102800001629F7D1052102E0162928BF052102EB80
:10281000C100C08840EA01407047002A42690CBFED
:1028200022EA0101114341617047000080B502684E
:1028300022F002020260026842F0010202604FF6DA
:10284000FF7200BFD0F804C0531E934203D21CF0A5
:1028500001021A46F6D04268D20704BF002080BDAC
:102860008A790368012A23F0800308BF803303605C
:10287000CA790368012A23F0400308BF403303608C
:102880000A7A0368012A23F0200308BF203303607B
:102890004A7A0368012A23F0100308BF103303604B
:1028A0008A7A0368012A23F0080308BF083303600B
:1028B000CA7A0368012A23F0040308BF04330360C3
:1028C000CB7891F802C00A791B0691F805E043EA3B
:1028D0008C73098843EA024242EA0E5201391143DD
:1028E000C161016821F0010101604FF6FF7100BF75
:1028F00043684A1E8A4203D213F001011146F7D100
:102900004068012121EA000080BD00002DE9F0436C
:1029100081B042F63057C2F20007397802295ED002
:102920000446012976D0002940F0BF80606A616BBF
:102930000129C0F2BA80D0E9001204F10C05C4E903
:1029400003120189A182817AA17561B104F1170195
:1029500000F10B02002300BFD65CCE54867A01330F
:10296000B342F9D3606A42F6240200F11401224412
:1029700046F2004642F2EC73914288BFC11AC4F29B
:10298000000661623046022100224FF00008FFF786
:1029900044FF606B022101386063304601224FF032
:1029A0000109FFF73AFFA06A0130A06200F04EFD76
:1029B0003046294600F04EF940F20801C2F200010B
:1029C000087042F68040C2F20000C0F89C80A6F574
:1029D000C040002102F009F987F8009065E042F656
:1029E0008044C2F20004D4F8AC0000285BD0D4F8D4
:1029F000AC0042F2107188424DD846F20040C4F259
:102A00000000A0F5C04002F0B6F8D4F8AC10814246
:102A100049D34AE040F20809C2F2000946F20048F0
:102A200099F80010C4F20008404600F061F942F63F
:102A30008045C2F2000506466889012E1BD010F4BD
:102A4000805018D1D5F89C0042F2117188422CD3E5
:102A500099F800104046FFF765FDE88810F0300F48
:102A600005D099F8001012A0324603F054FE6068B9
:102A70000130606002E02068013020600220002206
:102A80003870A8F5C0400021C5F89C2001B0BDE811
:102A9000F04302F0AAB8D4F89C006421D4F8AC202A
:102AA0004843904201D90020387001B0BDE8F0835E
:102AB000206D62783D25642054784661696C6564B8
:102AC000205374617475733D3078253032580A0094
:102AD0002DE9F04381B00446406B012844DB46F207
:102AE000004642F6240042F680458846C4F20006BD
:102AF0002718C2F2000542F2EC7900BF288900F4E1
:102B00004050B0F5805F05D12046414600F0E6FD1B
:102B10000DE000BF288900F44050B0F5005F03D1FC
:102B20002046FFF778FC02E0204601F03FFE606A95
:102B3000002200F11401B94288BFA0EB09016162D3
:102B400030460221FFF769FE606B022101386063A5
:102B500030460122FFF761FEA06A0130A06200F05A
:102B600075FC606B0028C9DCA06A01B0BDE8F08389
:102B700010B500EB0114D4F8B0C11CF004031372BB
:102B8000D4F8B0E104F5D87C19BF4FEADE035360F6
:102B90004FEA5E531360DCF80030002903F00203B3
:102BA0005372D4F8B43103F00F039372D4F8B431F4
:102BB0004FEA1323D374D4F8B831D372D4F8B831B0
:102BC0004FEA13231373D4F8B8314FEA1343537306
:102BD000D4F8B8314FEA13639373D4F8BC31D3738C
:102BE000D4F8BC314FEA13231374D4F8BC314FEA44
:102BF00013435374D4F8BC314FEA136393744FF00A
:102C0000100208BF0C22815841F02001815010BDF4
:102C1000152946F6BC2C88BF0521C0F6000C48B12A
:102C20003CF831300CEBC102A0F803309378928865
:102C3000437102800CEBC100C08840EA014070473C
:102C40000021C0F80610418140F20321818001215A
:102C500001607047B0B502468068400109D49068B1
:102C6000000108D49068C0005CBF0420B0BD022001
:102C700002E0002000E0012002EB0012D2F88031D7
:102C800002F5C07E03F00103C2F8803191F808C05C
:102C9000BCF1000F03D04B684CEAC30C02E00B6898
:102CA0004FEA435C4B7A8C7ADEF8005043EA0C031F
:102CB0002B43CEF8003004F00F038B72D2F884510E
:102CC00025F00F05C2F88451D2F884512B43C2F885
:102CD0008431D1F80B30C2F88831D1F80F10C2F826
:102CE0008C11DEF8001041F00101CEF80010B0BDEB
:102CF000022925D849B21AA252F82110806808404A
:102D0000FF21C0F60001884210DD4FF6FF71C1F2CD
:102D10000001884216DC40F20011C0F60001884232
:102D20001CD040F20031C0F6000113E040B1012197
:102D3000C0F20041884211D00321C0F2004109E0F5
:102D4000022070470021C1F20101884206D0002113
:102D5000C1F20301884204BF012070470020704780
:102D60000300000400030008000003102DE9F047F1
:102D700046F20045C4F20005044628460221FFF74A
:102D8000B1FCA0B342F6240042F6804704F13008BB
:102D900004EB000A04F12C0642F2EC79C2F20007BF
:102DA000606BB0F5007F11DA226A28460021FFF738
:102DB000DFFE206A616B00F11402524588BFA0EB70
:102DC0000902481C22626063304604E02846002164
:102DD000FFF729FC4046016801310160F8680221D3
:102DE0000130F8602846FFF77DFC0028D8D1BDE807
:102DF000F08780B50220C0F20020012100F0E0FE43
:102E000044F21D00012100F0F3FE0020BDE88040E7
:102E100000F04CBF80B584B036228DF800200268E7
:102E200043688068CDF80120AA228DF8052025226C
:102E3000CDF80B009B208DF80A208DF80F00684616
:102E40000C22CDF8063001F06DFB9DE80F004840E4
:102E50005040584004B080BD10B50FA003F092FC64
:102E600040F23404C2F200040020C4E90B00C4E9BB
:102E7000000047F20500C0F600000021002203F028
:102E80004AFCD4E9001247F21A00C0F60000BDE87F
:102E9000104003F040BC00BF20436C6561722052BB
:102EA000582F545820436F756E746572732E0A0044
:102EB000B0B590F806E0BEF1040F28BF4FF0040E45
:102EC000BEF1000F08BFB0BD818842F67E7C09BA12
:102ED0000A0C0EEB02013F294FF00003C2F2000C76
:102EE0004FF0000188BF8EF03F0200BF00EB4304AB
:102EF000B4F80740013124BA9D188BB2240C9E45CA
:102F00002CF81540F2D8B0BD7047000042F6804161
:102F1000C2F20001D1F89820D1F898309B1A834270
:102F200028BF704700BFF7E770B541F60045C0F60F
:102F300000054FF6FF76A81C0021802202F4607382
:102F400030F8024C2B431B880CB9B34215D0013129
:102F50008030082902F18002F0D142F6FE74C2F2FC
:102F600000040020208000F03FF9208805EBC0100D
:102F700000F091F800F0B7F805E042F6FE72C2F2F8
:102F8000000211800688304670BD000080B542F610
:102F9000FE70C2F20000018841F6024CC0F6000C3F
:102FA00001F0070202804FEAC21E4CEAC21042F64C
:102FB0007E72831C0020C2F2000200BF195A115217
:102FC00002307C28FAD14EEA0C000088A2F87C007E
:102FD00080BD42F67E71C0B2C2F2000131F810002D
:102FE000704742F67E71C0B2C2F2000151F8100083
:102FF000704700002DE9F04142F6FE76C2F200066D
:10300000308842F67E7800F00700C2F2000841F6F0
:103010000047308040463E21C0F6000700F0CAFA63
:10302000054600F0E1F831884FF48072481C00F04A
:10303000070002EBC111308001F46071CA5B4FF6EA
:10304000FF739A4204D041EA070000F024F8308868
:1030500007EBC010290400F04FF80437002400BF2C
:10306000308858F8141007EBC01000F045F83C2CDD
:1030700004F1020407F10407F2D3054600F033F827
:103080002846BDE8F08142F67E72C0B2C2F200026C
:1030900022F810107047B0B504464FF4302000F00D
:1030A000B3F8042818BFB0BD42F21005C4F20205FF
:1030B000286840F0020028606C60286840F04000FA
:1030C00028604FF4302000F09FF8296841F6FD7227
:1030D00011402960B0BD42F21C00C4F20200006839
:1030E000C0F34000704742F21000C4F202000168D1
:1030F00041F080010160704770B582B00546002044
:1031000001904FF400500C4600F07EF804281CD1CA
:1031100042F21006C4F20206306840F0010030604E
:103120004FF400502C8000F06FF8042808D1A81C40
:1031300001900198210C01804FF4005000F064F8D8
:10314000316841F6FE721140316002B070BDB0B519
:1031500004464FF4302000F057F8042843D142F2DF
:10316000100540F22310C4F20205C4F2675045F87E
:10317000080C48F6AB10CCF6EF5045F8080C286860
:1031800040F020002860286840F0400028604FF49C
:10319000302000F039F8052808BFB0BD04281DD143
:1031A000286841F6DF710840286028684FF6000162
:1031B00040F0100028600020002C08BFA520C1F6B8
:1031C000FF7108804FF4302000F01EF8052804BF7E
:1031D0000520B0BD296841F6EF7202E0296841F68A
:1031E000DF7211402960B0BD42F2040040F22311A9
:1031F000C4F20200C4F26751016048F6AB11CCF68C
:10320000EF5101607047000042F20C01C4F202016C
:103210000A68D20709D10A6852070ED40968C9069C
:103220004FF0030158BF042115E020B10A68D2070E
:1032300005D00138FAD101210DE002210BE00A6826
:10324000520706D40968C9064FF0030158BF04218C
:1032500000E002210138002808BF05210846704718
:10326000B0B582B0022040F60005C1F60300C4F2FA
:10327000010501AC01902846214600F059F8284686
:10328000022100F0B0F80420C1F6030001902846A6
:10329000214600F04DF8C020C1F6030001902846F9
:1032A000214600F045F840F20010C1F603000190FD
:1032B0002846214600F03CF8E020C1F603000190CA
:1032C0002846214600F034F840F20020C1F6030001
:1032D00001902846214600F02BF84FF40060ADF82D
:1032E000040048208DF807002846214600F020F809
:1032F00041F20000C1F6030001902846214600F08B
:1033000017F841F20000C1F20200019005F580605B
:10331000214600F00DF842F20000C4F602000190D0
:1033200005F50060214600F003F802B0B0BD0000D2
:103330002DE9F041CA7802F00F0CD30644BF8B7818
:103340004CEA030C09880B0620D0056800234FF0D7
:1033500001084FF00F0E002608FA06F70F420FD0B3
:103360000EFA03F425EA04040CFA03F5482A45EAA8
:10337000040503D0282A08BF476101E0076100BFA8
:103380000136082E03F10403E6D10560B1F5807F14
:1033900038BFBDE8F081446800234FF4807E4FF0D1
:1033A0000F0800260EFA06F707EA0105BD420DD107
:1033B00008FA03F5AC430CFA03F5482A44EA05047D
:1033C00003D0282A08BF476100E007610136082EB4
:1033D00003F10403E6D14460BDE8F0818068084051
:1033E00018BF0120704741617047016170470000BC
:1033F000FEE7000070B50C4605460026A85DFEF706
:1034000095FEC1B2A1F130020A2A01D2D02103E017
:10341000413905290FD8C921F207014402D1090118
:10342000700802E07008225C11430136802E21549E
:10343000E4D1402070BDF0B2400870BD43F20000FE
:10344000C4F200004CF6CC410160704743F200002A
:10345000C4F200004AF6AA210160704743F2040159
:10346000C4F200010860704743F20801C4F2000191
:103470000860704743F20001C4F200010860704721
:1034800080B541F20000C4F201004FF40051FFF793
:10349000A5FF42F63251C2F200010B8830B1D808C4
:1034A0007C284FF0000209D902200BE04FF47A7219
:1034B0000020B3F57A7F38BF5A1C03E00020632B4D
:1034C00088BF01200A8080BD10B542F67E74C2F22A
:1034D00000042046382100F06DF808B1002010BD2E
:1034E000B4F8601042F68040C2F20000C18021882A
:1034F0000181218A4181018901F44051B1F5405F88
:1035000003D1018921F44051018146F6A03201899D
:10351000C0F600021278C1F30321914205D301895C
:1035200021F4706101F540710181028942F6346134
:10353000D3B2013BC2F20001F72B81F8412108D33D
:10354000028942F0010222F0FE020281012281F88A
:10355000412146F66C324189C0F60002127801F032
:103560001F01914205D3418941F00C0121F0130163
:1035700041814FF0FF3010BDFEE70000B0B54FF6BF
:10358000FF72A9B14FF0000C4AF2010E10F80C3096
:103590005A4000238EEA5204D50708BF5408224639
:1035A000072B03F10103F5D30CF1010C8C45EDD190
:1035B00090B2B0BDB0B54FF6FF72A9B14FF0000C9C
:1035C0004AF2010E30F81C305A4000238EEA5204B1
:1035D000D50708BF54082246072B03F10103F5D392
:1035E0000CF1010C8C45EDD190B2B0BD70470000DC
:1035F00010B582B04FF4E06000F065F825208DF83A
:1036000004004FF4807001ACADF80600204600F0D5
:103610002BF81420C0F200100190204600F024F88E
:1036200040F20C00C2F20000006841F25971CDF284
:10363000B711A0FB01014FF0FF3000EB5130B0F1AA
:10364000807F00D3FEE74EF21001CEF20001486009
:103650004EF62350CEF20000F02202700020886067
:103660000720086002B010BD10B5C17800294EF2E5
:103670000011CEF200011AD04EF60C52CEF200022A
:103680001268072323EA12220F23C2F1040C23FA43
:1036900002F24378847890F800E003FA0CF32240B9
:1036A0001A43120101EB0E0383F8002300E080317E
:1036B0000078012300F01F0203FA02F2C0F3421067
:1036C00041F8202010BD40F080604EF60C5140F0D3
:1036D000FD70CEF20001086070470000B0B50C46E6
:1036E00094F84121416A204600F8412F4A7A022A83
:1036F00006D082B90A7A042A08D062B9302208E0DA
:103700000A7A042A04D032B9402202E0502200E0B2
:10371000602284F842208A7A94F8423004F141050C
:103720001A4384F842200A7A0B1D002A14BFCA7972
:10373000002284F843200A7A002A14BFCA88002293
:1037400084F844200A7A002A1A4608BF0A461268FA
:10375000120A84F845200A7A002A08BF0B461A6824
:1037600084F84620D1F80F20D1F80B10C4F84B2074
:10377000C4F847100E21FFF701FFA4F84F00002402
:10378000285D02F0D8FF0134102CF9D1B0BD000043
:10379000F0B581B042F68047C2F200070026C7F8B4
:1037A0009860B0F8442104463F2A4FF0000015D835
:1037B000A0184170B4F84401012808D048B994F821
:1037C0004101401AB0FA80F04609002006E00226C6
:1037D00004E0052888BF0D2804D8461CA4F84461DD
:1037E00001B0F0BD0E2834D00F2840F09580661C43
:1037F00030461021FFF7C2FE002840F08D80A178EE
:1038000001F0700030380009032824D8DFE800F008
:1038100002415B65B4F8050040F23401000400BACF
:10382000C2F2000141F80C0F00260E81A07800F0D2
:103830000F008872D4F80B00D4F80720C1F80F00ED
:1038400046F20040C4F20000C1F80B20FFF702FA74
:10385000BBE70F26C2E701F00F00013808285BD84C
:10386000DFE800F0055C6C7073BB769AAA0004F187
:103870004105284631461022FEF764FC0027002649
:10388000E85D02F058FF0137102F4FF00000F7D12C
:10389000A4E7B4F8050040F23401000400BAC2F213
:1038A000000141F80C0F4FF400700881A07800F07F
:1038B0000F008872D4F80B00D4F80720C1F80F006D
:1038C000C1F80B2022E0D4F8030040F2340200BA21
:1038D000C2F200021061042009E0D4F8030040F2B3
:1038E000340200BAC2F2000210614FF401709082FB
:1038F000A07802F10C0100F00F009075D4F80B00D5
:10390000D4F80730C2F81B00C2F8173046F2004066
:10391000C4F20000FFF79EF9002656E72046FEF7A6
:10392000CAFD04F1410500270026E85D02F003FF0F
:103930000137102F4FF00000F7D14FE72046FFF777
:10394000B7FAE9E7FFF7C0FDE6E700F01DFAE3E7A5
:10395000306846F6B2312546C0F6000145F8410F01
:10396000B0880988A88008BA000CE8807889002708
:10397000000A287228460E21C5F809706F73FFF7F8
:10398000FDFD0026E881E85D02F0D5FE0137102F2D
:103990004FF00000F7D121E72046FEF775FD04F156
:1039A000410500270026E85D02F0C5FE0137102F13
:1039B0004FF00000F7D111E7E0794FF48051002873
:1039C00046F20040C4F2000000F5284002D0FFF7A4
:1039D0000AFDA1E7FFF709FD9EE7012080F31388A8
:1039E00001F0DEFA42F68041C2F200010A8902F4D7
:1039F0004052B2F5805F18BF7047D1F89810652922
:103A000024BF0021A0F844117047704780B586B0EC
:103A100001A800F005F901990EA002F07CFE0299C0
:103A200011A002F078FE039914A002F074FE04992C
:103A300017A002F070FE05991AA002F06CFE42F683
:103A40008040C2F20000D0F898101BA002F063FE84
:103A500006B080BD20535953434C4B203D20256C6C
:103A600064487A0A000000002048434C4B20202084
:103A70003D20256C64487A0A000000002050434C29
:103A80004B3120203D20256C64487A0A000000005C
:103A90002050434C4B3220203D20256C64487A0A4C
:103AA0000000000020414443434C4B203D20256C46
:103AB00064487A0A00000000205449434B2020202B
:103AC0003D20256C640A00002DE9F04742F680494C
:103AD000C2F20009B9F8107017A002F01CFE47F2FC
:103AE000460800260FF2580AC0F6000800240025F8
:103AF000B81900F03F0009EB4000418A5046A1424E
:103B000038BF0C46A94288BF0D4602F004FE06F0FD
:103B10000700072802D1404602F034FE0136402E4D
:103B2000E6D109A002F0F7FD17A021462A46BDE81C
:103B3000F04702F0F0BD00BF4F6C646573740A007B
:103B40002536642000000000202020202020202096
:103B50002020202020202020202020202020202065
:103B60002020202020202020202020202020202055
:103B700020202020202020202020202020204E65D2
:103B8000776573740A00000043414E205258207339
:103B900070656564206174206C6173742036342014
:103BA0007365636F6E64732E204D494E3D256466C8
:103BB0007073204D41583D25646670730A00000003
:103BC000002941F21C01C4F202010A680CBF22EA7A
:103BD0000000104308607047002941F21001C4F250
:103BE00002010A680CBF22EA000010430860704717
:103BF000002941F21801C4F202010A680CBF22EA4E
:103C00000000104308607047002941F20C01C4F223
:103C100002010A680CBF22EA0000104308607047E6
:103C200010B541F20404C4F20204226802F00C024E
:103C3000082A41F20022C0F27A0212D12368D4F895
:103C400000C0C3F3834E5FEACC330EF1020C02D501
:103C500023689B0303D540F60012C0F23D020CFB23
:103C600002F20260236846F6AC21C3F30313C0F6E8
:103C70000001CB5CDA4042602368C3F30223CB5CD3
:103C800022FA03F383602368C3F3C223C95C46F6B8
:103C9000A82322FA01F1C1602268C0F60003C2F332
:103CA00081329A5CB1FBF2F1016110BD41F2070172
:103CB000C4F202010870704710B542F67E74C2F279
:103CC0000004A01C6C21FF22FEF74EFA42F6804051
:103CD000C2F200000021C180C288012342F001022B
:103CE000C280C28822F00202C280C28842F0100262
:103CF00022F02002C280C288A4F8602001810289DB
:103D000042F0010222F0FE020281028922F4706276
:103D100002F540720281028922F440520281028936
:103D200063F39F320281028922804181418941F0FF
:103D3000050121F01A014181418921F4407141813D
:103D4000418941F480614181418921F400614181CF
:103D5000418921F480514181418921F400514181FF
:103D60004089402120820020CFF6FF706061012051
:103D7000C0F28700A06145F2FF40E08304F120001B
:103D8000FEF7F9F910BD704710B542F68040C2F257
:103D90000000C18842F67E74C2F20004A4F86010EC
:103DA000018921804089372120822046FFF702FCCB
:103DB000A4F86E00BDE81040FFF71CB92DE9F04FE4
:103DC00083B042F6804846F21C41C2F20008C4F2B9
:103DD0000001D8F898600968B1F1FF3F40F3C18055
:103DE000002488F894408246D8F8A8000128C0F240
:103DF000E78040F2004BC4F2000B0AF10C050AF117
:103E000017090BF5C0470290FFF720FB5846002129
:103E1000C8F89C4000F0E9FE38462946FEF71AFF34
:103E20000446584600F0A7FEB0F57A7F00F2B18054
:103E3000042CF1D00196B8F80A00C0040DD400BFDC
:103E400038462146FEF754FFD8F89C100646B1F5D7
:103E50007A7F00F2A880012EF2D1B8F80A0040055E
:103E600036D59AF8150047F27903002847F24E003C
:103E7000C0F60003C0F600009AF8141008BF03460D
:103E800078A06FA208BF10461022002908BF0C229C
:103E9000DAF800105AF8022018BF184602F03BFC6E
:103EA0009AF8160047F24806C0F6000650B1002402
:103EB00019F80410304602F02EFC9AF8160001346E
:103EC0008442F5D347F24600C0F6000002F05AFCE7
:103ED000B8F80A00019E000505D5DAE903010130B2
:103EE0000131CAE90301DAF8000000240130CAF800
:103EF000000098F8940000285FD1D8F8AC0042F296
:103F00001171884219D300BFD8F89C00D8F8AC10C2
:103F10006422504388421FD2D8F89C0048F29F6127
:103F2000C0F20101884217D8FFF790FA98F8940080
:103F30000028E9D088F894400EE0D8F8AC0058B1D9
:103F4000584600F018FED8F8AC10814204D9D8F8D1
:103F50009C00C828F4D300BF029801383FF753AF44
:103F60002EE02BA002F00EFCB8F80A00B8F80A10F8
:103F7000C0F30124C1F30120FEF722FC024647F200
:103F80003B00C0F60000214603B0BDE8F04F02F050
:103F9000C2BB46F66B70C0F60000214603B0BDE818
:103FA000F04F02F0B8BB38462146FEF7BBFA46F6A2
:103FB0005270C0F600003146F0E7002088F8940007
:103FC000D8F8A80065281FD3D8F898004FF47A7164
:103FD000831BD8F8A80047F213124843B0FBF3F74D
:103FE000D8F8A8109AF8140047F2B006002846F650
:103FF000AE60C0F60002C0F60000C0F6000608BFC2
:104000003246009702F087FB03B0BDE8F08F00BF97
:10401000205761726E696E673A2043616E206E6F41
:10402000742073656E64206D736720756E646572AD
:104030002053696C656E74204D6F64652E0A000014
:104040002054583A253038642044415441204D537F
:10405000472049443D30782530345820444154416C
:104060003D0000002054583A253038642052454D18
:104070004F5445204D53472049443D307825303436
:104080005800000070B584B046F20045C4F2000547
:1040900046F6B4742968C0F60004204602F03BFBE3
:1040A0006968204602F037FBA96823A002F033FBC1
:1040B000E96826A002F02FFB296929A002F02BFB5A
:1040C00069692CA002F027FBA969A869AB69020EF7
:1040D000A869AC69C0F3021EC4F3800CAC69A8697E
:1040E000C3F3074300F0010646F6C670C4F340046C
:1040F000C0F60000CDE900EC0294039602F00BFB41
:10410000E969E869EB69C20FE869EE69EC69ED6994
:10411000C0F30160C6F30256C3F38073C4F30344D3
:104120006FF39F25CDE9000617A00294039502F0D6
:10413000F2FA04B070BD00BF2043414E5F545352A9
:104140003D30782530384C580A0000002043414E5D
:104150005F524630523D30782530384C580A0000C6
:104160002043414E5F524631523D30782530384C25
:10417000580A00002043414E5F4945523D307825A2
:1041800030384C580A0000002043414E5F425452E0
:104190003D30782530384C582053494C4D3D2564EE
:1041A000204C424B4D3D256420534A573D25642009
:1041B0005453323D2564205453313D2564204252EE
:1041C000503D25640A000000B0B542F68040C2F2BE
:1041D0000000418946F6BC2201F01F01C0F6000232
:1041E00002EBC101CC8841894089C1F30125C0F3AC
:1041F0000120FEF7E5FA03460DA021462A4602F00B
:104200008AFA40F23404C2F20004D4E90B1247F2F5
:104210000500C0F6000002F07EFAD4E9001247F271
:104220001A00C0F60000BDE8B04002F074BA00BF4A
:1042300020424155443D256C646B204D4F44453D23
:1042400025642025730A000070B504461AA0214693
:1042500002F061FA42F67E75C2F20005A88A0121D9
:1042600001FA04F619A106421AA016A208BF1146C7
:1042700002F051FAE88A1BA106421BA018A208BF4F
:10428000114602F048FA288BE04000F0010119A025
:1042900002F041FA05EBC404208C618C41EA004134
:1042A00016A002F038FAA08CE18C41EA004116A079
:1042B000BDE8704002F02FBA2066696C7465722008
:1042C0002564000069646D61736B000069646C694A
:1042D00073740000204D4F44453D257300000000DD
:1042E0003136000033320000205343414C453D2518
:1042F00073000000204143543D2564002052303DAE
:1043000030782530385800002052313D3078253043
:1043100038580A00B0B542F68045C2F20005288937
:1043200040F60044C0F30130C4F2010448B302284F
:1043300070D0012818BFB0BD20464FF48051FFF760
:1043400054F8D5F89800D5F89810091A632905D8BB
:1043500000BFD5F89810091A6429F9D320464FF404
:104360008051FFF740F8D5F89800D5F89810091A51
:1043700063294FD800BFD5F89810091A6429F9D3DA
:1043800048E020464FF48051FFF72FF8D5F8980009
:10439000D5F89810091A632906D800BF00BFD5F8D0
:1043A0009810091A6429F9D320464FF48051FFF779
:1043B0001AF8D5F89800D5F89810091A632905D885
:1043C00000BFD5F89810091A6429F9D320464FF494
:1043D0008051FFF70AF8D5F89800D5F89810091A17
:1043E000632905D800BFD5F89810091A6429F9D3B4
:1043F00020464FF48051FEF7F6FFD5F89800D5F827
:104400009810091A632905D800BFD5F89810091A21
:104410006429F9D320464FF48051BDE8B040FEF73F
:10442000E4BF02F0B3B8000082B041F20000C4F271
:1044300002000168002241F0010101604168CFF6ED
:10444000FF021140416001684FF6FF72CFF6F6623D
:1044500011400160016821F480210160416821F46C
:10446000FE0141604FF41F01816000210191009124
:10447000016841F480310160016801F4003100916C
:10448000019901310191009919B90199B1F5A06F14
:10449000F2D10168890354BF0021012100910099E4
:1044A000012934D142F20001C4F202010A6842F04B
:1044B00010020A600A6822F003020A600A6842F0E9
:1044C00002020A604168416041684160416841F40C
:1044D00080614160416821F47C114160416841F490
:1044E000E8114160016841F0807101600168890153
:1044F000FCD5416821F003014160416841F00201AF
:10450000416000BF416801F00C010829FAD14EF664
:10451000085042F20001CEF20000C0F60001016036
:1045200002B070472DE9F04F4FF0FF37930807EBCB
:10453000920E3427B7FBF3F350F82E9047F6B918D4
:1045400003F1040C4FF0000AC9F63768C244082A88
:10455000CAF3810B4FF0000724D300244E4600BF5E
:1045600000EB87035B6801349D0085EA5619DD087E
:1045700085EA0615A94407F0030585EA0B0551F8FD
:10458000255083EA0A0375402B4450F8275083EAEC
:1045900009035E1940F82760E7B2BE45E0DC50F839
:1045A0002E9000E04E4603689C00DD0884EA561415
:1045B00085EA06152C4407F0030585EA0B0551F83A
:1045C000255083EA0A0375402B44634099445FEA0F
:1045D0000C6340F82E90ACF1010C08BFBDE8F08FE1
:1045E000B4E7000070B5044600200D46A4F842016F
:1045F000FDF798FD0068405D10F03E0F18D0B4F84C
:10460000466101203F2EA4F8420184F841501CD895
:104610002846FDF791FD711CA4F84611A11981F8F7
:10462000C10012E0402824BF0020A4F8420170BD60
:104630001A2D1DDCA5F10800082825D8DFE800F0B8
:10464000082E052E2E462E2E7700B4F84201E9E7FB
:1046500042F20800A4F841000320A4F84201B4F893
:1046600046010821002884F84310EED0013899E073
:104670001B2D6BD01D2D11D1B4F84801411C0AB27D
:10468000012AC8BF411E68E0032D07D142F68040D1
:10469000C2F20000012180F89410D6E742F67C4077
:1046A000C2F2000000682909415C0122A4F84221FD
:1046B00084F8411005F00F01405C84F842000320AB
:1046C000A4F84201202084F84300BEE740F60D2004
:1046D000A4F84100B4F8460102213F28A4F8421191
:1046E0005DD804F1C10100220A540120A4F846213A
:1046F0002070B4F8480100EBD03222F00102801A99
:1047000002B2A4F8480142F63450C2F2000000EBB5
:10471000C2108022FDF74CFDB4F94801013000EBD6
:10472000D07121F00101401AA4F848018DE742F64A
:104730008040C2F200004189428901F4806122F484
:104740008062114481F4806141817EE7B4F84801C0
:10475000411E0AB2002A48BF411C42F63455A4F853
:10476000481109B2C2F2000504F1C10005EBC11104
:104770008022FDF71DFDFDF727FDB4F94811A4F8CF
:10478000460104F1410005EBC1118022FDF710FD47
:10479000FDF71AFD014680B2A4F8421142E700205D
:1047A00084F80001A4F846014FE70000F0B581B09D
:1047B00042F68041C2F20001456A498949055CBF61
:1047C00001B0F0BD2A7A697A2AB11CA30029816A56
:1047D0006A6813A704E028A30029816A2A681FA732
:1047E00008BF3B46184601F096FF687A90B9A97A4F
:1047F00029A001F090FFA87A60B105F10B0600270F
:1048000029A400BFF15D204601F085FFA87A013799
:104810008742F7D326A001B0BDE8F04001F0B2BF57
:104820002052583A253038642044415441204D5399
:10483000472049443D307825303858002052583AB6
:10484000253038642052454D4F5445204D53472064
:1048500049443D3078253038580000002052583AFD
:10486000253038642044415441204D534720494469
:104870003D307825303458002052583A253038647D
:104880002052454D4F5445204D53472049443D301B
:104890007825303458000000204C454E3D256420DA
:1048A00020444154413D0000253032582000000092
:1048B0000D0A00000288002918BF012122F0010220
:1048C00011440180704710B58CB06846FFF7A8F915
:1048D00040F20044C4F20004204600F034F802988C
:1048E0004DF683614000C4F21B31A0FB01014FF083
:1048F000FF3000EB91400021ADF824000020CFF6FE
:10490000FF71ADF82A00CDF826108DF82C0009A90A
:10491000204600F06CF96020C0F2010005900020F4
:10492000C6F2A71006904FF4003007904FF00070C9
:10493000089005A9204600F020F920460121FFF744
:10494000B9FF0CB010BD80B541F6FF71C4F2000193
:10495000884228DD44F2FF31C4F2010188423FDD84
:1049600044F6FF31C4F2010188426EDD44F6004195
:10497000C4F20101884200F0B58045F20001C4F2A2
:104980000101884200F0B68045F20041C4F2010105
:10499000884218BF80BD4FF400100121FFF734F9A1
:1049A0004FF40010D7E040F6FF71C4F200018842D6
:1049B00032DC40F2FF71C4F2000188425ADCB0F1EF
:1049C000804F00F09F8040F20041C4F20001884215
:1049D00040F0D08002200121FFF7FEF80220C4E061
:1049E00043F2FF31C4F20101884255DC42F200017A
:1049F000C4F20001884200F08B8042F60041C4F20C
:104A00000101884240F0B6804FF400600121FFF7B9
:104A1000FBF84FF400609EE041F2FF71C4F2000128
:104A200088424DDC41F20001C4F20001884277D097
:104A300041F20041C4F20001884240F09B802020F6
:104A40000121FFF7C9F820208FE044F20041C4F2B1
:104A5000010188426AD044F60001C4F20101884293
:104A600040F088804FF480200121FFF7CDF84FF40B
:104A7000802070E040F60001C4F2000188425DD061
:104A800040F60041C4F20001884273D108200121A0
:104A9000FFF7A2F8082068E043F20041C4F20101E8
:104AA000884251D044F20001C4F20101884261D130
:104AB0004FF480300121FFF7A7F84FF480304AE02F
:104AC00041F60001C4F20001884249D041F600419C
:104AD000C4F2000188424DD180200121FFF77CF80B
:104AE000802042E04FF400200121FFF78DF84FF4C1
:104AF000002030E04FF480100121FFF785F84FF4DB
:104B0000801028E001200121FFF766F801202CE049
:104B10004FF480700121FFF75FF84FF4807024E0BC
:104B200010200121FFF758F810201EE04FF400304C
:104B30000121FFF769F84FF400300CE00420012157
:104B4000FFF74AF8042010E04FF400500121FFF76E
:104B50005BF84FF400500021BDE88040FFF754B8E7
:104B600040200121FFF738F840200021BDE88040B7
:104B7000FFF732B880BD808C7047B0B5028C22F050
:104B800001020284038C8288B0F818C00C8923F0DB
:104B900002032343A0F180444D88A4F59634B1F874
:104BA00000E04FEAB424072C43EA050313D801259B
:104BB00005FA04F414F0E50F0DD04C8923F00C0332
:104BC00024F004048D8823438C892B4322F4407203
:104BD000CD8922432A432CF0730545EA0E058280D5
:104BE0000583C98881860384B0BD8184704740F6FF
:104BF000FF33B0F800C0C4F2000398420DDCB0F1FE
:104C0000804F1CD040F20043C4F20003984216D0FB
:104C100040F60003C4F200030FE040F60043C4F284
:104C2000000398420BD043F20043C4F201039842C0
:104C300005D042F60043C4F20103984204D14B88E8
:104C40002CF0700243EA020C41F2004240F480630F
:104C5000C4F20002934204D0CA882CF4407342EAA2
:104C6000030CA0F800C08A888285A0F18042A2F5DA
:104C700096320B884FEAB222072A038507D8012310
:104C800003FA02F212F0E50F1CBF097A0186012136
:104C90008182704746F670320021C0F6000200BFE4
:104CA00052F82130834203D901310C29F8D10C216B
:104CB000C8B2704746F670320021C0F6000200BF4D
:104CC00052F82130834208BF704701310C29F7D1D7
:104CD0004FF4E1307047000070B543F60004C4F2B1
:104CE00001042046082100F089F810B1204600F0A8
:104CF00014F9204640F2255100F085F8A0B1204675
:104D000000F00BF942F68041C2F200010A8902F478
:104D10004052B2F5805F08D1C1B242F63460C2F2AF
:104D20000000FEF735FD2CE070BD098901F440510B
:104D3000B1F5005F07D1C1B242F63460C2F20000A3
:104D4000FDF77FFB1DE042F63465C2F20005C1B2FB
:104D50002846FFF747FCB5F8420190B1002600BF96
:104D6000A81990F84110204600F0DBF82046802179
:104D700000F044F80028F9D0B5F842010136864227
:104D8000EED3204640F22551BDE87040AFF30080DD
:104D9000090A012202FA01F1C943018070478289A0
:104DA000002918BF012122F4005242EA41318181D9
:104DB0007047B0B584B06D460446284600F0B5F89B
:104DC0002046FFF777FF43F60004C4F20104009089
:104DD0002046294600F046F8204640F2255101229F
:104DE00000F029F8204640F22771002200F023F855
:104DF00020460121FFF7D3FF04B0B0BD0088084072
:104E000018BF01207047C1F34212022A06D0012ABE
:104E100014BF00F1140200F10C0201E000F11002D5
:104E20001288008801F01F03090ADA40C8401040C8
:104E300000F001007047C1F3421301F01F0C142170
:104E4000022B08BF1021012B4FF0010308BF0C21DA
:104E5000002A03FA0CF243580CBF23EA02021A4359
:104E60004250704770B586B00446008A0D46C98826
:104E700020F4405008432082A0894EF6F3110840E8
:104E8000A9882A896B89084310431843A081A08A06
:104E9000A98920F44070084301AEA0823046FEF795
:104EA000BFFE43F6000106F10800C4F201018C4286
:104EB00008BF06F10C0000681922B4F90C10504329
:104EC0002A680123B1F1FF3FC8BF022302FA03F1B0
:104ED000B0FBF1F048F21F51C5F2EB11A0FB01232A
:104EE0005A096FF0630302FB0300B4F90C30032688
:104EF000B3F1FF3FC8BF042600FA06F000F132000C
:104F0000A0FB01014FF00700C8BF0F2000EA5110BD
:104F100040EA0210208106B070BD80886FF35F20E8
:104F200070476FF35F21818070474FF41651002264
:104F30004FF4402380E80E008281704740F2340035
:104F4000C2F20000FDF712BF42F67E71C2F200010C
:104F5000B1F87610A1F11002B2F57F6F04D94FF2CB
:104F6000E071C1F6FF71098801804180890201F179
:104F70000061416070470000FEE780B545F2555082
:104F8000FEF778FA0520FEF769FA4FF47A70FEF71B
:104F90006BFAFEF75BFABDE88040FEF74FBA0000FF
:104FA0004EF60C50BFF34F8FCEF200000168042282
:104FB00001F4E061C0F2FA5211430160BFF34F8F78
:104FC00000BFFDE74EF60C50BFF34F8FCEF200004E
:104FD0000168042201F4E061C0F2FA521143016059
:104FE000BFF34F8F00BFFDE780B5FEF774F80021D7
:104FF000012808BF4FF0FF31084680BDFDF7F9FEDC
:10500000FEF72EF9FFF7F0FF30B9FEF7EDF80120BB
:10501000FEF79DF8FEF767F8FDF786FFFDF7B6FF90
:1050200043F20000C2F20000FFF78EFFFEF74CFAD9
:1050300018B9FEF741FEFEF7A7FE40F60044C4F2A1
:105040000104FEF7D5FAFFF73EFCFFF796FF43F2A7
:10505000240046F2F561C2F20000C0F600010160D2
:1050600046F6A1314FF2E870C0F60001C1F6FF70BC
:10507000FDF7D0FE05463920FDF7B3FFA84205D065
:10508000FC20C0F600000068A8423BD104F5806017
:105090004FF40051FEF7A2F918B9FEF70DFEFEF726
:1050A00073FEFDF751FA42F68045C2F200052889E9
:1050B00046F67031C0F30320C0F6000151F820001D
:1050C000FFF777FE288910F4405F08BF01F008F968
:1050D000FFF720F942F63464C2F20004288910F484
:1050E000405F08BF01F090FA01F0A5F901F048F91E
:1050F00001F02AFA01F0B6F92046FEF773FCFEF73C
:10510000A5F9EBE742F68045C2F2000520464FF4D0
:105110008051FEF768F9D5F89800D5F89810091A6B
:10512000312905D800BFD5F89810091A3229F9D3CA
:1051300020464FF48051FEF758F9D5F89800D5F87D
:105140009810091A3129E1D800BFD5F89810091A2A
:105150003229F9D3DAE7000010B543F21000C2F2A9
:1051600000000468C4B347F2B401C0F60001204651
:10517000FDF70CF8D0B343F21400C2F2000000684F
:10518000002865D000210A22FDF780F880B2FDF7E3
:105190002BFB46F66C31C0F600010978B1EB104FDD
:1051A00098BF10BD42F68041C2F200014A89000C4E
:1051B00060F304024A81488946F6BC2100F01F00D2
:1051C000C0F6000101EBC000C18847F22F00C0F615
:1051D000000001F0A0FA37E046F6C950C0F6000022
:1051E00001F0D0FABDE81040FEF7EEBF47F2B9017A
:1051F000C0F600012046FCF7C9FF002841D043F269
:105200001400C2F200000068002843D000210A22E6
:10521000FDF73CF842F68041C2F200014A8922F4CF
:10522000407260F309224A8148894989C0F3012408
:10523000C1F30120FDF7C4FA024647F23B00C0F675
:105240000000214601F067FABDE81040FDF77CB987
:105250002BA001F097FA42F68040C2F2000040898C
:1052600046F6BC2100F01F00C0F6000101EBC000B3
:10527000C18847F22F00C0F60000BDE8104001F0E1
:105280004ABA34A12046FCF781FFE0B1BDE81040E6
:10529000FEF7F8BE25A001F075FA42F68040C2F292
:1052A000000041894089C1F30124C0F30120FDF7CA
:1052B00087FA024647F23B00C0F600002146BDE8EF
:1052C000104001F028BA24A12046FCF75FFF18B176
:1052D000BDE81040FEF7F8BB47F2FA01C0F6000146
:1052E0002046FCF753FF18B1BDE81040FDF7B4BDF0
:1052F00046F6C950C0F60000BDE8104001F042BAC1
:105300002063616E2062617564205B626175642058
:10531000696E206B6270735D207365742043414E2B
:105320002062617564726174652E0A002063616E8B
:10533000206D6F6465205B307C317C327C335D2076
:105340007365742043414E20776F726B206D6F64DC
:10535000652E0A0072656700737065656400000061
:10536000FDF77ABD10B582B043F21000C2F2000022
:105370000468DCB16DA12046FCF708FFD0B343F20E
:105380001400C2F20000006842F68044C2F2000439
:1053900038B100210A22FCF741FFE18860F30001E7
:1053A000E180E08800F0010162A066E046F600506E
:1053B000C0F6000001F0E6F942F68040C2F20000BB
:1053C000C188C288C388D0F8A00042F67E74C2F2B9
:1053D0000004648B009046F6857001F00101C2F371
:1053E0000112C3F34003C0F60000019401F093F9E9
:1053F00002B010BD52A12046FCF7C8FEE0B143F256
:105400001400C2F20000006868B100211022FCF70D
:1054100005FF42F68041C2F20001CA8822F0300244
:1054200060F30512CA8042F68040C2F20000C088D4
:10543000C0F3011144A020E046A12046FCF7A6FEDF
:1054400000B343F21400C2F20000006868B100210A
:105450000A22FCF7E3FE42F68041C2F20001CA884C
:1054600022F0020260F34102CA8042F68040C2F29A
:105470000000C088C0F3400138A002B0BDE8104071
:1054800001F049B947F2A601C0F600012046FCF739
:105490007DFE60B142F68040C2F20000C088800705
:1054A000A6D431A002B0BDE8104001F06BB936A11E
:1054B0002046FCF76BFEB8B143F21400C2F20000C4
:1054C000006848B100210A22FCF7A8FE42F680419C
:1054D000C2F20001C1F8A00042F68040C2F2000012
:1054E000D0F8A0102AA0C8E72CA12046FCF74EFE59
:1054F00078B143F21400C2F20000006870B10021DC
:105500001022FCF78BFE42F67E71C2F20001488346
:1055100009E046F60050C0F60000C3E742F67E7090
:10552000C2F20000408B81B21DA0A6E76563686FE0
:1055300000000000204543484F3D25640A0000005C
:105540006C6576656C000000204C4556454C3D2549
:10555000580A00007465737400000000205445531D
:10556000543D25640A00000020736574205445539F
:10557000543D312066697273742C2061626F7274BD
:10558000696E672E2E2E0A0074696D65000000009A
:105590002054494D453D256C640A00006269640051
:1055A000204249443D3078253034580A000000003C
:1055B0002DE9F04381B043F21000C2F2000004680C
:1055C000002C00F08E804BA12046FCF7DFFD002868
:1055D0003FD043F21400C2F200000068002865D0FA
:1055E000002110220024FCF751FE43F21801C2F200
:1055F00000010968C7B229B1084600211022FCF752
:1056000045FE84B2A4F10800382888BF40243F2F0B
:105610001AD800200FF2E4080FF2EC093E460025EC
:10562000400703D14046314601F075F8B0B2FDF7AE
:10563000D0FC0146484601F06EF80135A8B284421C
:1056400002D93E18402EEBD347F24600C0F60000C8
:105650004BE02FA12046FCF799FD50B343F2140014
:10566000C2F20000006808B343F21804C2F200045A
:105670002168D9B100211022FCF708FE21680446F8
:10568000084600211022FCF701FEE4B285B2204654
:105690002946FDF7F8FC20A0294601F03CF823A09C
:1056A000214601B0BDE8F04301F035B801B0BDE8D6
:1056B000F08347F2A101C0F600012046FCF766FD29
:1056C00018B1FDF763FC20A00FE047F2CD01C0F652
:1056D00000012046FCF75AFD18B1FDF78BFC21A014
:1056E00003E046F62040C0F6000001B0BDE8F043FC
:1056F00001F048B872656164000000000A30782546
:10570000303458202000000025303458200000009C
:1057100077726974650000002077726974652030C3
:10572000782530345820746F0000000020656570C3
:10573000726F6D20616464726573732030782530F8
:105740003458202E2E2E0A004C6F61642066726F32
:105750006D20496E742E20454550524F4D2E2E2EF1
:105760000A0000005361766520746F20496E742E24
:1057700020454550524F4D2E2E2E0A00B0B584B014
:1057800043F21000C2F200000468ECB18AA1204686
:10579000FCF7FCFCD8B343F21400C2F2000000682E
:1057A00042F68044C2F2000448B100210A22FCF70C
:1057B0006DFD618921F4806160F38A2161816089D6
:1057C000C0F380217EA0C1E046F67660C0F60000FE
:1057D00000F0D8FF42F68040C2F2000041894289C1
:1057E00043894589D0F8A840D0F8ACC0C5F3403013
:1057F000C1F38021C2F3C022C3F30033CDE900041A
:1058000088A0CDF808C000F086FF04B0B0BD6FA13D
:105810002046FCF7BBFCE0B143F21400C2F20000EA
:10582000006868B100210A22FCF730FD42F6804191
:10583000C2F200014A8922F4006260F3CB224A815D
:1058400042F68040C2F200004089C0F3C02160A04F
:105850007CE062A12046FCF799FCE0B143F2140021
:10586000C2F20000006868B100210A22FCF70EFDB8
:1058700042F68041C2F200014A8922F4805260F36C
:105880000C324A8142F68040C2F200004089C0F3E7
:10589000003154A05AE056A12046FCF777FCE0B155
:1058A00043F21400C2F20000006868B100210A222D
:1058B000FCF7ECFC42F68041C2F200014A8922F476
:1058C000005260F34D324A8142F68040C2F200003D
:1058D0004089C0F3403148A038E04AA12046FCF797
:1058E00055FCB8B143F21400C2F20000006848B1A0
:1058F00000210A22FCF7CAFC42F68041C2F20001F4
:10590000C1F8A80042F68040C2F20000D0F8A8100A
:105910003DA01BE03FA12046FCF738FCD8B143F284
:105920001400C2F20000006848B100210A22FCF70E
:10593000ADFC42F68041C2F20001C1F8AC0042F673
:105940008040C2F20000D0F8AC1033A004B0BDE833
:10595000B04000F0E0BE47F2E401C0F6000120468E
:10596000FCF714FCF8B146F21840C4F200000168DC
:1059700002680368D0F800C00468120EC4F3800EF9
:1059800004680068C3F3074300F0010546F6C670DB
:10599000CCF3021CC4F34004C0F60000CDE900CEF5
:1059A000029403952FE746F67660C0F6000004B037
:1059B000BDE8B04000F0E6BE73686F7700000000FD
:1059C0002053484F573D25640A000000616464007D
:1059D000204144443D25640A0000000073696E675D
:1059E0006C6500002053494E474C453D25640A0034
:1059F0006C6F6F7000000000204C4F4F503D2564CD
:105A00000A000000636E740020434E543D25640A72
:105A10000000000070726400205052443D256475FF
:105A2000730A00002053484F573D256420414444E9
:105A30003D25642053494E474C453D2564204C4F3D
:105A40004F503D256420434E543D25642050524420
:105A50003D256475730A000070B543F21000C2F270
:105A600000000068F0B1002110220026FCF70EFCB7
:105A700040F2340420F06040C2F20004206143F29E
:105A80001400C2F200000568042047F2C601207528
:105A9000C0F600012846FCF779FB58B1022060757A
:105AA00000210EE046F67E40C0F60000BDE87040E2
:105AB00000F068BE04F1170128466675FDF79AFCF0
:105AC00001462046A175BDE87040FEF777B9000099
:105AD000B0B543F21000C2F200000468ACB347F264
:105AE000BE01C0F600012046FCF750FBD0BB2046AB
:105AF00000210A22FCF7CAFB43F21401C2F20001A2
:105B00000D6847F2B90100F00704C0F6000128460D
:105B1000FCF73CFB38B343F21800C2F20000006807
:105B200000B300210A22FCF7B1FB42F67E72C2F2FA
:105B300000020121938AA14043EA0105C00708BF82
:105B400023EA01052046958286E046F68A50C0F693
:105B5000000000F017FE0024A0B2FEF775FB013430
:105B6000082CF9D1B0BD3EA12846FCF70FFBD0B1FF
:105B700043F21800C2F2000000680028F2D00021B1
:105B80000A22FCF783FB42F67E72C2F20002012178
:105B9000D38AA14043EA0105C00708BF23EA0105F3
:105BA0002046D58258E030A12846FCF7EFFAD0B164
:105BB00043F21800C2F2000000680028D2D0002191
:105BC0000A22FCF763FB42F67E72C2F20002012158
:105BD000138BA14043EA0105C00708BF23EA010572
:105BE0002046158338E021A12846FCF7CFFAB0B152
:105BF00043F21800C2F2000000680028B2D0002171
:105C00001022FCF743FB42F67E72C2F2000201460C
:105C1000000C02EBC4021084204651841CE014A145
:105C20002846FCF7B3FAB0B143F21800C2F2000004
:105C30000068002896D000211022FCF727FB42F6CE
:105C40007E72C2F200020146000C02EBC402908494
:105C50002046D18400E02046BDE8B040FEF7F4BA0B
:105C60007363616C65000000616374007230000052
:105C70007231000070B547F21C160025C0F6000610
:105C800005A400BF701971594268204600F043FD19
:105C90000C35782DF6D170BD202573202D3E2025A2
:105CA0007300000010B543F21000C2F20000046857
:105CB0002CB317A12046FCF769FA38B947F2FA016C
:105CC000C0F600012046FCF761FA00B110BD11A139
:105CD0002046FCF75BFA48B142F68040C2F2000071
:105CE000C1880EA0BDE8104000F015BD0FA12046F0
:105CF000FCF74CFA18B1BDE81040FDF787BE46F638
:105D00006550C0F60000BDE8104000F03BBD00BF8C
:105D10007379730072656773000000002046554E6A
:105D2000433D3078253034580A000000636C6B0026
:105D300010B543F21000C2F20000006880B140F6D6
:105D4000004400211022C4F20104FCF79FFAC007AE
:105D500007D120464FF48051BDE81040FDF745BB08
:105D600010BD20464FF48051BDE81040FDF73BBB0D
:105D7000B0B543F21000C2F20000006800B3002189
:105D80001022FCF783FAE0B1044643F21400C2F299
:105D90000000006830B100211022FCF777FA85B2CC
:105DA000072D01D84FF4807520462946FDF7E6FB04
:105DB000034608A021462A46BDE8B04000F0ABBC2F
:105DC000B0BD46F6E330C0F60000BDE8B04000F0DC
:105DD000D9BC00BF53544152543D30782530385817
:105DE000204C454E3D307825303858204352433DB5
:105DF0003078253034580A002DE9F04F81B0FFF794
:105E0000F3F8013079D043F21000C2F200000068CC
:105E1000002875D000211022FCF738FA002874D031
:105E200047F2480A47F2970720F003054FF0000BAE
:105E3000C0F6000A4FF02E09C0F60007009000BF20
:105E400000EB0B1135A000F066FC002455F824602F
:105E50005046F1B200F05FFCC6F30721504600F057
:105E60005AFCC6F30741504600F055FC310E50462F
:105E700000F051FC0134042CE8D14FF0000800BFC1
:105E800055F82840E1B2A1F120005F28384628BF2C
:105E9000494600F040FCC4F30721A1F120005F282F
:105EA000384628BF494600F036FCC4F30741A1F14B
:105EB00020005F28384628BF494600F02CFC04F13A
:105EC0006040B0F1BE4F4FF02E01384638BF210E72
:105ED00000F021FC08F10108B8F1040FD0D147F21D
:105EE0004600C0F6000000F04DFC0BF1010B0098DD
:105EF000BBF1100F05F11005A2D101B0BDE8F08F84
:105F000046F62970C0F6000003E046F6E330C0F61E
:105F1000000001B0BDE8F04F00F034BC307825300F
:105F2000384C58200000000010B543F21000C2F2B7
:105F30000000046864B347F2A101C0F600012046E6
:105F4000FCF724F930B116A000F01CFCBDE81040AD
:105F5000FDF7BABA47F2CD01C0F600012046FCF7C2
:105F600015F930B117A000F00DFCBDE81040FDF7A9
:105F70000BBF47F2BE01C0F600012046FCF706F950
:105F800030B118A000F0FEFBBDE81040FDF794BE54
:105F900046F6D660C0F60000BDE8104000F0F2BB47
:105FA000204C6F616420706172616D6574657273FD
:105FB0002066726F6D20454550524F4D2E2E2E0A91
:105FC00000000000205361766520706172616D658C
:105FD0007465727320746F20454550524F4D2E2EBC
:105FE0002E0A000020526573746F72652064656626
:105FF00061756C7420706172616D65746572732E69
:106000002E2E0A0043F21000C2F20000006808B908
:10601000002003E000210A22FCF738F9FCF776FFA4
:1060200003A000F0AFFB012080F31388FEF7CAFF46
:10603000207265626F6F74696E672E2E2E200A00C3
:1060400070B543F21000C2F200000068E8B1002110
:1060500010220026FCF71AF940F234046FF3DF2017
:10606000C2F20004E06043F21400C2F200000568CE
:1060700047F2C601C0F6000128462675FCF786F8EF
:1060800058B10220607500210EE046F6BF40C0F610
:106090000000BDE8704000F075BB04F11701284610
:1060A0006675FDF7A7F901462046A175BDE8704069
:1060B000FDF784BE10B543F21000C2F20000046880
:1060C00064B347F2B401C0F600012046FCF75EF865
:1060D000002855D043F21400C2F2000000680028E6
:1060E00071D000210A22FCF7D1F8FEF7D3FD42F669
:1060F0008041C2F200010A8900F00F0022F47062B0
:1061000042EA00200881088946F67031C0F3032076
:10611000C0F6000151F820104BA062E046F6F650A0
:10612000C0F6000000F02EFB42F68044C2F20004EC
:10613000208946F67031C0F30320C0F6000151F803
:10614000201061A000F0E7FA20892289C0F3013114
:1061500002F4405047F27002B0F5805F47F23B0016
:1061600047F27503C0F60002C0F60000C0F6000357
:1061700008BF1A4600F0CFFA2089C1B255A030E01E
:1061800047F2B901C0F600012046FBF7FFFF60B3FC
:1061900042F68040C2F200000189008947F2700295
:1061A00000F4405047F27503C0F60002C1F301311C
:1061B000C0F60003B0F5805F08BF1A4636A0BDE800
:1061C000104000F0A8BA42F68040C2F200000089F8
:1061D00046F67031C0F30320C0F6000151F82010DC
:1061E00028A0BDE8104000F096BA30A12046FBF789
:1061F000CDFFC0B143F21400C2F200000068D0B17C
:1062000000210A22FCF742F842F68041C2F2000166
:106210000A8960F307020A810889C1B246F61E6046
:10622000C0F60000DDE746F6F650C0F60000BDE817
:10623000104000F0A7BA42F68040C2F20000008988
:10624000C1B21CA0CDE700BF207365742055415238
:1062500054204241554420746F20256C642C2073D7
:106260006176652026207265626F6F7420746F20DE
:106270006170706C79206E657720626175642E0A9A
:106280000000000020554152542042415544203D19
:1062900020256C640A0000002055415254204D4FC7
:1062A0004445203D2025642025730A006164647202
:1062B0000000000020554152542041444452203DEA
:1062C0002025640A0000000020424155443D256C11
:1062D000640A000020414444523D25640A00000045
:1062E00070B546F6B230C0F600000088410AC0F32F
:1062F000431200F01F030BA000F00DFA4FF2E876F6
:106300000025C1F6FF760DA436F81510204600F0E2
:1063100002FA0135062DF7D10AA0BDE8704000F061
:1063200031BA00BF205541525443414E2076256476
:106330002E25642E256420534E3A00002530345813
:10634000000000000A204543484F205374756469DB
:106350006F203C6563686F2E786A747540676D6165
:10636000696C2E636F6D3E2E20416C6C2052696704
:106370006874732052657365727665642E200A0016
:106380002DE9F04742F67E70C2F20000408B40F2E9
:1063900034086FF3DF20C2F20008C8F80C000020B8
:1063A000A8F81400012042F66C0788F81600C2F223
:1063B0000007D7F80804E0B343F60009C4F2010966
:1063C000A9F5544508F10C0607F2FF3AD7F8040482
:1063D0000024007888F8170028463146FCF73AFC7C
:1063E000042806D1FDF732F8B4F5704F04F101042A
:1063F000F2D9D7F804040022411C514588BFA0F20D
:10640000FF31C7F80414484640F22551FEF713FD4A
:10641000D7F8080440F225510138C7F80804484667
:106420000122FEF708FDFDF711F8D7F8080400284F
:10643000CCD1BDE8F08742F68040C2F2000040892E
:10644000800409D440F2340042F63461C2F2000004
:10645000C2F20001FCF73CBB40F23400C2F2000083
:10646000FCF754BAB0B584B042F6804446F2184501
:10647000C2F20004C4F20005A0882968800601F079
:10648000060025D448B3E08810F0300F1CD014A0CB
:1064900000F041F9296828682B68020ED5F800C081
:1064A0002868C3F30743C0F3800E28682D68C0F343
:1064B0004000CCF3021C05F00105029012A0CDE9CA
:1064C00000CE039500F027F9A08840F0200003E0FB
:1064D00018B9A08820F02000A08004B0B0BD00BF93
:1064E000205761726E696E673A2043414E20627593
:1064F00073206572726F72206F6363757272656468
:106500002E2E2E0A000000002043414E5F455352BC
:106510003D30782530384C58205245433D25642085
:106520005445433D2564204C45433D256420424F5E
:1065300046463D256420455056463D256420455736
:1065400047463D25640A000042F68040C2F2000042
:106550000178022904D0012918BF7047FDF7DABE7F
:1065600001894AF6AB22C1F301310131CAF6AA22F0
:10657000A1FB02235A08038902EB4202891A23F481
:10658000405242EA01310181FDF7FEBB10B542F6EF
:106590008044C2F20004D4F89C0042F2117301302E
:1065A000C4F89C0043F22000C2F2000001880131CF
:1065B0008AB29A42018010D300210180208A00F023
:1065C0003F002082204650F80C2F238A00EB430323
:1065D000DA800160208A0130208243F22200C2F278
:1065E0000000018801310AB20A2A0180B8BF10BD3B
:1065F00000210180D4F898000130C4F89800FCF71D
:106600003FFF207010BD00002DE9F04F81B042F631
:106610003465C2F200052878002867D047F24C01A3
:1066200005F1C100C0F60001FBF7D6FD43F20C06F0
:1066300043F2100B43F2140443F2180843F21C090E
:10664000C2F20006C2F2000BC2F20004C2F200085D
:10665000C2F20009306028B347F24C01C0F60001D5
:106660000020FBF7B9FDCBF80000D8B147F24C0190
:10667000C0F600010020FBF7AFFD206090B147F2AB
:106680004C01C0F600010020FBF7A6FDC8F8000091
:1066900040B147F24C01C0F600010020FBF79CFD21
:1066A000C9F80000A146346847F21C1A0027C0F65A
:1066B000000A00BF5AF807102046FBF767FD18B91B
:1066C0000C37CC2FF6D103E00AEB07008068804737
:1066D00043F21C010020C2F200013060CBF8000040
:1066E000C9F80000C8F800000860287001B0BDE8D3
:1066F000F08F000010B543F60004C4F20104014617
:106700002046FEF70EFC00BF20468021FEF776FBF8
:106710000128F9D110BD83B080B581B00DF10C0C0A
:106720008CE80E0003A9009100F038F801B0BDE834
:10673000804003B07047B0B543F2080504460A280C
:10674000C2F200050DD1286818B10D2100F8011B17
:1067500009E043F22400C2F20000016889B10D2073
:106760008847286818B1411C29600470B0BD43F205
:106770002400C2F20000016819B12046BDE8B04013
:106780000847B0BD10B5017839B1441CC8B2FFF755
:10679000D2FF14F8011B0029F8D110BD2DE9F04FEC
:1067A00085B001AC0E460546A4F101092A4615F84C
:1067B000010B252802D0002847D11BE15078302852
:1067C00003D02D2805D1022100E001219078D51CAD
:1067D00001E0951C0021A0F13002D2B24FF0000A76
:1067E000092A0DD8C2B215F8010B0AEB8A0302EB95
:1067F0004302A0F13003DBB20A2BA2F1300AF1D33D
:1068000040F020026C2A04BF15F8010B0431002867
:1068100000F0F0800246602888BF203AD3B24E2BA9
:106820000CDDA3F14F02092A0FD8DFE802F0050EB4
:106830000E0E150E110E0E13082260E0422B5DD0D5
:10684000432B00F0CF80442B02D0FFF774FFADE75D
:106850000A2254E0102252E000963668002200BF5F
:106860001046B25C002A00F10102F9D143F208049B
:106870008907A2F10108C2F200041CD4D04598BFD8
:10688000D04608F1010816D20146824588BF51461C
:106890000F1A2022206818B1411C2160027008E004
:1068A00043F22400C2F20000016811B120208847A1
:1068B0002022013FEED1307838B10136C0B2FFF767
:1068C0003AFF16F8010B0028F8D1D0454FF020020E
:1068D00080F08C80AAEB0806206818B1411C21606A
:1068E000027008E043F22400C2F20000016811B116
:1068F000202088472022013EEED177E0022237682F
:10690000443B009618BF0123B7F1FF3F4FF000064C
:10691000C8BF012653EA060C4FF0000808BF7F42AB
:1069200078284FF0070008BF272000BFB7FBF2F61A
:1069300006FB1273092B88BF0344303304F8083078
:10694000B8F10E0F08F1010802D8BA423746EDD966
:10695000BCF1000F08BF0831080742BF2D2004F822
:10696000080008F1010843F20804C8074FF0300698
:10697000C2F2000408BF20268807C34610D4C245CF
:10698000404688BF5046D04500F1010B08D2A0EB2D
:10699000080700BF3046FFF7CEFE013FFAD100BF27
:1069A00019F80800A8F10108FFF7C5FEB8F1000FBB
:1069B000F6D1D3454FF0200218D2AAEB0B0600BF48
:1069C000206818B1411C2160027008E043F22400E5
:1069D000C2F20000016811B1202088472022013E48
:1069E000EED103E030780096FFF7A5FE009E01ACE3
:1069F0000436DBE605B0BDE8F08F000000487047C4
:106A00000400002002E008C8121F08C1002AFAD1C1
:106A100070477047002001E001C1121F002AFBD11E
:106A2000704700404040404040404040414141416B
:106A30004140404040404040404040404040404055
:106A40004040400502020202020202020202020269
:106A500002020220202020202020202020020202EA
:106A6000020202029090909090901010101010105E
:106A70001010101010101010101010101010020232
:106A8000020202028888888888880808080808089E
:106A90000808080808080808080808080808020282
:106AA00002024000236A00080204060800000000F9
:106AB000010203040102030406070809000702009B
:106AC0000300E80300040100050084030005010041
:106AD000050020030005010006009A0200060100DF
:106AE00006005802000300000C00F401000D020033
:106AF00005009001000601000C002C0100030000BD
:106B00001800FA00000801000F00C800000601008C
:106B1000180096000003000030007D00000801000E
:106B20001E006400000C010019005A000003000060
:106B30004B005000000601003C003C000008010032
:106B40003C0032000003000096002800000601000F
:106B500078001E00000300002C0114000003000058
:106B600058020A0000070100580205001600000044
:106B700000100E00000807000084030000C201009E
:106B800000E1000000960000004B0000802500009E
:106B9000C012000060090000B00400002C010000D9
:106BA0000CE48D70097BDD41DA886E0E95C161B908
:106BB0002D003430303132333435363738394142B4
:106BC000434445460053696C656E745F4C6F6F704B
:106BD0004261636B004E6F726D616C0053696C654E
:106BE0006E74002042616420416464726573732195
:106BF0000A006D656D637263205B6865782061646F
:106C000064725D205B686578206C656E5D205368FA
:106C10006F77204D656D6F7279204352432E0A00C5
:106C2000656570726F6D205B6C6F61647C736176FB
:106C3000657C726561647C77726974655D205B61F7
:106C40006464725D205B646174615D204F70657285
:106C500061746520496E742E20454550524F4D2E6B
:106C60000A00646973706C617920535720766572ED
:106C700073696F6E20616E6420534E2E0A00657832
:106C800074205B68657849445D205B6865784441A1
:106C900054417C72656D6F74655D2053656E642030
:106CA000657874656E64656420646174612F7265D3
:106CB0006D6F7465206D6573736167652E0A00736F
:106CC0007464205B68657849445D205B686578443E
:106CD0004154417C72656D6F74655D2053656E64CF
:106CE000207374616E6461726420646174612F72D8
:106CF000656D6F7465206D6573736167652E0A003D
:106D00006374726C205B6563686F7C6C6576656C20
:106D10007C746573747C6C65647C74696D655D20DE
:106D20005B706172616D5D204465766963652043C7
:106D300074726C2E0A007265626F6F74205B6465FA
:106D40006C6179206D735D2052657374617274207B
:106D500073797374656D2E0A0068656C7020496ED6
:106D6000666F2E0A00696E666F205B7379737C63B1
:106D70006C6561727C636C6B5D2053686F772F5319
:106D8000657420496E666F2E0A0066696C746572C0
:106D9000205B302D375D205B6D6F64657C736361B4
:106DA0006C657C6163747C72307C72315D205B70D9
:106DB0006172616D5D2043414E2066696C7465723D
:106DC0002073657475702E0A0063616E205B6261CA
:106DD00075647C6D6F64657C73706565647C636CE1
:106DE0006561725D2043414E20706F72742073653F
:106DF0007475702E0A0075617274205B626175642F
:106E00007C6D6F64657C616464725D205541525491
:106E100020706F72742073657475702E0A00207371
:106E200065742055415254204144445220746F20CF
:106E300025642C20736176652026207265626F6F51
:106E40007420746F206170706C79206E657720619A
:106E50006464722E0A00636C65617220636C656104
:106E6000722043414E2052582F545820636F756E44
:106E70007465722E0A00656E76205B73686F777C8E
:106E80006164647C636E747C7072645D20536574AD
:106E90002F53686F7720656E7669726F6E6D656EC1
:106EA00074207661726961626C65732E0A002053EA
:106EB000656E6420256C64202573206672616D65A3
:106EC0007320696E20256C646D73206174202564C5
:106ED0006670732E0A00706172616D205B6C6F6169
:106EE000647C736176657C726573746F72655D2016
:106EF0004F70657261746520706172616D65746553
:106F000072732E0A006C6564205B307C315D2063F7
:106F10006F6E74726F6C20746865206C6564206499
:106F20006973706C61792E0A006D656D7264205B07
:106F300068657820616464725D205B686578206CA8
:106F4000656E5D2053686F77204D656D6F72792E89
:106F50000A002054784661696C656420537461743A
:106F600075733D3078253032580A00204E6F4D61E0
:106F7000696C426F78205374617475733D30782565
:106F80003032580A00204543484F3D2564204C4587
:106F900056454C3D255820544553543D25642054B6
:106FA000494D453D256C64204249443D30782530AB
:106FB00034580A002043414E5F4D53523D307825EE
:106FC00030384C580A002043414E5F4553523D3003
:106FD000782530384C58205245433D25642054458F
:106FE000433D2564204C45433D256420424F4646A1
:106FF0003D256420455056463D256420455747466B
:107000003D25640A00205258204F4B3D256C6420DA
:107010004C4F53543D256C640A00205458204F4B6C
:107020003D256C64204C4F53543D256C640A002070
:10703000424155443D256C646B0A00204D4F444548
:107040003D25642025730A00253032582000205445
:10705000583A253038642044415441204D5347204C
:1070600049443D30782530385820444154413D0052
:107070005445524D00504B54002054583A25303856
:10708000642052454D4F5445204D53472049443DBF
:10709000307825303858002563006D656D63726364
:1070A000006C6F6164006C6564006D656D726400F6
:1070B0007374640062617564006D6F64650072656D
:1070C00073746F72650072656D6F746500736176BD
:1070D00065006374726C00706172616D006565704B
:1070E000726F6D0063616E0076657273696F6E001A
:1070F000696E666F0068656C7000636C6561720034
:1071000066696C746572007265626F6F7400756198
:1071100072740065787400656E760000E470000893
:10712000C96D000859510008B0700008BF6C000814
:1071300041600008137100087E6C0008595A00086D
:1071400017710008766E00087D5700080E71000860
:10715000F66D0008B5600008007100088A6D00082F
:10716000D15A0008D7700008D66E0008295F0008C1
:1071700007710008366D000805600008F57000080A
:10718000596D0008755C0008E8700008626C000822
:10719000E1620008DD700008206C0008B1550008AD
:1071A000F0700008656D0008A55C0008D27000084A
:1071B000006D000865530008A6700008056F000800
:1071C000315D0008AA700008296F0008F95D000809
:1071D0009A700008F26B0008715D0008FA700008F0
:1071E000566E000861530008087200080000002075
:1071F000302D0000DC23000888720008302D0020AC
:10720000F8060000146A000891520454A24A04329D
:1072100034023D20326C33206C02FF2001FF01FF5D
:1072200001FF01FF01FF01FF01FF01FF01FF01FF5E
:1072300001FF01FF01FF01FF01FF01FF01FF01FF4E
:1072400001FF01FF01FF01FF01FF01FF01FF01FF3E
:1072500001FF01FF01FF01FF01FF01FF01FF01FF2E
:1072600001FF01FF01FF01FF01FF01FF01FF01FF1E
:1072700001FF0169996C2800206C28002005A9B441
:087280006B0008820100000010
:04000005080020EDE2
:00000001FF
