:020000040800F2
:102000003034002001210008093300081131000894
:1020100095320008D1240008514B00080000000050
:102020000000000000000000000000000D3A000861
:10203000D32C000800000000C3360008BF40000891
:102040001B2100081B2100081B2100081B21000880
:102050001B2100081B2100081B2100081B21000870
:102060001B2100081B2100081B2100081B21000860
:102070001B2100081B2100081B2100081B21000850
:102080001B2100081B2100081B2100081B21000840
:10209000F54A00081B2100081B2100081B2100082D
:1020A0001B2100081B2100081B2100081B21000820
:1020B0001B2100081B2100081B2100081B21000810
:1020C0001B2100081B2100081B2100081B21000800
:1020D0001B210008BB4800081B2100081B21000829
:1020E0001B2100081B2100081B210008DFF80CD071
:1020F00000F00AF900480047D54B000830340020B2
:102100000648804706480047FEE7FEE7FEE7FEE791
:10211000FEE7FEE7FEE7FEE7FEE7FEE7C540000854
:10212000ED200008004870473C620008A0F1610102
:10213000192900D820387047A0F14101192900D889
:1021400020307047D2B201E000F8012B491EFBD2CB
:1021500070470022F6E710B513460A4604461946B2
:10216000FFF7F0FF204610BD30B505462A460B4666
:1021700012F8010B13F8014B08B1A042F8D01CB1C2
:10218000002802D06D1CF1E7284630BD10B504468A
:1021900004E00B7800F8013B03B1491C521EF8D251
:1021A000204610BD421C10F8011B0029FBD1801AEB
:1021B0007047000070B50F4D00B92868002412E088
:1021C0000A4602E09E4203D0521C1378002BF9D13C
:1021D000DAB2224305D02BB124B1002100F8011B53
:1021E00004E00446401C0678002EE9D12860204611
:1021F00070BD0000000000202DE9F05F93460F46FF
:1022000080460446002603F0C5FFD0F800908246C1
:1022100014F8015B2DB1FFF785FF0068405DC00732
:10222000F6D12B2D02D02D2D1AD0641E0021CAF814
:1022300000105A463946204600F017F8014627B1EB
:102240003868A04201D1C7F80080DAF800000228FF
:1022500009D0CAF80090700505D54842BDE8F09F46
:1022600046F48066E2E70846F8E72DE9F05F82462B
:102270000078002715468B460AF10104B94630283C
:1022800001D09DB113E014F8010B0127782803D089
:10229000582801D045B10AE00DB1102D07D1002713
:1022A000102514F8010B02E0082500E00A2500269D
:1022B000B0460EE005FB080005FB06F1012701EB27
:1022C00010461FFA80F8B6F5803F00D3B94614F8DF
:1022D000010B294600F02AF80028EBDABBF1000FC9
:1022E00005D00FB1641E00E05446CBF80040B9F1B0
:1022F000000F06D003F04EFF02210160C81EBDE8AA
:10230000F09F48EA0640FAE7064C074D06E0E06811
:1023100040F0010394E8070098471034AC42F6D32C
:10232000FFF7E8FE88680008A86800083A2800D28D
:10233000303820F02002412A01D3A2F13700884230
:1023400001D34FF0FF30704730B58C1810F8012BD7
:1023500012F00F0301D110F8013B120906D110F859
:10236000012B03E010F8015B01F8015B5B1EF9D162
:1023700001E001F8013B521EFBD1A142E6D300204F
:1023800030BD406A417A89B9017A79B942F68471DF
:10239000C2F20001498B02686FF3DF218A4205D146
:1023A000817A012902D1C07A03F08DBD704742F6CF
:1023B0006800C2F20000D0F808240023B3EB922F8B
:1023C00010D1D0F8002400F2FF331170D0F80014BF
:1023D0004A1C9A4288BFA1F2FF3200F58161C0F821
:1023E000002401E000F20C410868421C4FF0FF306D
:1023F0000A60704710B50446406846F23A3144F826
:10240000440FC0F6000134F83C0C0988A08008BADB
:10241000000CE08042F67C40C2F2000000890E21F0
:10242000000A20720020C4F809006073204600F002
:1024300033FFE08110BD0000B0B58188054620F86B
:10244000441F4FF2E873811C0022C1F6FF7300BFE6
:10245000D45C8C5401320C2AFAD10E2100F01CFFFE
:10246000A5F85200B0BD10B50446406844F8440FCA
:1024700034F83D0C14F83B1C00BA020C042928BFA8
:10248000042101EB10403F2834F83C0C88BF81F058
:102490003F02A08042F68470C2F2000000EB4201CD
:1024A0004B78A37110F81200E071C8782072887818
:1024B00060724879A0720879E072C87920738879CF
:1024C0000E216073204600F0E7FEE08110BD0000A1
:1024D000FEE70000022988BF704749B203A252F804
:1024E0002110826811438160704700BF80000000A6
:1024F00000800000000080002DE9F04381B046F22A
:102500000048C4F20008404600F050F840F20C06C3
:10251000C2F2000606F10805284600F099FA4FF0CD
:10252000010942F67C4086F80F9086F81390C2F2BB
:1025300000000189C1F30121B172008900F01F017F
:10254000284600F06DFA4046294600F047F942F669
:1025500084740025C2F20004002700BF04EBC70109
:102560000A6A304640F8142FA28A09FA07F31A4083
:1025700018BF0122C272E28A496A1A4018BF0122BA
:102580000273228B87721A4018BF01224273416086
:10259000058100F029F80137082FDFD140460221DC
:1025A000012201B0BDE8F04300F00FB910B546F2CA
:1025B0000041C4F200014FF08064884208BF4FF030
:1025C00000742046012101F063F920460021BDE896
:1025D000104001F05DB91022002908BF0C2281587B
:1025E00041F0200181507047B0B546F20061C4F25D
:1025F000000190F80AE0037B0A68012442F001021E
:102600000A60CA6904FA0EF56FEA050CAA43012BA9
:10261000CA610DD0F3B9CA6802EA0C02CA60C28866
:10262000438843EA024201EBCE031A6403460AE000
:10263000CA682A43CA600288438843EA024201EB1F
:10264000CE031A64831D82881B8843EA024201EB91
:10265000CE035A64C27A4B68002A43EA050408BFD5
:1026600003EA0C044C600389012B04D03BB94A698E
:1026700002EA0C0302E04A6942EA05034B61407B2F
:10268000012802D1C8692843C861086820F0010008
:102690000860B0BD02464069084204BF0020704790
:1026A000FF294FF0000011DC0F291EDC013907293A
:1026B00049D8DFE801F0043B483D4848483F90686E
:1026C00040F20111C0F20101084040E0B1F5006F95
:1026D00016DBB1F5803F20DAB1F5006F2ED0B1F5F1
:1026E000004F18BF7047506814E010292CD02029E3
:1026F00030D0402902BF1069C0F300107047704706
:10270000B1F5807F28D0B1F5007F29D0B1F5806F79
:1027100019D19069C0F38000704725D0B1F5003F12
:1027200002BF5068C0F3001070477047D0680CE0DB
:10273000D0681AE0D068C0F300107047906910F0BC
:10274000700018BF01207047106910F0030018BF17
:1027500001207047106908E0906900F0010070479F
:102760009069C0F3400070475068C0F3C0007047E4
:1027700003288FBF02A000B203A151F820007047C8
:10278000556E6B6E6F776E005D63000854630008D2
:10279000646300084D63000846F254220021C0F62D
:1027A000000200BF02EBC103DB88834204D0013189
:1027B0001629F7D1052102E0162928BF052102EBD1
:1027C000C100C08840EA01407047002A42690CBF3E
:1027D00022EA0101114341617047000080B502689F
:1027E00022F002020260026842F0010202604FF62B
:1027F000FF7200BFD0F804C0531E934203D21CF0F6
:1028000001021A46F6D04268D20704BF002080BDFC
:1028100091F806C00368BCF1010F23F0800208BFE5
:1028200043F08002026091F807C00368BCF1010F19
:1028300023F0400208BF43F04002026091F808C054
:102840000368BCF1010F23F0200208BF43F020020F
:10285000026091F809C00368BCF1010F23F0100277
:1028600008BF43F01002026091F80AC00368BCF18F
:10287000010F23F0080208BF43F00802026091F83C
:102880000BC00368BCF1010F23F0040208BF43F042
:1028900004020260CB7891F802C00A791B0691F815
:1028A00005E043EA8C73098843EA024242EA0E5289
:1028B00001391143C161016821F0010101604FF646
:1028C000FF7100BF43684A1E8A4203D213F0010120
:1028D0001146F7D14068012121EA000080BD0000C7
:1028E0002DE9F04381B00446406B012844DB46F2F9
:1028F000004642F6240042F67C458846C4F20006B3
:102900002718C2F2000542F2EC7900BFE88800F413
:102910004050B0F5805F05D12046414600F048FDAB
:102920000DE000BFE88800F44050B0F5005F03D12F
:102930002046FFF726FD02E0204601F033FD606AE5
:10294000002200F11401B94288BFA0EB09016162C5
:1029500030460221FFF739FF606B022101386063C6
:1029600030460122FFF731FFA06A0130A06200F07B
:10297000FDFB606B0028C9DCA06A01B0BDE8F083F4
:1029800010B500EB0114D4F8B0C11CF004031372AD
:10299000D4F8B0E104F5D87C19BF4FEADE035360E8
:1029A0004FEA5E531360DCF80030002903F00203A5
:1029B0005372D4F8B43103F00F039372D4F8B431E6
:1029C0004FEA1323D374D4F8B831D372D4F8B831A2
:1029D0004FEA13231373D4F8B8314FEA13435373F8
:1029E000D4F8B8314FEA13639373D4F8BC31D3737E
:1029F000D4F8BC314FEA13231374D4F8BC314FEA36
:102A000013435374D4F8BC314FEA136393744FF0FB
:102A1000100208BF0C22815841F02001815010BDE6
:102A2000152946F2542C88BF0521C0F6000C48B188
:102A30003CF831300CEBC102A0F803309378928857
:102A4000437102800CEBC100C08840EA014070472E
:102A50000021C0F80610418140F20321818001214C
:102A600001607047B0B502468068400109D49068A3
:102A7000000108D49068C0005CBF0420B0BD0220F3
:102A800002E0002000E0012002EB0012D2F88031C9
:102A900002F5C07E03F00103C2F8803191F808C04E
:102AA000BCF1000F03D04B684CEAC30C02E00B688A
:102AB0004FEA435C4B7A8C7ADEF8005043EA0C0311
:102AC0002B43CEF8003004F00F038B72D2F8845100
:102AD00025F00F05C2F88451D2F884512B43C2F877
:102AE0008431D1F80B30C2F88831D1F80F10C2F818
:102AF0008C11DEF8001041F00101CEF80010B0BDDD
:102B0000022925D849B21AA252F82110806808403B
:102B1000FF21C0F60001884210DD4FF6FF71C1F2BF
:102B20000001884216DC40F20011C0F60001884224
:102B30001CD040F20031C0F6000113E040B1012189
:102B4000C0F20041884211D00321C0F2004109E0E7
:102B5000022070470021C1F20101884206D0002105
:102B6000C1F20301884204BF012070470020704772
:102B70000300000400030008000003102DE9F047E3
:102B800046F20045C4F20005044628460221FFF73C
:102B900081FDA0B342F6240042F67C4704F13008E0
:102BA00004EB000A04F12C0642F2EC79C2F20007B1
:102BB000606BB0F5007F11DA226A28460021FFF72A
:102BC000DFFE206A616B00F11402524588BFA0EB62
:102BD0000902481C22626063304604E02846002156
:102BE000FFF7F9FC4046016801310160F8680221F5
:102BF0000130F8602846FFF74DFD0028D8D1BDE828
:102C0000F08780B50220C0F20020012100F034FEE0
:102C100044F21D00012100F047FE0020BDE8804085
:102C200000F0A0BE10B50FA003F076F940F230041A
:102C3000C2F200040020C4E90B00C4E9000046F21F
:102C40001D70C0F600000021002203F02CF9D4E929
:102C5000001246F23270C0F60000BDE8104003F0EA
:102C600022B900BF20436C6561722052582F54581E
:102C700020436F756E746572732E0A00B0B590F8BC
:102C800009E0BEF1040F28BF4FF0040EBEF1000FA3
:102C900008BFB0BDB0F8071042F6847C09BA0A0C30
:102CA0000EEB02013F294FF00003C2F2000C4FF07F
:102CB000000188BF8EF03F0200EB430464890131BC
:102CC00024BA9D188BB2240C9E452CF81540F3D8DD
:102CD000B0BD704742F67C41C2F20001D1F89820A5
:102CE000D1F898309B1A834228BF704700BFF7E79E
:102CF00070B541F60045C0F600054FF6FF76A81CFA
:102D00000021802202F4607330F8024C2B431B88B0
:102D10000CB9B34215D001318030082902F180028C
:102D2000F0D143F20404C2F200040020208000F03D
:102D3000ECF8208805EBC01000F08BF800F0B1F83B
:102D400005E043F20402C2F2000211800688304618
:102D500070BD000080B543F20400C2F2000001889B
:102D600041F6024CC0F6000C01F0070202804FEA67
:102D7000C21E4CEAC21042F68472831C0020C2F2CA
:102D8000000200BF195A115202307C28FAD14EEAD3
:102D90000C000088A2F87C0080BD42F68472C0B2AC
:102DA000C2F2000232F81000088070472DE9F041AD
:102DB00043F20406C2F20006308842F6847400F042
:102DC0000700C2F2000441F60048308020463E2150
:102DD000C0F6000800F07CFA054600F096F831884D
:102DE0004FF48072481C00F0070002EBC1113080E4
:102DF00001F4607131F808204FF6FF739A4204D055
:102E000041EA080000F025F8308808EBC0102904DA
:102E100000F050F8002700BF308808EB470101EBB5
:102E2000C01054F81710043000F044F8B91C8FB2E9
:102E30003E2FF1D3054600F034F82846BDE8F08176
:102E400042F68473C2B2C2F20003084623F812109D
:102E50007047B0B504464FF4302000F065F8042800
:102E600018BFB0BD42F21005C4F20205286840F058
:102E7000020028606C60286840F0400028604FF431
:102E8000302000F051F8296841F6FD7211402960A8
:102E9000B0BD42F21C00C4F202000068C0F3400062
:102EA000704742F21000C4F20200016841F0800154
:102EB0000160704770B582B00546002001904FF464
:102EC00000500C4600F030F804281CD142F21006E5
:102ED000C4F20206306840F0010030604FF4005048
:102EE0002C8000F021F8042808D1A81C019001983A
:102EF000210C01804FF4005000F016F8316841F6C3
:102F0000FE721140316002B070BD42F2040040F226
:102F10002311C4F20200C4F26751016048F6AB11FC
:102F2000CCF6EF510160704742F20C01C4F202018D
:102F30000A68D20709D10A6852070ED40968C9067F
:102F40004FF0030158BF042115E020B10A68D207F1
:102F500005D00138FAD101210DE002210BE00A6809
:102F6000520706D40968C9064FF0030158BF04216F
:102F700000E002210138002808BF052108467047FB
:102F8000B0B582B0022040F60005C1F60300C4F2DD
:102F9000010501AC01902846214600F059F8284669
:102FA000022100F0B0F80420C1F603000190284689
:102FB000214600F04DF8C020C1F6030001902846DC
:102FC000214600F045F840F20010C1F603000190E0
:102FD0002846214600F03CF8E020C1F603000190AD
:102FE0002846214600F034F840F20020C1F60300E4
:102FF00001902846214600F02BF84FF40060ADF810
:10300000040048208DF807002846214600F020F8EB
:1030100041F20000C1F6030001902846214600F06D
:1030200017F841F20000C1F20200019005F580603E
:10303000214600F00DF842F20000C4F602000190B3
:1030400005F50060214600F003F802B0B0BD0000B5
:103050002DE9F041CA7802F00F0CD30644BF8B78FB
:103060004CEA030C09880B0620D0056800234FF0BA
:1030700001084FF00F0E002608FA06F70F420FD096
:103080000EFA03F425EA04040CFA03F5482A45EA8B
:10309000040503D0282A08BF476101E0076100BF8B
:1030A0000136082E03F10403E6D10560B1F5807FF7
:1030B00038BFBDE8F081446800234FF4807E4FF0B4
:1030C0000F0800260EFA06F707EA0105BD420DD1EA
:1030D00008FA03F5AC430CFA03F5482A44EA050460
:1030E00003D0282A08BF476100E007610136082E97
:1030F00003F10403E6D14460BDE8F0818068084034
:1031000018BF01207047416170470161704700009E
:10311000FEE7000070B50C4605460026A85DFFF7E7
:1031200005F8C1B2A1F130020A2A01D2D02103E090
:10313000413905290FD8C921F207014402D10901FB
:10314000700802E07008225C11430136102E2154F1
:10315000E4D1082070BDF0B2400870BD43F2000019
:10316000C4F200004CF6CC410160704743F200000D
:10317000C4F200004AF6AA210160704743F204013C
:10318000C4F200010860704743F20801C4F2000174
:103190000860704743F20001C4F200010860704704
:1031A00080B541F20000C4F201004FF40051FFF776
:1031B000A5FF42F6305CC2F2000CBCF8003048B10A
:1031C0000020D908632B88BF012000227C2988BFFA
:1031D000022006E04FF47A720020B3F57A7F38BF00
:1031E0005A1CACF8002080BD10B542F68474C2F2BF
:1031F00000042046392100F06BF808B1002010BD12
:10320000218842F67C40C2F20000C180218A0181FF
:10321000C18801F44051B1F5405F03D1C18821F468
:103220004051C18046F23832C188C0F6000212789F
:10323000C1F30321914205D3C18821F4706101F5E6
:103240004071C180C28842F63461D3B2013BC2F200
:103250000001F72B81F8442108D3C28842F0010213
:1032600022F0FE02C280012281F8442146F204329B
:103270000189C0F60002127801F01F01914205D3C6
:10328000018941F00C0121F0130101814FF0FF3061
:1032900010BD0000FEE70000B0B54FF6FF72A9B107
:1032A0004FF0000C4AF2010E10F80C305A40002387
:1032B0008EEA5204D50703F1010308BF5408082B16
:1032C0002246F5D30CF1010C8C45EDD190B2B0BD86
:1032D000B0B54FF6FF72A9B14FF0000C4AF2010EE3
:1032E00030F81C305A4000238EEA5204D50703F10F
:1032F000010308BF5408082B2246F5D30CF1010C3A
:103300008C45EDD190B2B0BD704710B582B04FF48E
:10331000E06000F043F825208DF804004FF4807041
:1033200001ACADF80600204600F009F81420C0F208
:1033300000100190204600F002F802B010BD10B558
:10334000C17800294EF20011CEF200011AD04EF6DB
:103350000C52CEF200021268072323EA12220F2336
:10336000C2F1040C23FA02F24378847890F800E06A
:1033700003FA0CF322401A43120101EB0E0383F807
:10338000002300E080310078012300F01F0203FADF
:1033900002F2C0F3421041F8202010BD40F08060DE
:1033A0004EF60C5140F0FD70CEF2000108607047FF
:1033B000B0B50C4694F84421416A204600F8442FE9
:1033C0004A7A022A06D082B90A7A042A08D062B957
:1033D000302208E00A7A042A04D032B9402202E0FE
:1033E000502200E0602284F845208A7A94F8453023
:1033F00004F144051A4384F845200A7A0B1D002A7B
:1034000014BFCA79002284F846200A7A002A14BF21
:10341000CA88002284F847200A7A002A1A4608BF80
:103420000A461268120A84F848200A7A002A08BF5D
:103430000B461A6884F84920D1F80F20D1F80B10F8
:10344000C4F84E20C4F84A100E21FFF725FFA4F857
:1034500052000024285D02F036FD0134102CF9D111
:10346000B0BD0000F0B581B0044642F67C40C2F227
:1034700000000025C0F89850B4F8482100203F2AE9
:1034800015D8A0180171B4F84801012808D048B92E
:1034900094F84401401AB0FA80F04509002006E093
:1034A000022504E0052888BF0D2804D8451CA4F88F
:1034B000485101B0F0BD0E2833D00F2840F076807F
:1034C000251D28461021FFF7E7FE00286ED16179FF
:1034D00001F0700030380009032869D8DFE800F0F7
:1034E0000247232D207A617A002541EA002040F22C
:1034F0003001C2F2000141F80C0F0D81607900F03B
:103500000F008872D4F80E00D4F80A20C1F80F001A
:1035100046F20040C4F20000C1F80B20FFF7A2FA07
:10352000BCE70F25C3E7D4F8060040F2300200BA2A
:10353000C2F200021061042009E0D4F8060040F253
:10354000300200BAC2F2000210614FF401709082A2
:10355000607902F10C0100F00F009075D4F80E00B4
:10356000D4F80A30C2F81B00C2F8173018E0207AED
:10357000617A41EA002040F23001C2F2000141F8D4
:103580000C0F4FF400700881607900F00F00887212
:10359000D4F80E00D4F80A20C1F80F00C1F80B20AF
:1035A00046F20040C4F20000FFF75CFA002575E720
:1035B00001F00F0001380828F8D8DFE800F0054FC7
:1035C000282C176A2F3F1A0095E80F00264646F868
:1035D000440F301D002700250EC0F05D02F073FC83
:1035E0000137102F4FF00000F7D160E7FFF7DEFB47
:1035F000DCE7A07A002841D046F20040C4F2000087
:1036000000F528404FF48051FFF77DFDCEE72046BE
:10361000FFF734FBCAE7FFF79DFBC7E72046FEF73D
:10362000E9FE04F1440600270025F05D02F04BFCA2
:103630000137102F4FF00000F7D138E72046FEF792
:10364000FBFE04F1440600270025F05D02F03BFC80
:103650000137102F4FF00000F7D128E72046FEF782
:1036600002FF04F1440600270025F05D02F02BFC68
:103670000137102F4FF00000F7D118E746F2004055
:10368000C4F2000000F528404FF48051FFF73DFDE3
:103690008CE7012080F3138801F06EFA42F67C413A
:1036A000C2F20001CA8802F44052B2F5805F18BF2E
:1036B0007047D1F89810652924BF0021A0F848115F
:1036C0007047704780B586B001A800F005F90199F0
:1036D0000EA002F0E8FB029911A002F0E4FB0399AE
:1036E00014A002F0E0FB049917A002F0DCFB05999E
:1036F0001AA002F0D8FB42F67C40C2F20000D0F8DB
:1037000098101BA002F0CFFB06B080BD2053595388
:10371000434C4B203D20256C64487A0A0000000091
:103720002048434C4B2020203D20256C64487A0AD9
:10373000000000002050434C4B3120203D20256CE0
:1037400064487A0A000000002050434C4B3220208D
:103750003D20256C64487A0A000000002041444363
:10376000434C4B203D20256C64487A0A0000000041
:10377000205449434B2020203D20256C640A000042
:103780002DE9F04742F67C49C2F20009B9F8107001
:1037900017A002F088FB46F25E7800260FF2580A66
:1037A000C0F6000800240025B81900F03F0009EB1E
:1037B0004000418A5046A14238BF0C46A94288BF0A
:1037C0000D4602F070FB06F00700072802D14046C4
:1037D00002F0A2FB0136402EE6D109A002F063FB05
:1037E00017A021462A46BDE8F04702F05CBB00BFA7
:1037F0004F6C646573740A00253664200000000075
:1038000020202020202020202020202020202020B8
:1038100020202020202020202020202020202020A8
:103820002020202020202020202020202020202098
:103830002020202020204E65776573740A00000048
:1038400043414E2052582073706565642061742096
:103850006C617374203634207365636F6E64732EED
:10386000204D494E3D2564667073204D41583D25DD
:10387000646670730A000000002941F21C01C4F262
:1038800002010A680CBF22EA00001043086070477A
:10389000002941F21001C4F202010A680CBF22EAB9
:1038A0000000104308607047002941F21801C4F27B
:1038B00002010A680CBF22EA00001043086070474A
:1038C000002941F20C01C4F202010A680CBF22EA8D
:1038D000000010430860704710B541F20404C4F2C0
:1038E0000204226802F00C02082A41F20022C0F20F
:1038F0007A0212D12368D4F800C0C3F3834E5FEA82
:10390000CC330EF1020C02D523689B0303D540F69D
:103910000012C0F23D020CFB02F20260236846F284
:103920004421C3F30313C0F60001CB5CDA404260CC
:103930002368C3F30223CB5C22FA03F3836023687A
:10394000C3F3C223C95C46F2402322FA01F1C160ED
:103950002268C0F60003C2F381329A5CB1FBF2F137
:10396000016110BD41F20701C4F202010870704705
:1039700010B542F68474C2F20004A01C6E21FF222E
:10398000FEF7E0FB42F67C40C2F200000021C1805D
:10399000C288012342F0010222F0FE02C280C288E6
:1039A00022F4706202F54072C280C28822F4405252
:1039B000C280C28863F39F32C280C28822800181A4
:1039C000018941F0050121F01A010181018921F4E9
:1039D00040710181018941F480610181018921F4F3
:1039E00000610181018921F4805101810089402118
:1039F00020820020CFF6FF7060610120C0F28700B6
:103A0000A06104F12000FEF7A4FB10BD704710B5C3
:103A100042F67C40C2F20000C18842F68474C2F2D1
:103A2000000421800089382120822046FFF750FCC5
:103A3000A4F87000BDE81040FFF7B8B92DE9F04FC9
:103A400083B042F67C4846F21C41C2F20008C4F240
:103A50000001D8F898600968B1F1FF3F40F3BF80DA
:103A6000002488F894408246D8F8A8000128C0F2C3
:103A7000E88040F2004BC4F2000B0AF10C050AF199
:103A800017090BF5C0470290FFF770FB584600215D
:103A9000C8F89C4000F09AFE38462946FEF7E2FF3F
:103AA0000446584600F055FEB0F57A7F00F2B28029
:103AB000042CF1D00196B8F80800C0040DD400BF62
:103AC00038462146FFF71CF8D8F89C100646B1F599
:103AD0007A7F00F2A980012EF2D1B8F808004005E3
:103AE00030D59AF8150073A3002869A09AF814102D
:103AF00008BF034680A077A208BF10461022002905
:103B000008BF0C22DAF800105AF8022018BF184635
:103B100002F0C9F99AF8160046F26076C0F600067F
:103B200050B1002419F80410304602F0BCF99AF89C
:103B3000160001348442F5D346F25E70C0F60000F0
:103B400002F0EAF9B8F80800019E000505D5DAE9A7
:103B5000030101300131CAE90301DAF80000002451
:103B60000130CAF8000098F89400002866D1D8F80F
:103B7000AC0042F2117188420298A0F1010002905B
:103B800019D300BFD8F89C00D8F8AC106422504379
:103B900088421FD2D8F89C0048F29F61C0F2010110
:103BA000884217D8FFF7E2FA98F894000028E9D085
:103BB00088F894400EE0D8F8AC0058B1584600F0B0
:103BC000C8FDD8F8AC10814204D9D8F89C00C828A8
:103BD000F4D300BF029800283FF755AF31E046F21A
:103BE0000640C0F6000002F097F9B8F80800C0F3EC
:103BF0000124B8F80800C0F30120FEF7B9FD024621
:103C000046F25370C0F60000214603B0BDE8F04F05
:103C100002F049B946F2A760C0F60000214603B0A1
:103C2000BDE8F04F02F03FB938462146FEF752FC9E
:103C300046F28E60C0F600003146F0E7002088F8BA
:103C40009400D8F8A80065281FD3D8F898004FF43E
:103C50007A71831BD8F8A80046F2D8724843B0FBAB
:103C6000F3F7D8F8A8109AF8140046F285760028E1
:103C700046F2EA50C0F60002C0F60000C0F60006A8
:103C800008BF3246009702F00EF903B0BDE8F08F8E
:103C90002054583A253038642044415441204D5333
:103CA000472049443D30782530385820444154411C
:103CB0003D0000002054583A253038642052454DCC
:103CC0004F5445204D53472049443D3078253038E6
:103CD000580000002054583A25303864204441549C
:103CE00041204D53472049443D30782530345820F9
:103CF000444154413D0000002054583A2530386476
:103D00002052454D4F5445204D53472049443D30A6
:103D1000782530345800000070B584B046F2004574
:103D2000C4F2000546F2F9642968C0F60004204692
:103D300002F0B9F86968204602F0B5F8A96846F2C1
:103D40000B70C0F6000002F0AEF8E96846F2C16000
:103D5000C0F6000002F0A7F8296946F2D460C0F668
:103D6000000002F0A0F8696946F2E760C0F60000C2
:103D700002F099F8A969D5F818C0AA69C2F30743F7
:103D8000AA69C2F3021EAA69C2F38000AA69C2F33B
:103D90004004AE694FEA1C6206F00106CDE900E07E
:103DA00010A00294039602F07EF8E969D5F81CC0D1
:103DB000EA69C2F38073EA69C2F30166EA69C2F391
:103DC0000254EA69C2F30340ED694FEADC726FF313
:103DD0009F25CDE90064029012A0039502F063F8DC
:103DE00004B070BD2043414E5F4553523D307825AD
:103DF00030384C58205245433D2564205445433DBE
:103E00002564204C45433D256420424F46463D25D0
:103E10006420455056463D256420455747463D257C
:103E2000640A00002043414E5F4254523D307825E1
:103E300030384C582053494C4D3D2564204C424B62
:103E40004D3D256420534A573D2564205453323D4F
:103E50002564205453313D2564204252503D256451
:103E60000A000000B0B542F67C40C2F200000189B1
:103E7000038946F2542201F01F01C0F60002C3F389
:103E80000124008902EBC101CD88C0F30120FEF7B7
:103E90006FFC03460DA02946224602F004F840F2CA
:103EA0003004C2F20004D4E90B1246F21D70C0F6D1
:103EB000000001F0F8FFD4E9001246F23270C0F6BB
:103EC0000000BDE8B04001F0EEBF00BF2042415508
:103ED000443D256C646B204D4F44453D25642025B1
:103EE000730A000070B504461AA0214601F0DBFFFA
:103EF00042F68475C2F20005A88A012101FA04F68F
:103F000019A106421AA016A208BF114601F0CBFF64
:103F1000E88A1BA106421BA018A208BF114601F0A7
:103F2000C2FF288BE04000F0010119A001F0BBFFA7
:103F300005EBC404208C618C41EA004116A001F01D
:103F4000B2FFA08CE18C41EA004116A0BDE87040B0
:103F500001F0A9BF2066696C7465722025640000B9
:103F600069646D61736B000069646C69737400004F
:103F7000204D4F44453D25730000000031360000C0
:103F800033320000205343414C453D25730000006F
:103F9000204143543D2564002052303D3078253087
:103FA000385800002052313D3078253038580A000A
:103FB000B0B542F67C45C2F20005E88840F6004400
:103FC000C0F30130C4F2010448B3022870D00128C4
:103FD00018BFB0BD20464FF48051FFF796F8D5F8D2
:103FE0009800D5F89810091A632905D800BFD5F8AC
:103FF0009810091A6429F9D320464FF48051FFF72D
:1040000082F8D5F89800D5F89810091A63294FD886
:1040100000BFD5F89810091A6429F9D348E0204662
:104020004FF48051FFF771F8D5F89800D5F8981043
:10403000091A632906D800BF00BFD5F89810091ADD
:104040006429F9D320464FF48051FFF75CF8D5F886
:104050009800D5F89810091A632905D800BFD5F83B
:104060009810091A6429F9D320464FF48051FFF7BC
:104070004CF8D5F89800D5F89810091A632905D896
:1040800000BFD5F89810091A6429F9D320464FF4D7
:104090008051FFF738F8D5F89800D5F89810091A2C
:1040A000632905D800BFD5F89810091A6429F9D3F7
:1040B00020464FF48051BDE8B040FFF726B801F02C
:1040C0002DBE000082B041F20000C4F2020001687F
:1040D000002241F0010101604168CFF6FF0211406A
:1040E000416001684FF6FF72CFF6F6621140016041
:1040F000016821F480210160416821F4FE014160E2
:104100004FF41F018160002101910091016841F489
:1041100080310160016801F40031009101990131A1
:104120000191009919B90199B1F5A06FF2D1016817
:10413000890354BF0021012100910099012934D144
:1041400042F20001C4F202010A6842F010020A6061
:104150000A6822F003020A600A6842F002020A605A
:104160004168416041684160416841F4806141605B
:10417000416821F47C114160416841F4E8114160DB
:10418000016841F08071016001688901FCD54168D6
:1041900021F003014160416841F00201416000BF2C
:1041A000416801F00C010829FAD14EF6085042F29C
:1041B0000001CEF20000C0F60001016002B07047BD
:1041C00070B5044600200D46A4F84601FDF7AAFF8D
:1041D0000068405D10F03E0F13D0B4F84A61012032
:1041E0003F2EA4F8460184F8445000F2C2802846CD
:1041F000FDF7A2FF711CA4F84A11A11981F8C400AF
:10420000B7E01A2D1BDCA5F10800082823D8DFE849
:1042100000F0052CB02C2C442C2C750042F2080028
:10422000A4F844000320A4F84601B4F84A01082188
:10423000002884F8461000F09C80013897E01B2D80
:104240006BD01D2D11D1B4F84C01411C0AB2012ACA
:10425000C8BF411E68E0032D07D142F67C40C2F280
:104260000000012180F8941083E042F67840C2F209
:10427000000000682909415C0122A4F8462184F865
:10428000441005F00F01405C84F845000320A4F8B9
:104290004601202084F846006BE040F60D20A4F88B
:1042A0004400B4F84A0102213F28A4F846115BD823
:1042B00004F1C40100220A54A4F84A21B4F94C21A3
:1042C0004FF0FF30206002EBD27020F00100101A96
:1042D00042F63252C2F20002A4F84C0102EBC010C6
:1042E0008022FDF753FFB4F94C01013000EBD0718F
:1042F00021F00101401AA4F84C013AE042F67C405A
:10430000C2F200000189028901F4806122F4806216
:10431000114481F4806101812BE0B4F84C01411E0D
:104320000AB2002A48BF411C42F63255A4F84C118B
:1043300009B2C2F2000504F1C40005EBC1118022EC
:10434000FDF724FFFDF72EFFA4F84A01B4F94C1144
:1043500004F1440005EBC1118022FDF717FFFDF7C2
:1043600021FFA4F8460104E0002084F80301A4F82A
:104370004A01B4F8460110F03F00A4F846010DD000
:10438000002500BFE8B2204490F8440001F09BFDF6
:104390000135B4F84601E9B28842F3D84FF0FF3056
:1043A00070BD0000F0B581B042F67C41C2F2000160
:1043B000456A098949055CBF01B0F0BD2A7A697A6E
:1043C0002AB11CA30029816A6A6813A704E028A304
:1043D0000029816A2A681FA708BF3B46184601F0DA
:1043E00062FD687A90B9A97A29A001F05CFDA87AEB
:1043F00060B105F10B06002729A400BFF15D20463E
:1044000001F051FDA87A01378742F7D326A001B009
:10441000BDE8F04001F080BD2052583A25303864A4
:104420002044415441204D53472049443D30782594
:10443000303858002052583A253038642052454DC3
:104440004F5445204D53472049443D30782530385E
:10445000580000002052583A253038642044415416
:1044600041204D53472049443D3078253034580091
:104470002052583A253038642052454D4F5445203B
:104480004D53472049443D307825303458000000D2
:10449000204C454E3D25642020444154413D0000C0
:1044A00025303258200000000D0A00000288002943
:1044B00042F0010308BF22F001030380704710B5EA
:1044C00088B040F20044C4F20004204600F029F80D
:1044D00047200021ADF814000020CCF24F31ADF898
:1044E0001A00CDF816108DF81C0005A9204600F022
:1044F0006FF96020C0F2010001900020C6F2A71001
:1045000002904FF4003003904FF00070049001A926
:10451000204600F020F920460121FFF7C7FF08B030
:1045200010BD80B541F6FF71C4F20001884228DD5C
:1045300044F2FF31C4F2010188423FDD44F6FF310D
:10454000C4F2010188426EDD44F60041C4F201016B
:10455000884200F0B58045F20001C4F201018842B2
:1045600000F0B68045F20041C4F20101884218BF54
:1045700080BD4FF400100121FFF7A2F94FF40010A5
:10458000D7E040F6FF71C4F20001884232DC40F20D
:10459000FF71C4F2000188425ADCB0F1804F00F094
:1045A0009F8040F20041C4F20001884240F0D08078
:1045B00002200121FFF76CF90220C4E043F2FF3131
:1045C000C4F20101884255DC42F20001C4F200014C
:1045D000884200F08B8042F60041C4F2010188421B
:1045E00040F0B6804FF400600121FFF769F94FF405
:1045F00000609EE041F2FF71C4F2000188424DDC90
:1046000041F20001C4F20001884277D041F200413A
:10461000C4F20001884240F09B8020200121FFF776
:1046200037F920208FE044F20041C4F201018842B2
:104630006AD044F60001C4F20101884240F088804B
:104640004FF480200121FFF73BF94FF4802070E008
:1046500040F60001C4F2000188425DD040F60041FE
:10466000C4F20001884273D108200121FFF710F93C
:10467000082068E043F20041C4F20101884251D0B1
:1046800044F20001C4F20101884261D14FF480304C
:104690000121FFF715F94FF480304AE041F600019F
:1046A000C4F20001884249D041F60041C4F2000141
:1046B00088424DD180200121FFF7EAF8802042E0B6
:1046C0004FF400200121FFF7FBF84FF4002030E009
:1046D0004FF480100121FFF7F3F84FF4801028E029
:1046E00001200121FFF7D4F801202CE04FF4807065
:1046F0000121FFF7CDF84FF4807024E01020012154
:10470000FFF7C6F810201EE04FF400300121FFF73C
:10471000D7F84FF400300CE004200121FFF7B8F87F
:10472000042010E04FF400500121FFF7C9F84FF4C6
:1047300000500021BDE88040FFF7C2B840200121B1
:10474000FFF7A6F840200021BDE88040FFF7A0B8A1
:1047500080BD808C704710B5028C22F0010202846B
:10476000048CB0F804E0038B0A8823F0730343EA57
:10477000020C0A8924F002031A43A0F180434C88FA
:10478000A3F596334FEAB323072B42EA040215D868
:10479000012404FA03F313F0E50F0FD04B8922F044
:1047A0000C0223F004038C881A4322438C892EF4D4
:1047B000407ECB8944EA0E0444EA030EA0F804E0EC
:1047C000A0F818C0C9888186028410BD8184704712
:1047D00040F6FF33B0F800C0C4F2000398420DDC8D
:1047E000B0F1804F1CD040F20043C4F20003984265
:1047F00016D040F60003C4F200030FE040F6004379
:10480000C4F2000398420BD043F20043C4F2010308
:10481000984205D042F60043C4F20103984204D105
:104820004B882CF0700243EA020C41F2004240F443
:104830008063C4F20002934204D0CA882CF440730F
:1048400042EA030CA0F800C08A888285A0F1804269
:10485000A2F596320B884FEAB222072A038507D8C1
:10486000012303FA02F212F0E50F1CBF097A018658
:10487000012181827047000046F208320021C0F613
:10488000000200BF52F82130834203D901310C29C4
:10489000F8D10C21C8B2704746F208320021C0F6A8
:1048A000000200BF52F82130834208BF7047013137
:1048B0000C29F7D14FF4E130704710B543F60004EE
:1048C000C4F201042046082100F071F810B120461E
:1048D00000F0FFF8204640F2255100F06DF8A0B13D
:1048E000204600F0F6F842F67C41C2F20001CA8888
:1048F00002F44052B2F5805F08D1C1B242F6346092
:10490000C2F20000FEF7AEFD15E010BDC98801F44B
:104910004051B1F5005F07D1C1B242F63460C2F236
:104920000000FDF744FD06E0C1B242F63460C2F279
:104930000000FFF745FC204640F22551BDE810403D
:10494000AFF30080090A012202FA01F1C943018094
:1049500070478289002942F4005308BF22F40053B3
:1049600083817047B0B584B06D460446284600F098
:10497000B8F82046FFF790FF43F60004C4F20104A4
:1049800000902046294600F04BF8204640F2255181
:10499000012200F02EF8204640F22771002200F09C
:1049A00028F820460121FFF7D4FF04B0B0BD0088ED
:1049B000084018BF0120704701F01F024FF0010CA2
:1049C000C1F34213022B0CFA02F206D0012B14BFE2
:1049D00000F1140300F10C0301E000F110031B8847
:1049E0000088090A1A4020FA01F018BF012210407D
:1049F0007047C1F3421301F01F0C1421022B08BFB2
:104A00001021012B4FF0010308BF0C21002A03FAEB
:104A10000CF243580CBF23EA02021A43425070477B
:104A200070B586B00446008A0D46C98820F440500F
:104A300008432082A0894EF6F3110840A9882A89EC
:104A40006B89084310431843A081A08AA98920F4E8
:104A50004070084301AEA0823046FEF73DFF43F6AA
:104A6000000106F10800C4F201018C4208BF06F102
:104A70000C0000681922B4F90C1050432A68022374
:104A8000002948BF012302FA03F1B0FBF1F048F21C
:104A90001F51C5F2EB11A0FB01235A096FF063030C
:104AA00002FB0300B4F90C300426002B48BF032698
:104AB00000FA06F000F13200A0FB01014FF00F00F8
:104AC00048BF072000EA511040EA0210208106B0DA
:104AD00070BD80886FF35F2070476FF35F21818026
:104AE00070474FF4165100224FF4402380E80E0027
:104AF0008281704740F23000C2F20000FEF73EB8FB
:104B000042F68470C2F20000B0F87600A0F1100105
:104B10008AB2120942EA013189B2072905D8012275
:104B200002FA01F111F08B0F04D14FF2E070C1F6DF
:104B3000FF70008843F20C01C2F20001088080027D
:104B400043F2080100F10060C2F200010860704702
:104B5000FEE780B545F25550FEF71CFB0520FEF739
:104B60000DFB4FF47A70FEF70FFBFEF7FFFABDE87E
:104B70008040FEF7F3BA00004EF60C50BFF34F8FA3
:104B8000CEF200000168042201F4E061C0F2FA52A2
:104B900011430160BFF34F8F00BFFDE74EF60C508D
:104BA000BFF34F8FCEF200000168042201F4E061F0
:104BB000C0F2FA5211430160BFF34F8F00BFFDE70F
:104BC00080B5FEF766F90021012808BF4FF0FF31DC
:104BD000084680BDFEF715F8FEF7D2F9FFF790FF03
:104BE000FEF786F8FEF7B6F8FEF7FEFA18B9FEF7FC
:104BF000BFFEFEF70CFFFEF788FBFFF760FCFFF738
:104C0000A8FF40F20800C2F20000006841F25971AA
:104C1000CDF2B711A0FB01014FF0FF3043F22C029F
:104C200000EB513045F68561C2F20002C0F600018A
:104C3000B0F1807F116000D3FEE74EF21001CEF29A
:104C4000000148604EF62350CEF20000F0220270C0
:104C5000002088600720086041F20000C4F20100D3
:104C60004FF40051FEF74AFA18B9FEF781FEFEF73D
:104C7000CEFEFDF741FC42F67C45C2F20005E88815
:104C800046F20831C0F30320C0F6000151F82000BD
:104C9000FFF768FEE88810F4405F08BF00F0F8FEF8
:104CA000FFF786F942F63464C2F20004E88810F493
:104CB000405F08BF01F070F800F095FF00F038FF8A
:104CC00001F00AF800F09AFF2046FEF7E7FCFEF735
:104CD0004DFAEBE710B543F21800C2F20000046889
:104CE000C4B346F28971C0F600012046FDF73CFAD4
:104CF000D0B343F21C00C2F200000068002865D067
:104D000000210A22FDF778FA80B2FDF745FD46F250
:104D10000431C0F600010978B1EB104F98BF10BD07
:104D200042F67C41C2F200010A89000C60F30402E1
:104D30000A81088946F2542100F01F00C0F60001E4
:104D400001EBC000C18846F24770C0F6000001F0D8
:104D5000AAF837E046F22550C0F6000001F0DCF872
:104D6000BDE81040FFF77EB846F28E71C0F6000134
:104D70002046FDF7F9F9002841D043F21C00C2F2A9
:104D800000000068002843D000210A22FDF734FA11
:104D900042F67C41C2F200010A8922F4407260F3BB
:104DA00009220A810889C0F301240889C0F301207F
:104DB000FDF7DEFC024646F25370C0F600002146C5
:104DC00001F071F8BDE81040FDF796BB2AA001F094
:104DD000A3F842F67C40C2F20000008946F254215A
:104DE00000F01F00C0F6000101EBC000C18846F2D0
:104DF0004770C0F60000BDE8104001F054B833A180
:104E00002046FDF7B1F9E0B1BDE81040FEF784BFE0
:104E100024A001F081F842F67C40C2F20000018932
:104E2000C1F301240089C0F30120FDF7A1FC024673
:104E300046F25370C0F600002146BDE8104001F074
:104E400032B823A12046FDF78FF918B1BDE8104014
:104E5000FEF796BC20A12046FDF786F918B1BDE803
:104E60001040FDF7DFBE46F22550C0F60000BDE859
:104E7000104001F051B800BF2063616E206261757F
:104E800064205B6261756420696E206B6270735D83
:104E9000207365742043414E2062617564726174B1
:104EA000652E0A002063616E206D6F6465205B30A3
:104EB0007C317C327C335D207365742043414E200D
:104EC000776F726B206D6F64652E0A0072656700E4
:104ED0007370656564000000636C656172000000BA
:104EE0002DE9F04782B043F21800C2F200000468D6
:104EF0000020002CADF8060000F091804CA1204667
:104F0000FDF732F9F8B143F21C00C2F2000000686C
:104F1000002800F08A8000211022FDF76DF943F28D
:104F20002001C2F2000109680546D1B308460021FC
:104F30001022FDF761F984B2A4F10800382888BF77
:104F400040247CBB4EE041A12046FDF70DF900282E
:104F50004DD043F21C00C2F200000068002864D06B
:104F600043F22004C2F20004216800295DD0002130
:104F70001022FDF741F9216804460846002110225D
:104F8000FDF73AF9E4B285B220462946FDF758FF0D
:104F900030A0294600F087FF33A0214600F083FFB0
:104FA00043E04024EDB200200FF28C080DF1060919
:104FB0000FF2900A002600BF47193E2F12D8400773
:104FC00003D14046394600F06EFFB8B24946FDF7BE
:104FD000E4FEBDF80610504600F065FF0136B0B2A1
:104FE0008442E9D846F25E70C0F600001BE046F24B
:104FF0007671C0F600012046FDF7B6F818B1FDF74E
:10500000A9FE20A00FE046F2A271C0F600012046E2
:10501000FDF7AAF818B1FDF7C9FE21A003E046F29A
:10502000A830C0F6000000F077FF02B0BDE8F087BE
:1050300072656164000000000A3078253034582021
:105040002000000025303458200000007772697479
:10505000650000002077726974652030782530344F
:105060005820746F0000000020656570726F6D201D
:105070006164647265737320307825303458202E53
:105080002E2E0A004C6F61642066726F6D20496E8F
:10509000742E20454550524F4D2E2E2E0A000000F2
:1050A0005361766520746F20496E742E20454550FB
:1050B000524F4D2E2E2E0A0010B582B043F218002A
:1050C000C2F200000468ECB168A12046FDF74CF87C
:1050D000B8B343F21C00C2F20000006842F67C4400
:1050E000C2F2000448B100210A22FDF785F82189A7
:1050F00021F4806160F38A2121812089C0F380211D
:105100005CA09BE046F2B250C0F6000000F004FF45
:1051100042F67C40C2F200000189C1F3802102897D
:10512000C2F3C0220389C3F30033D0F8A840D0F8FB
:10513000ACC065A00094CDF804C000F0B4FE02B08D
:1051400010BD4FA12046FDF70FF8E0B143F21C005F
:10515000C2F20000006868B100210A22FDF74CF895
:1051600042F67C41C2F200010A8922F4006260F337
:10517000CB220A8142F67C40C2F200000089C0F3D3
:10518000C02140A05AE042A12046FCF7EDFFE0B16B
:1051900043F21C00C2F20000006868B100210A223C
:1051A000FDF72AF842F67C41C2F200010A8922F496
:1051B000805260F30C320A8142F67C40C2F2000059
:1051C0000089C0F3003134A038E036A12046FCF756
:1051D000CBFFB8B143F21C00C2F20000006848B136
:1051E00000210A22FDF708F842F67C41C2F20001D4
:1051F000C1F8A80042F67C40C2F20000D0F8A81026
:1052000029A01BE02BA12046FCF7AEFFD8B143F24A
:105210001C00C2F20000006848B100210A22FCF71D
:10522000EBFF42F67C41C2F20001C1F8AC0042F64D
:105230007C40C2F20000D0F8AC101FA002B0BDE864
:10524000104000F030BE1FA12046FCF78DFF20B1BA
:1052500002B0BDE81040FEF735BA46F2B250C0F6D3
:10526000000002B0BDE8104000F056BE73686F77D2
:10527000000000002053484F573D25640A000000FD
:1052800061646400204144443D25640A000000003C
:1052900073696E676C6500002053494E474C453D6D
:1052A00025640A00636E740020434E543D25640A51
:1052B0000000000070726400205052443D25647567
:1052C000730A0000726363002053484F573D256402
:1052D000204144443D25642053494E474C453D25DB
:1052E0006420434E543D2564205052443D2564754E
:1052F000730A000070B543F21800C2F200000068A3
:10530000F0B1002110220026FCF776FF40F23004B5
:1053100020F06040C2F20004206143F21C00C2F29F
:1053200000000568042046F29B712075C0F600015C
:105330002846FCF719FF58B10220607500210EE0E5
:1053400046F23540C0F60000BDE8704000F0E4BD14
:1053500004F1170128466675FDF7DCFE014620467C
:10536000A175BDE87040FEF769BB0000B0B543F21F
:105370001800C2F200000468ACB346F29371C0F6A4
:1053800000012046FCF7F0FED0BB204600210A2297
:10539000FCF732FF43F21C01C2F200010D6846F235
:1053A0008E7100F00704C0F600012846FCF7DCFE11
:1053B00038B343F22000C2F20000006800B30021BD
:1053C0000A22FCF719FF42F68472C2F200020121A0
:1053D000938AA14043EA0105C00708BF23EA0105FB
:1053E0002046958286E046F2E640C0F6000000F0D6
:1053F00093FD0024A0B2FEF775FD0134082CF9D10D
:10540000B0BD3EA12846FCF7AFFED0B143F220006C
:10541000C2F2000000680028F2D000210A22FCF746
:10542000EBFE42F68472C2F200020121D38AA1404F
:1054300043EA0105C00708BF23EA01052046D582DB
:1054400058E030A12846FCF78FFED0B143F220008F
:10545000C2F2000000680028D2D000210A22FCF726
:10546000CBFE42F68472C2F200020121138BA140EE
:1054700043EA0105C00708BF23EA0105204615835A
:1054800038E021A12846FCF76FFEB0B143F22000BE
:10549000C2F2000000680028B2D000211022FCF700
:1054A000ABFE42F68472C2F200020146000C02EB2F
:1054B000C4021084204651841CE014A12846FCF745
:1054C00053FEB0B143F22000C2F200000068002891
:1054D00096D000211022FCF78FFE42F68472C2F2B1
:1054E00000020146000C02EBC40290842046D184E5
:1054F00000E02046BDE8B040FEF7F4BC7363616C89
:1055000065000000616374007230000072310000B9
:1055100070B546F2E0760025C0F6000605A400BF8F
:10552000701971594268204600F0BDFC0C35782D89
:10553000F6D170BD202573202D3E2025730000007C
:1055400010B543F21800C2F20000006880B140F6C6
:10555000004400211022C4F20104FCF74DFEC007F4
:1055600007D120464FF48051BDE81040FDF7CDBD76
:1055700010BD20464FF48051BDE81040FDF7C3BD7B
:10558000B0B543F21800C2F200000068C0B10021BB
:105590001022FCF731FE04466FF31100B0F1006FEA
:1055A0000FD047F6FF7024EA0000B0F1005F08D08A
:1055B00046F26B30C0F60000BDE8B04000F0ACBC75
:1055C000B0BD43F21C00C2F20000006830B10021FF
:1055D0001022FCF711FE85B2072D01D84FF480751B
:1055E00020462946FDF758FE034603A021462A46D9
:1055F000BDE8B04000F057BC53544152543D3078A0
:1056000025303858204C454E3D30782530385820CC
:105610004352433D3078253034580A002DE9F04399
:1056200081B0FFF7CDFA10B101B0BDE8F08343F2CD
:105630001800C2F2000000680028F5D000211022F6
:10564000FCF7DAFDA8B1044643F21C00C2F20000E8
:105650000068002590B100211022FCF7CDFD87B233
:10566000B7F5807F88BF0125072F98BF4FF480775B
:1056700006E046F26B30C0F6000021E04FF4807780
:10568000002D18BF4FF48077B7B146F2607900263D
:105690000FF23808C0F60009002500BF300703D11B
:1056A0003119404600F0FFFBA15D484600F0FBFBCE
:1056B0000135AEB2B742F1D846F25E70C0F60000D6
:1056C00001B0BDE8F04300F027BC00BF0A307825E8
:1056D000303858200000000010B543F21800C2F224
:1056E0000000046864B346F27671C0F600012046FB
:1056F000FCF73AFD30B116A000F00EFCBDE81040FA
:10570000FDF772BD46F2A271C0F600012046FCF71B
:105710002BFD30B117A000F0FFFBBDE81040FEF7F5
:1057200076B946F29371C0F600012046FCF71CFDE5
:1057300030B118A000F0F0FBBDE81040FEF718B93A
:1057400046F21260C0F60000BDE8104000F0E4BB75
:10575000204C6F616420706172616D657465727355
:105760002066726F6D20454550524F4D2E2E2E0AE9
:1057700000000000205361766520706172616D65E4
:105780007465727320746F20454550524F4D2E2E14
:105790002E0A000020526573746F7265206465667E
:1057A00061756C7420706172616D65746572732EC1
:1057B0002E2E0A0043F21800C2F20000006808B959
:1057C000002003E000210A22FCF716FDFDF782FA13
:1057D00003A000F0A1FB012080F31388FFF7DEF99E
:1057E000207265626F6F74696E672E2E2E200A001C
:1057F00070B543F21800C2F200000068E8B1002161
:1058000010220026FCF7F8FC40F230046FF3DF2092
:10581000C2F20004E06043F21C00C2F2000005681E
:1058200046F29B71C0F6000128462675FCF79CFCE9
:1058300058B10220607500210EE046F27640C0F6B5
:105840000000BDE8704000F067BB04F11701284676
:105850006675FDF75FFC01462046A175BDE8704006
:10586000FEF7ECB810B543F21800C2F2000004686D
:1058700064B346F28971C0F600012046FCF774FC5F
:10588000002855D043F21C00C2F200000068002836
:1058900071D000210A22FCF7AFFCFEF7EDFF42F6C3
:1058A0007C41C2F20001CA8800F00F0022F470624D
:1058B00042EA0020C880C88846F20831C0F30320BD
:1058C000C0F6000151F820104BA062E046F25250A1
:1058D000C0F6000000F020FB42F67C44C2F2000457
:1058E000E08846F20831C0F30320C0F6000151F809
:1058F000201061A000F0D7FAE08846F26672C0F38B
:105900000131E08846F26B7300F44050B0F5805FDF
:1059100046F25370C0F60002C0F60000C0F6000365
:1059200008BF1A4600F0BFFAE088C1B255A030E0C7
:1059300046F28E71C0F600012046FCF715FC60B3FC
:1059400042F67C40C2F20000C18846F26672C1F3A2
:105950000131C08846F26B7300F44050C0F600027B
:10596000C0F60003B0F5805F08BF1A4636A0BDE858
:10597000104000F098BA42F67C40C2F20000C088A5
:1059800046F20831C0F30320C0F6000151F82010A0
:1059900028A0BDE8104000F086BA30A12046FCF7F0
:1059A000E3FBC0B143F21C00C2F200000068D0B1BA
:1059B00000210A22FCF720FC42F67C41C2F20001E1
:1059C000CA8860F30702CA80C888C1B246F27A501A
:1059D000C0F60000DDE746F25250C0F60000BDE818
:1059E000104000F099BA42F67C40C2F20000C08834
:1059F000C1B21CA0CDE700BF207365742055415291
:105A000054204241554420746F20256C642C20732F
:105A10006176652026207265626F6F7420746F2036
:105A20006170706C79206E657720626175642E0AF2
:105A30000000000020554152542042415544203D71
:105A400020256C640A0000002055415254204D4F1F
:105A50004445203D2025642025730A00616464725A
:105A60000000000020554152542041444452203D42
:105A70002025640A0000000020424155443D256C69
:105A8000640A000020414444523D25640A0000009D
:105A900070B546F23A30C0F600000088410AC0F303
:105AA000431200F01F030BA000F0FDF94FF2E8765F
:105AB0000025C1F6FF760DA436F81510204600F03B
:105AC000F2F90135062DF7D10AA0BDE8704000F0CB
:105AD00023BA00BF205541525443414E20762564DD
:105AE0002E25642E256420534E3A0000253034586C
:105AF000000000000A204543484F20537475646934
:105B00006F203C6563686F2E786A747540676D61BD
:105B1000696C2E636F6D3E2E20416C6C205269675C
:105B20006874732052657365727665642E200A006E
:105B30002DE9F04742F68470C2F20000408B40F23B
:105B400030086FF3DF20C2F20008C8F80C00002014
:105B5000A8F81400012042F6680788F81600C2F27F
:105B60000007D7F80804E0B343F60009C4F20109BE
:105B7000A9F5544508F10C0607F2FF3AD7F80404DA
:105B80000024007888F8170028463146FCF76AFFA1
:105B9000042806D1FDF7EAFAB4F5704F04F10104C8
:105BA000F2D9D7F804040022411C514588BFA0F265
:105BB000FF31C7F80414484640F22551FEF719FF9B
:105BC000D7F8080440F225510138C7F808044846C0
:105BD0000122FEF70EFFFDF7C9FAD7F808040028E6
:105BE000CCD1BDE8F08740F2300042F63461C2F219
:105BF0000000C2F20001FCF773BE000070B584B073
:105C000042F67C4446F21845C2F20004C4F2000594
:105C1000A0882968800601F0070022D430B314A0C0
:105C200000F041F92968D5F800C02A68C2F307439B
:105C30002A68C2F3021E2A68C2F380002A68C2F3EF
:105C400040062D684FEA1C6205F00105CDE900E031
:105C500011A00296039500F026F9A08840F02000DC
:105C600003E018B9A08820F02000A08004B070BD27
:105C7000205761726E696E673A2043414E2062750B
:105C800073206572726F72206F63637572726564E0
:105C90002E2E2E0A000000002043414E5F45535235
:105CA0003D30782530384C58205245433D256420FE
:105CB0005445433D2564204C45433D256420424FD7
:105CC00046463D256420455056463D2564204557AF
:105CD00047463D25640A000042F67C40C2F20000BF
:105CE0000178022904D0012918BF7047FEF760B976
:105CF000C1884AF6AB22C1F301310131CAF6AA22AA
:105D0000A1FB02235A08C38802EB4202891A23F43A
:105D1000405242EA0131C180FDF748B810B542F661
:105D20007C44C2F20004D4F89C0042F211730130AA
:105D3000C4F89C0043F22800C2F20000018801313F
:105D40008AB29A42018010D300210180208A00F09B
:105D50003F002082204650F80C2F238A00EB43039B
:105D6000DA800160208A0130208243F22A00C2F2E8
:105D70000000018801310AB20A2A0180B8BF10BDB3
:105D800000210180D4F898000130C4F89800FDF794
:105D900007FA207010BD00002DE9F04F81B042F6E7
:105DA0003465C2F200052868002867D046F26471A5
:105DB00005F1C400C0F60001FCF7FCF943F214063B
:105DC00043F2180B43F21C0443F2200843F2240967
:105DD000C2F20006C2F2000BC2F20004C2F20008D6
:105DE000C2F20009306028B346F26471C0F60001C7
:105DF0000020FCF7DFF9CBF80000D8B146F264715F
:105E0000C0F600010020FCF7D5F9206090B146F201
:105E10006471C0F600010020FCF7CCF9C8F800005E
:105E200040B146F26471C0F600010020FCF7C2F9EF
:105E3000C9F80000A146346846F2E07A0027C0F6AF
:105E4000000A00BF5AF807102046FCF78DF918B970
:105E50000C37A82FF6D103E00AEB070080688047D3
:105E600043F224010020C2F200013060CBF80000B0
:105E7000C9F80000C8F800000860286001B0BDE85B
:105E8000F08F000010B543F60004C4F2010401468F
:105E90002046FEF722FE00BF20468021FEF787FD48
:105EA0000128F9D110BD83B080B581B00DF10C0C83
:105EB0008CE80E0003A9009100F03AF801B0BDE8AB
:105EC000804003B07047B0B543F2100504460A287D
:105ED000C2F200050ED1296821B1481C0D222860AC
:105EE0000A7009E043F22C00C2F20000016889B197
:105EF0000D208847286818B1411C29600470B0BD86
:105F000043F22C00C2F20000016819B12046BDE83E
:105F1000B0400847B0BD000010B5017839B1441C4D
:105F2000C8B2FFF7D0FF14F8011B0029F8D110BD4B
:105F30002DE9F04F85B00DF1040B0C460546ABF191
:105F4000010900BF2A4615F8010B252802D00028B8
:105F500047D11BE15078302803D02D2805D10221EC
:105F600000E001219078D51C01E0951C0021A0F1F2
:105F70003002D2B24FF0000A092A0DD8C2B215F889
:105F8000010B0AEB8A0302EB4302A0F13003DBB200
:105F90000A2BA2F1300AF1D340F020026C2A04BF90
:105FA00015F8010B0431002800F0F080024660284B
:105FB00088BF203AD3B24E2B0CDDA3F14F02092A41
:105FC0000FD8DFE802F0050E0E0E150E110E0E139F
:105FD000082264E0422B61D0432B00F0D480442B94
:105FE00002D0FFF770FFADE70A2258E0102256E01A
:105FF00054F8046B002000BF0746305C002807F10E
:106000000100F9D18907A0F101081DD4D0458046CF
:106010001AD2009443F2100443F22C08C2F2000496
:10602000C2F20008206820B1411C216020210170CB
:1060300004E0D8F8001009B12020884701375745FF
:10604000F0D3009C07F10108307840B1013600BF61
:10605000C0B2FFF738FF16F8010B0028F8D1D04581
:10606000BFF470AF43F22C07009443F21004C2F265
:106070000007AAEB0806C2F20004B846202700BFBA
:10608000206818B1411C2160077004E0D8F80010A6
:1060900009B120208847013EF2D172E0022254F873
:1060A000046B443BB3FA83F35B09002E4FF0000707
:1060B00048BF012713EA070CA6464FF0000818BF97
:1060C000764278284FF0070008BF2720B6FBF2F78A
:1060D000444607FB126308F10108092B88BF0344FB
:1060E0003033B8F10F0F0BF8043002D8B2423E46FD
:1060F000ECD9BCF1000F18BF0831080742BF2D20B2
:106100000BF8080008F10108C8074FF03006744684
:1061100008BF2026880747460CD4D04508D24746FA
:106120003046FFF7D0FE01375745F9D3013701E07C
:1061300008F1010719F80800A8F10108FFF7C3FEEC
:10614000B8F1000FF6D15745BFF4FCAEAAEB070635
:1061500043F22C07009443F21004C2F20007C2F28B
:106160000004B846202700BF206818B1411C2160F8
:10617000077004E0D8F8001009B120208847013EDC
:10618000F2D1009CDEE614F8040B2AE705B0BDE866
:10619000F08F0000004870470400002002E008C8AB
:1061A000121F08C1002AFAD170477047002001E091
:1061B00001C1121F002AFBD17047004040404040FF
:1061C00040404040414141414140404040404040CA
:1061D00040404040404040404040400502020202F2
:1061E00002020202020202020202022020202020F9
:1061F00020202020200202020202020290909090B1
:10620000909010101010101010101010101010108E
:1062100010101010101002020202020288888888F2
:1062200088880808080808080808080808080808EE
:10623000080808080808020202024000BB610008C2
:106240000204060800000000010203040102030426
:1062500006070809000702000300E8030004010024
:10626000050084030005010005002003000501006E
:1062700006009A0200060100060058020003000012
:106280000C00F401000D0200050090010006010061
:106290000C002C01000300001800FA0000080100A7
:1062A0000F00C8000006010018009600000300005F
:1062B00030007D00000801001E006400000C010099
:1062C00019005A00000300004B00500000060100B6
:1062D0003C003C00000801003C00320000030000CC
:1062E000960028000006010078001E000003000050
:1062F0002C0114000003000058020A0000070100EE
:10630000580205001600000000100E0000080700EB
:106310000084030000C2010000E1000000960000BC
:10632000004B000080250000C01200006009000042
:10633000B00400002C0100000C0001293031323380
:106340003435363738394142434445460053696C49
:10635000656E745F4C6F6F704261636B004E6F725D
:106360006D616C0053696C656E740020426164203D
:1063700041647265737321200A006D656D637263F9
:10638000205B68657820616464725D205B68657875
:10639000206C656E5D2053686F77204D656D6F7260
:1063A00079204352432E0A00656570726F6D205B41
:1063B0006C6F61647C736176657C726561647C7707
:1063C000726974655D205B616464725D205B646109
:1063D00074615D204F70657261746520496E742E22
:1063E00020454550524F4D2E0A00646973706C6110
:1063F000792053572076657273696F6E20616E64E1
:1064000020534E2E0A00205761726E696E673A2043
:1064100043616E206E6F742073656E64206D7367C8
:1064200020756E6465722053696C656E74204D6FC3
:1064300064652E0A00657874205B68657849445D60
:10644000205B686578444154417C72656D6F74656A
:106450005D2053656E6420657874656E64656420A4
:10646000646174612F72656D6F7465206D657373FF
:106470006167652E0A00737464205B68657849441F
:106480005D205B686578444154417C72656D6F7432
:10649000655D2053656E64207374616E646172641F
:1064A00020646174612F72656D6F7465206D657312
:1064B000736167652E0A007265626F6F74205B649A
:1064C000656C6179206D735D2052657374617274BF
:1064D0002073797374656D2E0A0068656C702049AD
:1064E0006E666F2E0A0066696C746572205B302DD3
:1064F000375D205B6D6F64657C7363616C657C6187
:1065000063747C72307C72315D205B706172616D8E
:106510005D2043414E2066696C746572207365741A
:1065200075702E0A0063616E205B626175647C6D1C
:106530006F64657C73706565647C636C6561725DB6
:106540002043414E20706F72742073657475702EF5
:106550000A0075617274205B626175647C6D6F64A2
:10656000657C616464725D205541525420706F7285
:10657000742073657475702E0A002073657420553D
:10658000415254204144445220746F2025642C20F1
:10659000736176652026207265626F6F7420746F58
:1065A000206170706C79206E657720616464722E52
:1065B0000A00656E76205B73686F777C6164647C2B
:1065C000636E747C7072645D205365742F53686FC2
:1065D0007720656E7669726F6E6D656E7420766178
:1065E000726961626C65732E0A002053656E6420C7
:1065F000256C64202573206672616D657320696E59
:1066000020256C646D732061742025646670732E80
:106610000A00706172616D205B6C6F61647C7361F4
:1066200076657C726573746F72655D204F706572FC
:1066300061746520706172616D65746572732E0A94
:10664000006C6564205B307C315D20636F6E74721A
:106650006F6C20746865206C656420646973706C6D
:1066600061792E0A006D656D7264205B6865782023
:10667000616464725D205B686578206C656E5D2086
:1066800053686F77204D656D6F72792E0A00205424
:10669000784661696C6564205374617475733D302C
:1066A00078253032580A00204E6F4D61696C426F78
:1066B00078205374617475733D3078253032580AF0
:1066C000002043414E5F524630523D3078253038ED
:1066D0004C580A002043414E5F524631523D3078BB
:1066E0002530384C580A002043414E5F4945523D01
:1066F00030782530384C580A002043414E5F4D53C6
:10670000523D30782530384C580A002043414E5FC6
:106710005453523D30782530384C580A0020525896
:10672000204F4B3D256C64204C4F53543D256C64E9
:106730000A00205458204F4B3D256C64204C4F5389
:10674000543D256C640A0020424155443D256C644B
:106750006B0A00204D4F44453D25642025730A00F7
:106760002530325820005445524D00504B54006D96
:10677000656D637263006C6F6164006C6564006DCD
:10678000656D7264007374640062617564006D6F9E
:10679000646500726573746F72650072656D6F7405
:1067A00065007361766500706172616D006565708A
:1067B000726F6D0063616E0076657273696F6E0053
:1067C00068656C700066696C746572007265626FF2
:1067D0006F7400756172740065787400656E760080
:1067E000B467000825650008D54C000885670008D7
:1067F00076640008F1570008D8670008356400087F
:10680000F5520008DC670008B2650008B9500008BE
:10681000D36700085265000865580008C56700087E
:10682000E66400086D530008A767000812660008B8
:10683000D9560008CC670008B7640008B5570008AF
:10684000C0670008DA64000811550008B86700083E
:10685000EA630008915A0008AD670008A8630008C1
:10686000E14E00087B6700084166000841550008BA
:106870007F670008656600081D5600086F670008FE
:106880007A63000881550008A8680008000000200D
:10689000302D00004823000828690008302D002012
:1068A00000070000AC610008A154A24A0432300283
:1068B0003D20326833206802FF2001FF01FF01FF05
:1068C00001FF01FF01FF01FF01FF01FF01FF01FFC8
:1068D00001FF01FF01FF01FF01FF01FF01FF01FFB8
:1068E00001FF01FF01FF01FF01FF01FF01FF01FFA8
:1068F00001FF01FF01FF01FF01FF01FF01FF01FF98
:1069000001FF01FF01FF01FF01FF01FF01FF01FF87
:10691000016999682800206828002005A93C6300C7
:0869200008C2010000000000A4
:04000005080020EDE2
:00000001FF
