:020000040800F2
:10400000103D002001410008A9500008854E00081D
:1040100039500008A1440008616000080000000059
:1040200000000000000000000000000037550008FC
:104030006D4A000800000000255400081D570008C4
:104040001B4100081B4100081B41000835550008B2
:104050001B4100081B4100081B4100081B410008D0
:104060001B4100081B4100081B4100081B410008C0
:104070001B4100081B4100081B4100081B410008B0
:104080001B4100081B4100081B4100081B410008A0
:10409000F95F00081B4100081B4100081B41000894
:1040A0001B4100081B4100081B4100081B41000880
:1040B0001B4100081B4100081B4100081B41000870
:1040C0001B4100081B4100081B4100081B41000860
:1040D0001B410008955D00081B4100081B410008BA
:1040E0001B4100081B4100081B410008DFF80CD0F1
:1040F00000F0F8F8004800478D600008103D0020EF
:104100000648804706480047FEE7FEE7FEE7FEE771
:10411000FEE7FEE7FEE7FEE7FEE7FEE739570008A9
:10412000ED4000080048704714790008A0F16101D3
:10413000192900D820387047A0F14101192900D869
:104140002030704730B505462A460B4612F8010B61
:1041500013F8014B08B1A042F8D01CB1002802D0DE
:104160006D1CF1E7284630BD10B5044604E00B781D
:1041700000F8013B03B1491C521EF8D2204610BD85
:10418000421C10F8011B0029FBD1801A7047000067
:1041900070B50F4D00B92868002412E00A4602E00D
:1041A0009E4203D0521C1378002BF9D1DAB222437D
:1041B00005D02BB124B1002100F8011B04E0044616
:1041C000401C0678002EE9D12860204670BD000012
:1041D000A40000202DE9F05F93460F468046044678
:1041E000002601F03FFFD0F80090824614F8015BF2
:1041F0002DB1FFF797FF0068405DC007F6D12B2D6A
:1042000002D02D2D1AD0641E0021CAF800105A4683
:104210003946204600F017F8014627B13868A04219
:1042200001D1C7F80080DAF80000022809D0CAF8E6
:104230000090700505D54842BDE8F09F46F48066C1
:10424000E2E70846F8E72DE9F05F824600780027AC
:1042500015468B460AF10104B946302801D09DB1BC
:1042600013E014F8010B0127782803D0582801D057
:1042700045B10AE00DB1102D07D10027102514F823
:10428000010B02E0082500E00A250026B0460EE0FA
:1042900005FB080005FB06F1012701EB10461FFA9C
:1042A00080F8B6F5803F00D3B94614F8010B2946D3
:1042B00000F02AF80028EBDABBF1000F05D00FB1AF
:1042C000641E00E05446CBF80040B9F1000F06D060
:1042D00001F0C8FE02210160C81EBDE8F09F48EA57
:1042E0000640FAE7064C074D06E0E06840F001039F
:1042F00094E8070098471034AC42F6D3FFF7FAFE73
:10430000907C0008B07C00083A2800D2303820F0B9
:104310002002412A01D3A2F13700884201D34FF095
:10432000FF307047417A00290BD1017A002908D16A
:104330000168872905D1817A012902D1C07A03F069
:10434000F9B870470B488268B2F5006F0CDA026862
:10435000117009498A4201D2521C00E0074A0260EA
:104360008168491C816002E0C168491CC1604FF04E
:10437000FF307047300000204B0F00204C0700201A
:1043800010B50446406860642089A4F848001248CB
:104390000188090A84F84A10007884F84B000F4815
:1043A00030F8201F090A84F84C10017884F84D1069
:1043B000807884F84E00002084F84F0084F8500084
:1043C00084F851000E2104F1440000F037FE04F897
:1043D000520F000A607010BD907800084C0F00204A
:1043E00010B5044680880C49A4F8440002200A183D
:1043F0002318401C12F8022C80B283F844200E28A7
:10440000F5D30E2104F1440000F018FE04F8520F19
:10441000000A607010BD0000E8F7FF1F10B50446E9
:10442000B0F80700617A40BA042900D90421421883
:104430003F2A02D9C1F13F0080B2616861642189DD
:10444000A4F84810154931F81020120A84F84A20BF
:1044500011F8102001EB400084F84B204188090A34
:1044600084F84C10817884F84D108188090A84F80A
:104470004E10017984F84F10C188090A84F8501051
:10448000807984F851000E2104F1440000F0D6FD3B
:1044900004F8520F000A607010BD00004C0F00209D
:1044A000FEE70000F0B5284E87B00024304600F04B
:1044B0004FF804A800F052FA0120244D8DF817009F
:1044C0008DF81B0095F822008DF81200298C04A8A5
:1044D00000F020FA04A9304600F060F95FF0000710
:1044E0008DF80A40A88CE04000F001008DF80B0028
:1044F000E88CE04000F001008DF80C00288DE040D1
:1045000000F001008DF80D0005EBC40030F8401FED
:10451000ADF800104188ADF802108188ADF80410A4
:10452000C088ADF80600ADF80870684600F032F8B3
:10453000641CA4B2072CD3D301220221304600F020
:1045400025F907B0F0BD0000006400404C0F0020CA
:10455000094910B588424FF0010101D14C0601E034
:104560004FF08064204600F06BFF2046BDE810400D
:10457000002100F065BF00000064004021B1016926
:1045800041F0200101617047C16841F02001C16024
:1045900070470000F0B5827A012191402E4A1368DD
:1045A00043F0010313602C4B1C331C688C431C60CC
:1045B000294D067B294C0C35A6B92E688E432E60FA
:1045C0004688C78846EA0746877A04EBC707C7F8D4
:1045D00040660688878846EA0746877A04EBC7075D
:1045E000C7F84466067B012E12D12E680E432E605A
:1045F000867A056804EBC6064FEA3545C6F840568C
:10460000867A456804EBC6044FEA3545C4F844563B
:10461000114CC57A241D002D256806D00D43256058
:104620000D4C0589143415B104E08D43F7E7256876
:104630008D4325600589012D02D125680D43256034
:10464000407B012802D1186808431860106820F0E8
:1046500001001060F0BD00000066004000600040F6
:104660000246002053690B424AD0B1F5807F3BD00F
:1046700013DC08292ED007DC012926D0022927D0F7
:1046800004293DD1D0682BE0102925D0202926D03F
:10469000402935D11069102130E0B1F5004F2BD001
:1046A0000BDCB1F5007F22D0B1F5806F22D0B1F5DF
:1046B000006F25D19069702120E0B1F5803F11D0C5
:1046C000B1F5003F1CD15068E5E790680D4915E051
:1046D000D06802E0D068DEE7106903210EE01069BF
:1046E00008210BE05068FBE79069012106E0906922
:1046F000022103E0906900E05068042100F090B9C5
:10470000704700000101010038B1012807D00228DC
:1047100007D0032807D005A0704706A0704707A060
:10472000704709A070470AA070470000556E6B6E75
:104730006F776E004E6F726D616C00004C6F6F7022
:104740004261636B0000000053696C656E74000089
:1047500053696C656E745F4C6F6F704261636B0080
:10476000094A002102EBC103DB88834204D0491CC3
:1047700089B21729F6D301E0172900D30B2102EBE8
:10478000C100C08870470000D8770008002A42693D
:1047900001D00A4300E08A434261704710B50368C4
:1047A000002223F002030360036843F00103036067
:1047B0004FF6FF7300E0521C4468E40701D19A42AF
:1047C000F9D14268D2073ED08A79012A02683CD0EA
:1047D00022F080020260CA79012A026838D022F0F1
:1047E000400202600A7A012A026834D022F02002D4
:1047F00002604A7A012A026830D022F01002026078
:104800008A7A012A02682CD022F008020260CA7A51
:10481000012A026828D022F0040202608A78CC784B
:10482000920742EA04620C7942EA04424C79098810
:1048300042EA0452491E0A43C261016821F00101A3
:104840000160002114E0002010BD42F08002C1E7A9
:1048500042F04002C5E742F02002C9E742F01002F0
:10486000CDE742F00802D1E742F00402D5E7491C47
:104870004268D20701D09942F9D14068C007E2D11D
:10488000012010BD10B500EB0113D3F8B04114F0B6
:1048900004041472D3F8B04134D0E408C2F80440E0
:1048A000D3F8B04104F002045472D3F8B44104F0D8
:1048B0000F049472D3F8B441240AD474D3F8B841E5
:1048C000D472D3F8B841240A1473D3F8B841240C35
:1048D0005473D3F8B841240E9473D3F8BC41D47305
:1048E000D3F8BC41240A1474D3F8BC41240C54748A
:1048F000D3F8BC311B0E937439B1016941F020012A
:10490000016110BD640D1460CAE7C16841F0200167
:10491000C16010BD10B5104B002200BF03EBC204F4
:10492000E4888C4204D0521C92B2172AF6D301E0DC
:10493000172A00D30B2250B113F83210C17003EBC9
:10494000C2014C7804718C7844718988018003EB32
:10495000C200C08810BD0000D87700080021817116
:10496000C171017241728172C1728170C170032183
:1049700001710221417101210180704730B5024669
:10498000002093685B0108D49068000101D50120E4
:1049900003E09068C00037D5022002EB0012D2F885
:1049A000803103F00103C2F880310B7A73B3D2F87F
:1049B00080414D681C434B7A43EAC5031C43C2F84F
:1049C00080418B7A03F00F038B72D2F8843123F08D
:1049D0000F03C2F88431D2F884318C7A2343C2F8B1
:1049E0008431CB7ACC6843EA0423C2F88831CB7B8C
:1049F000096943EA0121C2F88C11D2F8801141F013
:104A00000101C2F8801130BD042030BDD2F88031E0
:104A10004C7A23430C8843EA4453C2F88031D0E7F0
:104A2000024600200A4200D00120704770B5B0F85D
:104A30000710427A4BBA0021042A00D904229C189C
:104A40003F2C02D9C2F13F039BB2074C09E000BFE3
:104A500000EB41055E186D89491C6DBA24F81650AB
:104A600089B29142F4D370BD4C0F00207047000012
:104A7000044A916800E000BF93685B1A8342FAD34E
:104A8000704700006800002010B50A490A4B00205A
:104A90004FF47F4403EBC012B2F80028A24202D1C7
:104AA0000880012010BD401C80B20828F2D30020ED
:104AB000088010BD40000020003000080F4810B5ED
:104AC00001780F4A01F00701018000200D4BC90158
:104AD00001EB40041444B4F8024823F81040401C91
:104AE00080B23F28F4D33F21064800F0C2FA08B153
:104AF000002010BD4FF0FF3010BD0000400000202E
:104B0000003000084C0F0020024AC0B232F81000FA
:104B1000088070474C0F00202DE9F041244C0025FF
:104B20004FF6FF77207800F00700208000F0B0F803
:104B30002088204E002106EBC01000F08FF820786E
:104B40001D4A401C00F0070002EBC0112080B1F8A4
:104B50000018B94205D006EBC01000F03BF8002069
:104B6000208080B206EBC0104FF47F4100F076F851
:104B70003E21124800F07DFA104EDFF83880A6F88A
:104B80007C0008F102082088C00100EB450101EB20
:104B9000080036F8151000F061F86D1CADB207463C
:104BA0003F2DF0D300F052F83846BDE8F081000008
:104BB0004000002000380008003000084C0F0020A2
:104BC00002460846D1B2024A22F81100704700009E
:104BD0004C0F002070B505464FF43026304600F0EB
:104BE00063F8042811D1094C206940F002002061CB
:104BF0006561206940F040002061304600F054F8C3
:104C0000216941F6FD721140216170BD0020024012
:104C100008490420CA68D20701D001207047CA6839
:104C2000520701D502207047C968C906FBD5032089
:104C3000704700000020024003490020C96989072D
:104C400000D50120704700000020024002480169A1
:104C500041F080010161704700200240F0B5064636
:104C60004FF400570D46384600F01EF804280CD1CA
:104C7000064C206940F0010020613580384600F084
:104C800013F82169BA1E11402161F0BD00200240D5
:104C90000348024941600349416070472301674569
:104CA00000200240AB89EFCD00B50346FFF7B0FF0F
:104CB00003E000BFFFF7ACFF5B1E012803D0002B11
:104CC00000D1052000BD002BF4D1FAE72DE9F8430F
:104CD0000226ADF800601824DFF8E4908DF8034058
:104CE00003258DF802506946484600F06FF802210E
:104CF000484600F0C3F80420ADF800008DF80340EA
:104D00008DF802506946484600F060F8C020ADF8C2
:104D100000008DF803408DF802506946484600F0C7
:104D200055F8F001ADF800008DF803408DF8025001
:104D30006946484600F04AF8E020ADF800008DF8DA
:104D400003408DF802506946484600F03FF83002B3
:104D5000ADF800008DF803408DF8025069464846D2
:104D600000F034F8B002ADF8000048278DF8037069
:104D70006946484600F02AF84FF48058ADF80080A4
:104D80008DF803408DF802506946484600F01EF841
:104D9000ADF8008010208DF803008DF802606946A0
:104DA000084800F013F83003ADF800008DF80370E8
:104DB0008DF802606946044800F008F8BDE8F88301
:104DC00000080140000C014000100140F0B5CA7815
:104DD000002502F00F03D20601D58A7813430A7822
:104DE0004FF00F0E12F0FF0F4FF001021CD00468BD
:104DF0000F8802FA05F63740B74211D14FEA850C09
:104E00000EFA0CF724EA070703FA0CF43C43CF78B8
:104E1000282F02D0482F02D002E0466100E0066150
:104E20006D1C082DE4D304600C88FF2C1ED9446847
:104E30005FF0000606F1080702FA07F50F882F4019
:104E4000AF420FD14FEA860C0EFA0CF7BC4303FABF
:104E50000CF73C43CF78282F00D14561CF78482FFD
:104E600000D10561761C082EE4D34460F0BD0246F3
:104E7000002092680A4200D00120704741617047CB
:104E800001617047FEE770B50D4606460024305DAF
:104E9000FFF74CF9C2B2A2F13000092801D8C0B224
:104EA00005E0A2F14100052810D8373AD0B2E10759
:104EB00004D005EB54010978014300E0010105EB42
:104EC0005400641CE4B20170102CE0D3600870BD83
:104ED00010B500F00DF845F2555000F025F803200C
:104EE00000F016F8BDE8104040F2E24000F016B8BD
:104EF00002494CF6CC40086070470000003000408A
:104F000002494AF6AA2008607047000000300040BD
:104F10000149486070470000003000400149886046
:104F200070470000003000400149086070470000F1
:104F30000030004010B500244FF400510C48FFF73A
:104F400096FF0C4900284FF47A72088809D09042E5
:104F500001D3022402E0642800D301240020088049
:104F600004E0431C0B80904200D30A80204610BD11
:104F7000001001408C0000200E4810B50021018077
:104F80004FF49063438001238380C38064240484AE
:104F9000418481844FF6FF74C4840A46A0F8283007
:104FA00000EB4103491C89B2A3F840201C29F7D328
:104FB00010BD00004C0F002070B51B4900201B4B9A
:104FC0000C88421E5C800546032C02D90D805D8052
:104FD00010464B8842F2FE34DB1EA34203D34FF44B
:104FE000906048801046124E124C0B7986F844317E
:104FF00084F844315B1EF72B06D30120888086F8A5
:10500000440184F8440110460B8C40F2E7349B1EA7
:10501000A34202D36420088410464B8C032B01D991
:105020004D84104670BD00004C0F00206800002029
:10503000FC010020AC000020FEE7000070B5064631
:1050400000224FF6FF704AF201040FE0B35C5840B3
:105050005FF0000310F0010F4FEA500000D06040F5
:105060005B1C9BB2082BF5D3521C92B28A42EDD343
:1050700070BD70B5064600224FF6FF704AF201047B
:105080000FE036F812305840002310F0010F4FEABD
:10509000500000D060405B1C9BB2082BF5D3521C23
:1050A00092B28A42EDD370BD704738B54FF4E060DC
:1050B00000F05CF825208DF8000000248DF80240F7
:1050C00001258DF80350684600F01EF84FF4C060CB
:1050D00000F04CF803208DF800008DF801508DF899
:1050E00002408DF80350684600F00EF814208DF849
:1050F00000008DF801408DF802408DF8035068469D
:1051000000F002F838BD000070B50F23C4780178B4
:105110000122F4B1144C2468457804F4E064C4F529
:10512000E064240AC4F10406E3408478B5401C40DE
:105130002C4301F1E021230181F80034007800F0D4
:105140001F018A404009800000F1E020C0F80021E2
:1051500070BD01F01F0082404809800000F1E0208E
:10516000C0F8802170BD00000CED00E0024908434A
:1051700002490860704700000000FA050CED00E0ED
:1051800070B50C4691F8441184F84410417A00251A
:1051900021B102290AD019B10AD014E0017A19B15B
:1051A000017A04290AD00EE030210AE0017A19B10F
:1051B000017A042904D006E0402102E0502100E0F9
:1051C000602184F8451094F84510827A114384F8E0
:1051D0004510017A09B14168090E84F84610017A38
:1051E00009B14168090C84F84710017A19B3416884
:1051F000090A84F84810017AF9B1416884F8491025
:1052000050F80B1FC4F84A104068C4F84E000E2135
:1052100004F14400FFF712FF84F85200000A84F8FA
:105220005300601990F8440002F084F96D1CADB28F
:10523000102DF6D370BD0168DAE70168DEE70000E3
:105240002DE9F0410446684800250560B4F848019E
:10525000402821D2221D01278154B4F8480150B1C1
:105260000226012811D0811E042902D3811F08299A
:105270000ED2411C12E094F844218A4202D0284602
:10528000BDE8F081A4F84871FAE7A4F84861F7E7AF
:105290000E2802D00F2804D0A0E00F21A4F8481156
:1052A000EEE71021201DFFF7C9FE002846D16179E5
:1052B00003234E484E4AB3EB111F05D121894BBA47
:1052C00001680B604D7208E00423B3EB111F06D197
:1052D00021894BBA01680B604E720D721FE04FF0CE
:1052E000050CBCEB111F0AD1D4F8061009BA21F045
:1052F000FF06617A0E4301684E604D720EE04FF07A
:10530000060CBCEB111F1AD1D4F8061009BA21F013
:10531000FF07617A0F4301684F604E720B7260792C
:1053200000F00F008872D4F80A00C1F80B00D4F81E
:105330000E00C1F80F001046FFF720FB4EE00B29CE
:105340004CD2DFE801F04B060D1115181B2A2E3543
:105350004000201D04F144060FC886E80F0023E03A
:105360002046FFF75BF81FE02046FFF75FFB35E0C4
:10537000FFF7A4FB32E0FFF7CFFB2FE087F31388A2
:10538000BFF34F8F1B4801681B4A01F4E0611143D2
:105390000160BFF34F8F00BFFDE72046FEF7F0FF2F
:1053A00002E02046FFF71CF8204600F00DFE15E055
:1053B000A27A12484FF4805112B1FFF75FFD0DE061
:1053C000FFF75EFD0AE0E08841BA0D480184217ACA
:1053D000012907D000214184FFF764F82846A4F88A
:1053E00048514DE70221F6E7700000205C000020E4
:1053F000006400400CED00E00400FA05000C0140E0
:105400004C0F002005490988012906D10449096883
:10541000642902DD0021A0F8481170476A000020CD
:105420007000002070470000044A0029D16901D0B3
:10543000014300E08143D161704700000010024049
:10544000044A0029116901D0014300E08143116140
:105450007047000000100240044A0029916901D001
:10546000014300E081439161704700000010024059
:10547000044A0029D16801D0014300E08143D16092
:10548000704700000010024010B501210448FFF7EA
:10549000CBFFBDE81040012144F21C00FFF7DCBF48
:1054A0000200000230B51F494A6812F00C031E4A80
:1054B00003D0042B01D0082B21D002604A680F23AF
:1054C0001A4C03EA1212A35C0268DA4042604B688D
:1054D000072505EA1323E35C22FA03F383604B6894
:1054E00005EAD323E35CDA40C2604968032303EA98
:1054F0009131231F595CB2FBF1F1016130BD4A6863
:105500004B6802F470124FF0020413F4803F04EB76
:10551000924202D04B689B0301D5054B00E0024B41
:105520005A43CAE70010024000127A00040000202B
:1055300000093D00704770470CB5002126480191D5
:105540000091026842F4803202604FF4A063026866
:1055500002F400320092019A521C0192009A12B990
:10556000019A9A42F3D10268920333D50121009146
:105570001A490A6842F010020A600A6822F003021F
:105580000A600A6842F002020A60416841604168AC
:105590004160416841F480614160416821F47C11BF
:1055A0004160416841F4E8114160016841F0807157
:1055B000016001688901FCD5416821F00301416067
:1055C000416841F0020141604168C1F38101022953
:1055D000FAD10CBD00910CBD001002400020024029
:1055E00070B50446014619A001F09AFF1A4DA88C27
:1055F000E040C00701D019A100E01AA11BA001F0F2
:105600008FFFE88CE040C00701D01BA100E01BA188
:105610001BA001F085FF288DE04000F001011BA0D8
:1056200001F07EFF05EBC404B4F8420034F8401FDB
:1056300000EB014117A001F073FFE088A188BDE8ED
:10564000704000EB014116A001F06ABF2066696C52
:1056500074657220256400004C0F002069646C6939
:105660007374000069646D61736B0000204D4F44DA
:10567000453D257300000000333200003136000044
:10568000205343414C453D257300000020414354C5
:105690003D2564002052303D3078253038580000D8
:1056A0002052313D3078253038580D0A0000000076
:1056B00070B518484FF48051428817483AB1012A12
:1056C00002D0022A25D120E00C4605460FE00C4608
:1056D0000546FFF7D5FB6420FFF7CAF921462846A7
:1056E000FFF7CCFB6420FFF7C3F921462846FFF7FC
:1056F000C7FB6420FFF7BCF921462846FFF7BEFB35
:105700006420FFF7B5F921462846BDE87040FFF751
:10571000B7BB70BD68000020000C0140044810B504
:105720000168491C0160FFF705FC0249087010BDC3
:1057300070000020680000200F4810B5016841F09B
:105740000101016041680D4A1140416001680C4A45
:1057500011400160016821F480210160416821F459
:10576000FE0141604FF41F018160FFF7E5FE06492D
:105770000448086010BD0000001002400000FFF85F
:10578000FFFFF6FE0040000808ED00E02DE9F05FA5
:10579000044600270E46A4F84671BA46FEF7C2FC3E
:1057A000006804F1C40B04F14405805D10F03E0F65
:1057B0004FF0010013D0A4F846010AF80560B4F8D0
:1057C0004A01402832D23046FEF7B6FCB4F84A11FE
:1057D0000246481CA4F84A0101F80B2026E00221E9
:1057E0004FF0200E4FF00308082E26D0DFF86C9102
:1057F0000D2E30D00A2E19D0032E60D0102E63D07B
:105800001B2E6AD01D2E73D0554A126802EB161358
:1058100093F800C0A4F8460106F00F030AF805C08B
:10582000D25C4255A4F8468101F805E094F846019F
:1058300000F03F00A4F8460187E008220AF805209E
:1058400000F805E0A4F846814A55B4F84A0100285A
:10585000ECD0401E30E00D230AF805300A22A4F8EF
:1058600046114255B4F84A01402822D200F80BA054
:10587000A4F84AA14FF0FF302060B4F94C01802217
:10588000C11700EB517121F00701401AA4F84C0137
:1058900009EBC0105946FEF767FCB4F94C01401CF7
:1058A000C11700EB517121F00701401AA4F84C0117
:1058B000BCE7504684F803A1A4F84A01B6E7294999
:1058C0004FF0FF300860B1E72748016809B10021B7
:1058D00001E04FF0FF310160A8E7B4F84C01401E31
:1058E00000B2A4F84C0100280DDA083009E0FFE707
:1058F000B4F84C01401C00B2A4F84C01082802DBAB
:105900000838A4F84C01B4F94C01802209EBC0110D
:105910005846FEF729FC5846FEF732FCA4F84A0127
:10592000B4F94C01802209EBC0112846FEF71CFC9B
:105930002846FEF725FCA4F8460177E7E01990F821
:10594000440001F0F7FD7F1CFFB2B4F84601B842F5
:10595000F4D84FF0FF30BDE8F09F00004C0300206A
:1059600044000020640000206000002070B5044660
:1059700019480025006800282DD01848227A0168AF
:105980004AB1607A626868B115A000BF01F0C8FD35
:10599000607A48B11AE0607A226808B118A0F5E789
:1059A0001FA0F3E725A0F1E7A17A2BA001F0B8FD35
:1059B0002CA001F0CDFD06E06019C17A2BA001F00A
:1059C000AFFD6D1CEDB2A07AA842F5D8BDE87040DD
:1059D00028A001F0BDBD70BD60000020780000204F
:1059E0002052583A253038642052454D4F544520B6
:1059F0004D53472049443D30782530385800000049
:105A00002052583A253038642052454D4F54452095
:105A10004D53472049443D3078253034580000002C
:105A20002052583A253038642044415441204D5387
:105A3000472049443D307825303458002052583AA8
:105A4000253038642044415441204D534720494477
:105A50003D30782530385800204C454E3D25642097
:105A60000000000020444154413D000025303258E0
:105A7000200000000D0A000030B5194D87B02846FF
:105A800000F030F8002440F60F60ADF81400ADF8D7
:105A90001040ADF81640ADF812408DF8184004A93A
:105AA000284600F017F97020ADF800000120ADF88D
:105AB00002000420ADF8040040F20770ADF80600C3
:105AC0000220ADF80800C001ADF80C00ADF80A40A6
:105AD000ADF80E406946284600F0BCF807B030BD6E
:105AE000000400404B4910B5884202D10121C41482
:105AF00086E0B0F1804F09D0474988420DD101219D
:105B00000220FFF79DFC0021022064E001210846ED
:105B1000FFF796FC002101205DE04049884206D154
:105B200001210420FFF78CFC0021042053E03C49B4
:105B3000884206D101210820FFF782FC00210820BD
:105B400049E03849884206D101211020FFF778FC4E
:105B5000002110203FE03449884206D10121202055
:105B6000FFF76EFC0021202035E03049884202D149
:105B70000121441444E02E49884202D10121CC0481
:105B80003EE02C49884202D101210C0538E02A4927
:105B9000884202D101214C0532E02849884206D1D1
:105BA00001214020FFF74CFC0021402013E0244954
:105BB000884206D101218020FFF742FC002180208D
:105BC00009E0204988420AD1841501212046FFF7C7
:105BD00037FC00212046BDE81040FFF731BC1A49D0
:105BE000884202D101210C040AE01849884202D1FE
:105BF00001214C0404E0164988420AD101218C0499
:105C00002046FFF735FC2046BDE810400021FFF795
:105C10002FBC10BD002C01400004004000080040D3
:105C2000000C00400010004000140040003401400F
:105C3000004C014000500140005401400018004059
:105C4000001C004000200040004001400044014092
:105C50000048014030B5028C22F001020284028C1F
:105C60008388048B22F0020224F073050C882C43F5
:105C70000D8915434A882A43114DA8420BD0114D76
:105C8000A84208D0104DA84205D0104DA84202D01D
:105C90000F4DA8420DD122F008054A8923F4407324
:105CA0002A4322F004058A882A438D891D43CB8923
:105CB0002B4383800483C9888186028430BD000021
:105CC000002C0140003401400040014000440140EC
:105CD0000048014030B502881B4B1C4C98420DD047
:105CE000A0420BD0B0F1804F08D0194DA84205D08A
:105CF000184DA84202D0184DA84203D122F07005D9
:105D00004A882A43154DA84206D0154DA84203D013
:105D100022F44075CA882A4302808A8882850A88CC
:105D2000028598420AD0A04208D00E4A904205D07F
:105D30000D4A904202D00D4A904201D1097A018663
:105D40000121818230BD0000002C0140003401405F
:105D50000004004000080040000C0040001000401B
:105D60000014004000400140004401400048014050
:105D7000074A002152F82130834201D1184670476A
:105D8000491C89B20C29F5D34FF4E130704700006B
:105D9000A877000870B5124C40F2255529462046D8
:105DA00000F07DF8012819D1204600F005F9C1B2B4
:105DB0000C48008801280AD002280B480BD0FFF7B6
:105DC000E5FC29462046BDE8704000F01FB80648B3
:105DD000FFF736FAF5E7FEF7B5FAF2E770BD000017
:105DE000003801406A000020AC00002010B5064CCD
:105DF0000146204600F0E4F88021204600F048F8F3
:105E00000128F9D110BD0000003801400A0A012123
:105E10009140C943018070470029818902D041F433
:105E2000005101E021F40051818170471FB5044603
:105E3000684600F0D6F814B14FF4E13005E01048A0
:105E4000642140884843FFF793FF0E4C0090694659
:105E5000204600F05BF8012240F22551204600F078
:105E60003DF8002240F22771204600F037F801216A
:105E70002046FFF7D1FF0549034808601FBD000019
:105E80004C0F002000380140ED5D00081400002098
:105E90000246002012880A4200D00120704730B527
:105EA00001F01F0201240025C1F3421304FA02F29B
:105EB000012B0FD0022B0FD0838A4FEA11210088CB
:105EC000134204FA01F400EA040001D000B10125F4
:105ED000284630BD8389F0E7038AEEE710B5C1F3A9
:105EE000421301F01F040121A140012B07D0022B16
:105EF00007D01430002A026805D00A4304E00C30B1
:105F0000F8E71030F6E78A43026010BD30B504466A
:105F1000008A85B00D464CF6FF710840E9880143C0
:105F20002182A1894EF6F3100140A8882A891043E6
:105F30006A890A431043A081A08A4FF6FF410840B6
:105F4000A9890143A1826846FFF7ACFA1948844247
:105F500001D1039800E00298A189090400EBC00177
:105F600001EB0010296801D5490000E08900B0FB71
:105F7000F1F06422B0FBF2F109010B096FF0180592
:105F80006B4300EB8300A3891D044FF0320306D559
:105F900003EBC000B0FBF2F000F0070005E003EBFC
:105FA0000010B0FBF2F000F00F000843208105B0B4
:105FB00030BD0000003801408088C0F30800704701
:105FC000C1F308018180704770B505460024281987
:105FD00090F8440001F0AEFA641CA4B2102CF6D381
:105FE00070BD4FF41651016000218180C180018194
:105FF0000C2242818181704770B5134E02213046D8
:10600000FEF72EFB002815D0104D2868B0F5007F54
:1060100011DA0F4C002130462268FEF733FC0D499F
:106020002068884201D2143000E00B4820602868C4
:10603000401C286070BD00213046FEF79FFA0748DB
:106040000168491C016070BD0064004048000020E8
:1060500058000020B8370020CC0F0020500000204E
:10606000FEE7000000487047A800002002E008C8D2
:10607000121F08C1002AFAD170477047002001E0C2
:1060800001C1121F002AFBD170470000FFF7FCF985
:10609000FEF71CFEFEF7F8FCFEF710FD18B9FEF740
:1060A0006BFFFEF739FDFEF787FF18B1FEF764FFBF
:1060B000FEF732FDFEF7F9FFFFF7DEFCFEF7F2F91F
:1060C0000020FFF7B3FEFEF703FF4FF40051214815
:1060D000FEF7CDFE0024204D661E88B921466C8057
:1060E0000020FEF76DFD4FF4E13064216860B0FBE5
:1060F000F1F081B20120FEF763FD3046FFF796FE16
:1061000016484FF47A710068B0FBF1F0401EB0F110
:10611000807F0CD24FF0E0214861114AF02082F8D4
:10612000140D8C6107200861688808B102E0FEE761
:1061300001F07AF8FFF7BCFA01F0E8F901F02EF966
:1061400001F0DAF801F06EF90648FFF75BF9FEF7A7
:10615000D7FEF1E700100140680000209000002009
:106160000FE000E0AC00002038B54F4D4F4C6868A0
:10617000002874D04EA1FDF7E5FF002818D0A868CC
:1061800068B10A220021FEF725F880B2FEF7E8FA8E
:106190000546014648A001F0C3F9258438BD56A044
:1061A00001F0D6F9218CBDE838405FA001F0B8B904
:1061B00063A16868FDF7C6FF00281BD0A86878B106
:1061C0000A220021FEF706F800F003052846FEF734
:1061D0009BFA024629465CA001F0A2F9658438BD0D
:1061E00068A001F0B5F9608CFEF78EFA0246618C6A
:1061F0006FA02BE073A16868FDF7A4FF30B173A016
:1062000001F0A6F9BDE83840FEF74CB97CA16868FA
:10621000FDF798FF00281DD07A480368001F026828
:10622000001F016878A001F07BF976480C30036804
:10623000744814300268001F016880A001F070F9F2
:10624000704808300268001F016889A0BDE8384026
:1062500001F066B9BDE838408FA001F079B99CA083
:1062600001F076F9608CFEF74FFA0346628C218CC0
:10627000A4A001F055F9AC48007800F00103AB4848
:106280000268AB480168ABA001F04AF9B448006865
:106290000090B4480368B4480268B4480168B4A0E8
:1062A00001F03EF938BD00001C0000204C0F00201A
:1062B0006261756400000000207365742043414EE4
:1062C000206261756420746F20256C646B6270734A
:1062D0002C207361766520616E6420696E6974207C
:1062E000746F206170706C79206E657720626175C3
:1062F000642E0D0A000000002063616E206261754B
:1063000064205B6261756420696E206B6270735DEE
:10631000207365742043414E20626175647261741C
:10632000652E0D0A000000002043414E2062617579
:1063300064203D20256C646B6270730D0A000000C0
:106340006D6F646500000000207365742043414E4A
:10635000206D6F646520746F2025642025732C20C8
:106360007361766520616E6420696E697420746F54
:10637000206170706C79206E6577206D6F64652E7A
:106380000D0A00002063616E206D6F6465205B3034
:106390007C317C327C335D207365742043414E2018
:1063A000776F726B206D6F64652E0D0A0000000020
:1063B0002043414E206D6F6465203D2025642025DB
:1063C000730D0A00696E69740000000020696E692F
:1063D000742043414E20696E746572666163652066
:1063E0006163636F7264696E6720746F2075736593
:1063F0007220636F6E6669672E2E2E0D0A000000F4
:1064000072656700086400402043414E5F4D53525F
:106410003D30782530384C582043414E5F4D535223
:106420003D30782530384C582043414E5F5453520C
:106430003D30782530384C580D0A00002043414E3D
:106440005F4553523D30782530384C582043414EFB
:106450005F4254523D30782530384C582043414EED
:106460005F4945523D30782530384C580D0A0000C0
:106470002043414E5F524630523D30782530384CF3
:10648000582043414E5F524631523D3078253038D6
:106490004C580D0A000000002063616E205B6261B1
:1064A00075647C6D6F64657C7C696E69745D204386
:1064B000414E20696E746572666163652070617219
:1064C000616D732073657475702E0D0A00000000F5
:1064D0002063616E205B626175647C6D6F64657CB6
:1064E000696E69745D2043414E20696E7465726601
:1064F00061636520706172616D732073657475707E
:106500002E0D0A002043414E202062617564203D1B
:1065100020256C646B627073206D6F6465203D2074
:1065200025642025730D0A006000002078000020FB
:10653000500000202052582020206C6F7374203DA2
:1065400020256C642073756363657373203D20257B
:106550006C642073686F77203D20256C640D0A0001
:10656000800000207C0000207400002054000020E7
:106570002054582020206C6F7374203D20256C64BB
:106580002073756363657373203D20256C642072EE
:106590006570656174203D20256420696E746572A4
:1065A00076616C203D2025646D730D0A00000000AB
:1065B000054900200860054908600549086005494B
:1065C00008600549086070477400002078000020CA
:1065D000500000207C00002080000020F8B5002042
:1065E000394CADF8000005466068002869D037A135
:1065F000FDF7A8FD78B3A06800282BD01022002159
:10660000FDF7E8FDC6B2E06840B110220021FDF7B9
:10661000E1FD84B2A4F10800392812D3402412E02D
:10662000680703D139462BA000F07AFFB8B269465B
:10663000FEF76AFABDF8001029A000F071FF6D1C8A
:10664000ADB2A54202D277193F2FE9D326A000BFF1
:1066500000F07EFFF8BDFFE724A16068FDF772FD42
:10666000E8B1A0680028F5D0E1680029F2D0102236
:106670000021FDF7AFFDC5B210220021E068FDF753
:10668000A9FD84B221462846FEF79AFA214619A0B0
:1066900000F046FF29461CA000F042FFDAE722A1E5
:1066A0006068FDF74FFD18B1FEF708FA20A0CFE7AC
:1066B00026A16068FDF746FD18B1FEF72DFA25A06A
:1066C000C6E72B48C4E700001C0000207265616427
:1066D000000000000D0A30782530345820200000DA
:1066E00025303458200000000D0A000077726974CC
:1066F0006500000020777269746520307825303499
:106700005820746F0000000020656570726F6D2066
:106710006164647265737320307825303458202E9C
:106720002E2E0D0A000000006C6F61640000000056
:106730004C6F61642066726F6D20496E742E204527
:106740004550524F4D2E2E2E0D0A00007361766576
:10675000000000005361766520746F20496E742E2E
:1067600020454550524F4D2E2E2E0D0A00000000A0
:10677000187900082DE9F05F3D4D6868002872D057
:1067800010220021FDF726FD3A4C20F06041002741
:106790002068416047720421017237A1A868FDF7A3
:1067A000D1FC20B1206802214172877206E0216885
:1067B000A8680B31FEF767FB21688872DFF8C0809C
:1067C0003048C8F800700668761C47E0DFF8B8A0CB
:1067D000DAF8000008B12D4807602D482168FEF75F
:1067E000CDF820684268407A40B12AA0DFF8C49012
:1067F000D9F8001000F094FE002507E02EA0F5E780
:106800002844C17A35A000F08BFE6D1C2068817A87
:10681000A942F5DC33A000F09BFED9F80010761EEB
:10682000491CC9F80010D8F800004546002817D1C7
:10683000D146DFF858A042F2107B00BFD9F8001013
:1068400061B1DAF8002050468A4207D20168594502
:1068500004DAFEF755FB28680028EFD0002EB5DCDF
:10686000BDE8F09FFFE7BDE8F05F1FA000F070BE3D
:106870001C0000205C00002072656D6F74650000D4
:10688000640000207C0000208000002070000020B8
:10689000006400402054583A253038642052454D59
:1068A0004F5445204D53472049443D3078253038DA
:1068B00058000000740000202054583A25303864F5
:1068C0002044415441204D53472049443D307825D0
:1068D00030385820444154413D00000025303258A2
:1068E000200000000D0A000020657874205B4944F8
:1068F0005D205B6865782044415441207C207265AE
:106900006D6F74655D2E200D0A0000002DE9F041C9
:10691000484C0025606800287DD047A1FDF712FC97
:10692000002879D10A2200216068FDF753FC072175
:10693000B0FBF1F201FB120641A1A068FDF702FCD9
:10694000414D012788B1E068002871D00A2200215A
:10695000FDF740FC10F0010FA88C07FA06F701D0F4
:10696000384300E0B843A88451E038A1A068FDF79F
:10697000E9FB88B1E06800285AD00A220021FDF71F
:1069800029FC10F0010FE88C07FA06F701D0384314
:1069900000E0B843E8843AE02EA1A068FDF7D2FBFE
:1069A00088B1E068002843D00A220021FDF712FCDC
:1069B00010F0010F288D07FA06F701D0384300E0E8
:1069C000B843288523E024A1A068FDF7BBFB60B194
:1069D000E06800282CD010220021FDF7FBFB05EB1E
:1069E000C601020C21F8402F10E01CA1A068FDF7A1
:1069F000A9FB60B1E06800281AD010220021FDF741
:106A0000E9FB05EBC601020C21F8442F4880B0B227
:106A1000BDE8F04101E002E00AE0FEF7E1BD104808
:106A200000F096FDA8B2FEF7DBFD6D1C072DF9D333
:106A3000BDE8F0811C000020726573746F72650000
:106A40006D6F6465000000004C0F00207363616C83
:106A50006500000061637400723000007231000054
:106A6000847A00082DE9F041124D00242E1F16E013
:106A700004EB440705EB8708D8F8080068B10EA0BE
:106A800000F066FD55F8270000F062FD0BA000F055
:106A90005FFDD8F8040000F05BFD641C24B2307880
:106AA0000B2801D2C0B200E00B20A042E0DCBDE820
:106AB000F08100000077000820000000202D3E201B
:106AC000000000000B4810B54068002811D01022CB
:106AD0000021FDF77FFB10F0010F07484FF48051B4
:106AE00003D0BDE81040FEF7C9B9BDE81040FEF77D
:106AF000C7B910BD1C000020000C01402DE9F04179
:106B00000025FEF799F8012841D0224E7068002830
:106B10003DD010220021FDF75DFB0446A0F100509E
:106B2000B0F5404F0FD3A4F10060B0F5802F0AD329
:106B3000194840F60F012044884204D3A4F1804054
:106B4000B0F50D3F21D2B0684FF4807740B11022EC
:106B50000021FDF73FFB86B2BE4201D8082E0DD2C0
:106B60003E460BE0280703D161190CA000F0D8FCC9
:106B7000615D0DA000F0D4FC6D1CADB2B542F1D347
:106B80000BA0BDE8F04100F0E3BC0AA0F9E7BDE8C6
:106B9000F08100001C000020001000E00D0A307899
:106BA00025303858200000002530325820000000E1
:106BB0000D0A0000204261642041647265737321F4
:106BC000200D0A0010B5164C6068002822D015A1CF
:106BD000FDF7B8FA30B115A000F0BAFCBDE81040DE
:106BE000FDF76CBF1AA16068FDF7ACFA30B11AA0CE
:106BF00000F0AEFCBDE81040FDF78EBF1EA160683E
:106C0000FDF7A0FA30B11EA000F0A2FCBDE81040D4
:106C1000FEF7B2B9BDE8104022A000F099BC000018
:106C20001C0000206C6F616400000000204C6F614C
:106C30006420706172616D65746572732066726F35
:106C40006D20454550524F4D2E2E2E0D0A0000004E
:106C500073617665000000002053617665207061E5
:106C600072616D657465727320746F204545505272
:106C70004F4D2E2E2E0D0A00726573746F726500D3
:106C800020526573746F72652064656661756C74FB
:106C900020706172616D65746572732E2E2E0D0AFF
:106CA0000000000020706172616D205B6C6F616498
:106CB0007C736176657C726573746F72655D204F5D
:106CC00070657261746520706172616D6574657262
:106CD000732E0D0A0000000012480024406820B105
:106CE0000B220021FDF776FA04460F4D00202860A4
:106CF00002E000BFFEF704F92868A042FAD30BA017
:106D000000F026FC012080F31388BFF34F8F0F485B
:106D100001680F4A01F4E06111430160BFF34F8F36
:106D200000BFFDE71C00002070000020207265629B
:106D30006F6F74205541525443414E207368656C07
:106D40006C202E2E2E200D0A000000000CED00E01D
:106D50000400FA0570B50F4D0F4E104C686890B1E5
:106D60000A220021FDF736FA2060A86818B10A222D
:106D70000021FDF72FFA30600246216808A0BDE827
:106D8000704000F0CDBB10A000F0E2FB326805A01F
:106D90002168F4E71C000020800000207C00002017
:106DA0002053657420545820726570656174203DCD
:106DB00020256420696E74657276616C203D202503
:106DC000646D730D0A0000002072657065617420A7
:106DD0005B6E756D5D205B696E74286D73295D2037
:106DE00043414E2054582072657065617420746967
:106DF0006D657320616E6420696E74657276616C76
:106E00002E0D0A002DE9F05F3C4D6868002870D017
:106E100010220021FDF7DEF9394CC0F30A010026EB
:106E2000206801604672067236A1A868FDF78AF9EB
:106E300020B1206802214172867206E02168A868AC
:106E40000B31FEF720F821688872DFF8C0803048E7
:106E5000C8F8006007687F1C46E0DFF8B8A0DAF8E1
:106E6000000008B12C4806602C482168FDF786FD1B
:106E700020680268407A40B129A0DFF8C490D9F8B0
:106E8000001000F04DFB002507E02EA0F5E7284498
:106E9000C17A35A000F044FB6D1C2068817AA942BC
:106EA000F5DC33A000F054FBD9F800107F1E491C1C
:106EB000C9F80010D8F800004546002816D1D14680
:106EC000DFF854A042F2107BD9F8001061B1DAF873
:106ED000002050468A4207D20168594504DAFEF77D
:106EE0000FF828680028EFD0002FB6DCBDE8F09F2F
:106EF000FFE7BDE8F05F1FA000F02ABB1C000020E8
:106F00005C00002072656D6F7465000064000020F5
:106F10007C00002080000020700000200064004001
:106F20002054583A253038642052454D4F5445205E
:106F30004D53472049443D307825303458000000F7
:106F4000740000202054583A2530386420444154BD
:106F500041204D53472049443D3078253034582056
:106F6000444154413D0000002530325820000000CB
:106F70000D0A000020737464205B68657820494422
:106F80005D205B6865782044415441207C20726517
:106F90006D6F74655D2E200D0A00000070B53C4CCD
:106FA0003C4D606800285AD03BA1FDF7CBF8B0B14A
:106FB000A06878B10A220021FDF70CF9FEF7D8FE8F
:106FC0000446014636A000F0ABFA6420B4FBF0F0B2
:106FD000688070BD69886420414341A051E046A1AA
:106FE0006068FDF7AFF800281CD0A06878B10A22CD
:106FF0000021FDF7EFF884B2012C06D040A2214613
:1070000041A000F08DFA2C8070BD4EA2F7E72988D0
:10701000012905D03AA2BDE870404BA000F080BA2B
:1070200048A2F8E74EA16068FDF78CF890B1A0681F
:1070300068B10A220021FDF7CDF884B2601EF6285F
:10704000E2D8214648A000F06BFAAC8070BDA98858
:1070500054A016E0BDE8704057A000F079BA56A0E1
:1070600000F076FA69886420414361A000F058FA84
:107070002988012909D022A263A000F051FAA98829
:1070800065A0BDE8704000F04BBA2EA2F4E7000006
:107090001C0000204C0F002062617564000000009D
:1070A00020736574205541525420626175642074C8
:1070B0006F20256C646270732C20736176652026C6
:1070C000207265626F6F7420746F206170706C79CC
:1070D000206E657720626175642E0D0A0000000045
:1070E00020554152542062617564203D20256C6416
:1070F0006270730D0A0000006D6F6465000000008F
:107100005445524D000000002073657420554152D3
:1071100054206D6F646520746F2025642025732CC6
:1071200020736176652026207265626F6F7420740B
:107130006F206170706C79206E6577206D6F64656B
:107140002E0D0A00504B54002055415254206D6FB3
:107150006465203D2025642025730D0A0000000091
:107160006164647200000000207365742055415210
:1071700054206164647220746F2025642C20736134
:1071800076652026207265626F6F7420746F2061AF
:1071900070706C79206E657720616464722E0D0AC0
:1071A0000000000020554152542061646472203D6B
:1071B0002025640D0A0000002075617274205B6256
:1071C0006175647C6D6F64657C616464725D20557B
:1071D00041525420696E7465726661636520706106
:1071E00072616D732073657475702E0D0A00000056
:1071F00020554152542062617564203D20256C6405
:107200006270732000000000206D6F6465203D20D7
:1072100025642025732000002061646472203D20D5
:1072200025640D0A00000000F8B516480024006827
:10723000008800901448017801F01F03018800883D
:10724000490AC0F3431211A000F06AF9184D194E13
:1072500028683168005D01EB1010007800F06AF9D1
:1072600028683168005D00F00F00085C00F062F9EA
:10727000641CE4B20C2CEBD3BDE8F8400EA000F087
:1072800067B900008800002090780008205541521E
:107290005443414E207625642E25642E25642046D5
:1072A0006C6173683A25646B4220534E3A000000CB
:1072B00084000020440000200D0A204543484F2050
:1072C00053747564696F203C6563686F2E786A74C7
:1072D0007540676D61696C2E636F6D3E2E20416C49
:1072E0006C205269676874732052657365727665A5
:1072F000642E200D0A0000002DE9F05F214D87214A
:10730000214C28684FF47048DFF880A0016000210C
:1073100041720172012181721D4F40F2255BDFF83D
:10732000749029E06068296800260078C87206E039
:10733000FDF7E6FD3046761CB6B2404505D850460E
:107340002968FDF71BFB0428F2D06068B84201D21F
:10735000401C00E01048606000225E4659464846E6
:10736000FEF7BCFDA068401EA060012231464846E1
:10737000FEF7B4FDFDF7C4FDA0680028D2DCBDE82F
:10738000F09F00005C0000203000002000640040FE
:107390004B0F0020003801404C07002070B51A4DFB
:1073A0001A4C2DE01A480168491C01602888012800
:1073B0000AD002280DD06068FEF7D8FA1549606837
:1073C00088420BD214300AE013496068FDF7D8FEFA
:1073D000F4E711496068FCF7A5FFEFE70F48104E8E
:1073E0006060002202213046FDF7D0F92068401E7F
:1073F0002060012202213046FDF7C8F9FDF780FD2B
:1074000020680028CEDC70BD6A0000204800002003
:1074100078000020B8370020AC000020CC0F0020FE
:10742000006400400D4810B50178012910D00229F0
:1074300012D141880322491CB1FBF2F302FB131164
:1074400041800020FDF7BCFBBDE81040FDF764BBA8
:10745000BDE81040FEF72CB910BD00006800002008
:107460002DE9F041DFF894800025D8F800000028CD
:1074700041D023A108F1C400FCF78AFE214C206012
:10748000B0B11FA10020FCF783FE606080B11CA199
:107490000020FCF77DFEA06050B119A10020FCF790
:1074A00077FEE06020B116A10020FCF771FE20619C
:1074B000154F3E1D0AE000BF05EB450056F82010B1
:1074C0002068FCF73FFE20B96D1CEDB2387885428C
:1074D000F2D33878854206D205EB450006EB8000F2
:1074E000806800B18047002020606060A060E0609C
:1074F0002061C8F80000BDE8F0810000AC00002069
:10750000200000001C000020FC7600080348408892
:10751000002801D1FFF7A4BF7047000068000020D9
:107520000FB410B503A9029800F01CF810BC5DF868
:1075300014FB000005494A681AB102F8010B4A60C1
:10754000704709680029FBD008470000140000209C
:1075500010B5044602E0641CFFF7ECFF2078002819
:10756000F9D110BD2DE9FF5F8A4605464FEA0D09A6
:1075700015F8010B00286FD0252802D0FFF7DAFF9D
:10758000F6E715F8010B4FF00008302802D02D283F
:1075900002D005E0012000E00220804615F8010B32
:1075A000002606E006EB860100EB410615F8010B0C
:1075B000303EA0F130010929F4D96C2801D04C28C3
:1075C00003D115F8010B48F00408002844D0024606
:1075D000612801D3203AD2B24F2A3ED006DC422A9B
:1075E00038D0432A33D0442AC8D138E0532A0FD0A8
:1075F000552A34D0582AC1D15FF010035FEA487190
:1076000001D4442A2DD05AF8041B442A2BD02FE051
:107610005AF8047B002400E0641C385D0028FBD18C
:1076200002E02020FFF786FF5FEA887003D420463F
:10763000641CB042F5D33846FFF78AFF02E02020F1
:10764000FFF778FF2046641CB04291D2F7E71AF8A2
:10765000040B93E70223D1E74EE00823CEE70A2389
:10766000CCE75AF8041B002902DA494248F008081E
:1076700000244F46B1FBF3F203FB1212B1FBF3F10E
:10768000D2B2092A05D9782816D04FF0070C6244E7
:10769000D2B230323A55641C09B1102CEAD35FEAF9
:1076A000087003D52D2009F80400641C27465FEA02
:1076B000C87004D0302003E04FF0270CE7E720200B
:1076C000834602E05846FFF735FF5FEA887003D42F
:1076D00038467F1CB042F5D3641E19F80400FFF74A
:1076E00029FF002CF8D102E02020FFF723FF3846C5
:1076F0007F1CB042A9D2F7E7BDE8FF9F0E00000053
:107700003C7C0008087B000869610008587C000880
:10771000C87A00080D690008287C0008C8790008AC
:10772000056E0008787C00087C7900087567000801
:10773000707C00083C7B00089D6F0008507C0008AE
:10774000747B0008B16500082C7C0008987B000859
:10775000C56B0008607C0008147A0008556D0008AD
:10776000687C0008507A0008D96C0008487C000842
:10777000747A0008656A0008407C00085C7900089B
:10778000297200081C7C0008C87B0008C56A000834
:10779000347C000818790008DD650008207C0008AA
:1077A000F07B0008FD6A000800100E0000080700CA
:1077B0000084030000C2010000E100000096000008
:1077C000004B000080250000C0120000600900008E
:1077D000B00400002C010000000201000600E803D4
:1077E00000030200050084030004020005002003DA
:1077F0000005020006005802000201000C00F4011E
:10780000000402000A0090010002010014002C0193
:10781000000201001800FA00000201001E00C8006A
:1078200000020100280096000002010030007D00E7
:10783000000201003C0064000003020032005A0014
:10784000000201004B005000000502003C003C001B
:1078500000020100780032000002010096002800BA
:107860000005020078001E00000201002C01140037
:107870000002010058020A00010503005802050039
:1078800001050300E803030001090500E803020005
:10789000E2200040404040404040404041414141A2
:1078A00041404040404040404040404040404040D7
:1078B00040404005020202020202020202020202EB
:1078C000020202202020202020202020200202026C
:1078D00002020202909090909090101010101010E0
:1078E00010101010101010101010101010100202B4
:1078F0000202020288888888888808080808080820
:107900000808080808080808080808080808020203
:107910000202400093780008656570726F6D205B0D
:107920006C6F61647C736176657C726561647C7781
:10793000726974655D205B616464725D205B646183
:1079400074615D204F70657261746520496E742E9C
:1079500020454550524F4D2E0D0A0000646973704A
:107960006C61792053572076657273696F6E206160
:107970006E6420534E2E0D0A0000000065787420BE
:107980005B6865782049445D205B686578204441E8
:107990005441207C2072656D6F74655D2073656E47
:1079A0006420657874656E6465642043414E20648C
:1079B0006174612F72656D6F7465206D657373619D
:1079C00067652E0D0A000000737464205B6865789B
:1079D0002049445D205B6865782044415441207C07
:1079E0002072656D6F74655D2073656E64207374BD
:1079F000616E646172642043414E20646174612F42
:107A000072656D6F7465206D6573736167652E0DAA
:107A10000A000000726570656174205B6E756D5DB3
:107A2000205B696E74286D73295D2043414E20549C
:107A300058207265706561742074696D657320618A
:107A40006E6420696E74657276616C2E0D0A00009A
:107A50007265626F6F74205B64656C6179206D7311
:107A60005D20526573746172742073797374656DEF
:107A70002E0D0A0068656C7020496E666F2E0D0A27
:107A8000000000002066696C746572205B302D3642
:107A90005D205B6D6F64657C7363616C657C6163A5
:107AA000747C72307C72315D205B706172616D5DDF
:107AB0002043414E2066696C74657220736574754D
:107AC000702E0D0A0000000066696C746572205B00
:107AD000302D365D205B6D6F64657C7363616C6512
:107AE0007C6163747C72307C72315D205B7061728A
:107AF000616D5D2043414E2066696C746572207330
:107B0000657475702E0D0A0063616E205B6261758D
:107B1000647C6D6F64657C696E69745D2043414E61
:107B200020696E7465726661636520706172616D53
:107B3000732073657475702E0D0A00007561727480
:107B4000205B626175647C6D6F64657C61646472E6
:107B50005D205541525420696E746572666163659B
:107B600020706172616D732073657475702E0D0ADB
:107B700000000000636C65617220525820616E64E1
:107B8000205458206672616D6520636F756E746550
:107B9000722E0D0A00000000706172616D205B6C36
:107BA0006F61647C736176657C726573746F7265F6
:107BB0005D204F70657261746520706172616D65E2
:107BC000746572732E0D0A006C6564205B307C3125
:107BD0005D20636F6E74726F6C20746865206C65D5
:107BE0006420646973706C61792E0D0A00000000D6
:107BF0006D656D7264205B68657820616464725D98
:107C0000205B686578206C656E5D2053686F772017
:107C10004D656D6F72792E0D0A0000006C65640071
:107C20006D656D7264000000737464007061726150
:107C30006D000000656570726F6D000063616E001D
:107C400076657273696F6E0068656C700000000085
:107C5000636C65617200000066696C746572000097
:107C600072657065617400007265626F6F74000008
:107C70007561727400000000657874003031323331
:107C80003435363738394142434445460000000018
:107C9000B07C000800000020AC0000006C60000810
:107CA0005C7D0008AC000020643C00007C600008A3
:107CB000020406080000000001020304010203049C
:107CC0000607080900000000000000000000000096
:107CD00000000000000000000000000000000000A4
:107CE0004C0700204C0700200000000000000000AE
:107CF000000000007C7C000800000000CC0F002089
:107D00000000000000000000CC0F0020CC37002055
:107D1000FFFFFFFF000000000000000000C20100A4
:107D20000000000000000000000000000000000053
:107D300000000000E8F7FF1FE0F7FF1F0000000051
:107D400000A24A0400000000000000000102030439
:0C7D500006070809000000000000000009
:04000005080040EDC2
:00000001FF
