:020000040800F2
:10400000001700200141000801510008DD4E0008A2
:104010009150000845440008A96000080000000015
:10402000000000000000000000000000CF54000865
:10403000054A000800000000BD530008B157000801
:104040001B4100081B4100081B410008CD5400081B
:104050001B4100081B4100081B4100081B410008D0
:104060001B4100081B4100081B4100081B410008C0
:104070001B4100081B4100081B4100081B410008B0
:104080001B4100081B4100081B4100081B410008A0
:10409000416000081B4100081B4100081B4100084B
:1040A0001B4100081B4100081B4100081B41000880
:1040B0001B4100081B4100081B4100081B41000870
:1040C0001B4100081B4100081B4100081B41000860
:1040D0001B4100081D5D0008955D00081B4100089C
:1040E0001B4100081B4100081B410008DFF80CD0F1
:1040F00000F0F8F800480047D560000800170020DD
:104100000648804706480047FEE7FEE7FEE7FEE771
:10411000FEE7FEE7FEE7FEE7FEE7FEE7CD57000815
:10412000ED40000800487047E4770008A0F1610105
:10413000192900D820387047A0F14101192900D869
:104140002030704730B505462A460B4612F8010B61
:1041500013F8014B08B1A042F8D01CB1002802D0DE
:104160006D1CF1E7284630BD10B5044604E00B781D
:1041700000F8013B03B1491C521EF8D2204610BD85
:10418000421C10F8011B0029FBD1801A7047000067
:1041900070B50F4D00B92868002412E00A4602E00D
:1041A0009E4203D0521C1378002BF9D1DAB222437D
:1041B00005D02BB124B1002100F8011B04E0044616
:1041C000401C0678002EE9D12860204670BD000012
:1041D000940000202DE9F05F93460F468046044688
:1041E000002601F063FFD0F80090824614F8015BCE
:1041F0002DB1FFF797FF0068405DC007F6D12B2D6A
:1042000002D02D2D1AD0641E0021CAF800105A4683
:104210003946204600F017F8014627B13868A04219
:1042200001D1C7F80080DAF80000022809D0CAF8E6
:104230000090700505D54842BDE8F09F46F48066C1
:10424000E2E70846F8E72DE9F05F824600780027AC
:1042500015468B460AF10104B946302801D09DB1BC
:1042600013E014F8010B0127782803D0582801D057
:1042700045B10AE00DB1102D07D10027102514F823
:10428000010B02E0082500E00A250026B0460EE0FA
:1042900005FB080005FB06F1012701EB10461FFA9C
:1042A00080F8B6F5803F00D3B94614F8010B2946D3
:1042B00000F02AF80028EBDABBF1000F05D00FB1AF
:1042C000641E00E05446CBF80040B9F1000F06D060
:1042D00001F0ECFE02210160C81EBDE8F09F48EA33
:1042E0000640FAE7064C074D06E0E06840F001039F
:1042F00094E8070098471034AC42F6D3FFF7FAFE73
:10430000607B0008807B00083A2800D2303820F01B
:104310002002412A01D3A2F13700884201D34FF095
:10432000FF30704710B50446406860642089A4F8E7
:10433000480012480188090A84F84A10007884F875
:104340004B000F4830F8201F090A84F84C10017800
:1043500084F84D10807884F84E00002084F84F00D7
:1043600084F8500084F851000E2104F1440000F05C
:1043700091FE04F8520F000A607010BD60770008CB
:104380003C07002010B5044680880C49A4F844007E
:1043900002200A182318401C12F8022C80B283F85D
:1043A00044200E28F5D30E2104F1440000F072FEE3
:1043B00004F8520F000A607010BD0000E8F7FF1FFC
:1043C00010B50446B0F80700617A40BA042900D954
:1043D000042142183F2A02D9C1F13F0080B261682E
:1043E00061642189A4F84810154931F81020120A97
:1043F00084F84A2011F8102001EB400084F84B208B
:104400004188090A84F84C10817884F84D1081881D
:10441000090A84F84E10017984F84F10C188090AFE
:1044200084F85010807984F851000E2104F1440082
:1044300000F030FE04F8520F000A607010BD00005A
:104440003C070020FEE70000F0B5254E87B00024B1
:10445000304600F049F804A800F04CFA214D95F8D8
:1044600022008DF81200298C04A800F01FFA04A97C
:10447000304600F05FF900278DF80A40A88CE04034
:1044800000F001008DF80B00E88CE04000F0010026
:104490008DF80C00288DE04000F001008DF80D0033
:1044A00005EBC40030F8401FADF800104188ADF8AE
:1044B00002108188ADF80410C088ADF80600ADF890
:1044C0000870684600F032F8641CA4B2072CD3D3FD
:1044D00001220221304600F025F907B0F0BD0000AE
:1044E000006400403C070020094910B588424FF0A5
:1044F000010101D14C0601E04FF08064204600F03C
:104500006BFF2046BDE81040002100F065BF0000B1
:104510000064004021B1016941F020010161704750
:10452000C16841F02001C16070470000F0B5827A97
:10453000012191402E4A136843F0010313602C4B74
:104540001C331C688C431C60294D067B294C0C35A0
:10455000A6B92E688E432E604688C78846EA07466D
:10456000877A04EBC707C7F840660688878846EA5B
:104570000746877A04EBC707C7F84466067B012E17
:1045800012D12E680E432E60867A056804EBC606AB
:104590004FEA3545C6F84056867A456804EBC604AE
:1045A0004FEA3545C4F84456114CC57A241D002DF8
:1045B000256806D00D4325600D4C0589143415B1CE
:1045C00004E08D43F7E725688D4325600589012DBB
:1045D00002D125680D432560407B012802D118686F
:1045E00008431860106820F001001060F0BD000062
:1045F00000660040006000400246002053690B4204
:104600004AD0B1F5807F3BD013DC08292ED007DCDF
:10461000012926D0022927D004293DD1D0682BE0DA
:10462000102925D0202926D0402935D11069102104
:1046300030E0B1F5004F2BD00BDCB1F5007F22D07C
:10464000B1F5806F22D0B1F5006F25D1906970214E
:1046500020E0B1F5803F11D0B1F5003F1CD150688A
:10466000E5E790680D4915E0D06802E0D068DEE724
:10467000106903210EE0106908210BE05068FBE788
:104680009069012106E09069022103E0906900E051
:104690005068042100F090B970470000010101004A
:1046A00038B1012807D0022807D0032807D005A079
:1046B000704706A0704707A0704709A070470AA07E
:1046C00070470000556E6B6E6F776E004E6F726DA7
:1046D000616C00004C6F6F704261636B0000000002
:1046E00053696C656E74000053696C656E745F4C41
:1046F0006F6F704261636B00094A002102EBC103D6
:10470000DB88834204D0491C89B21729F6D301E023
:10471000172900D30B2102EBC100C08870470000AD
:10472000A8760008002A426901D00A4300E08A43C3
:104730004261704710B50368002223F00203036052
:10474000036843F0010303604FF6FF7300E0521C5F
:104750004468E40701D19A42F9D14268D2073ED0B9
:104760008A79012A02683CD022F080020260CA796C
:10477000012A026838D022F0400202600A7A012A37
:10478000026834D022F0200202604A7A012A0268CC
:1047900030D022F0100202608A7A012A02682CD0FE
:1047A00022F008020260CA7A012A026828D022F0A8
:1047B000040202608A78CC78920742EA04620C799B
:1047C00042EA04424C79098842EA0452491E0A43EB
:1047D000C261016821F001010160002114E00020A4
:1047E00010BD42F08002C1E742F04002C5E742F04E
:1047F0002002C9E742F01002CDE742F00802D1E7FB
:1048000042F00402D5E7491C4268D20701D0994220
:10481000F9D14068C007E2D1012010BD10B500EB0E
:104820000113D3F8B04114F004041472D3F8B0416A
:1048300034D0E408C2F80440D3F8B04104F00204D4
:104840005472D3F8B44104F00F049472D3F8B44115
:10485000240AD474D3F8B841D472D3F8B841240AE6
:104860001473D3F8B841240C5473D3F8B841240E10
:104870009473D3F8BC41D473D3F8BC41240A1474A4
:10488000D3F8BC41240C5474D3F8BC311B0E937480
:1048900039B1016941F02001016110BD640D14605E
:1048A000CAE7C16841F02001C16010BD10B5104BCE
:1048B000002200BF03EBC204E4888C4204D0521CE7
:1048C00092B2172AF6D301E0172A00D30B2250B177
:1048D00013F83210C17003EBC2014C7804718C786C
:1048E00044718988018003EBC200C08810BD0000BC
:1048F000A876000800218171C17101724172817234
:10490000C1728170C17003210171022141710121C5
:104910000180704730B50246002093685B0108D4DF
:104920009068000101D5012003E09068C00037D5F0
:10493000022002EB0012D2F8803103F00103C2F82A
:1049400080310B7A73B3D2F880414D681C434B7AA7
:1049500043EAC5031C43C2F880418B7A03F00F037E
:104960008B72D2F8843123F00F03C2F88431D2F86D
:1049700084318C7A2343C2F88431CB7ACC6843EA01
:104980000423C2F88831CB7B096943EA0121C2F8CC
:104990008C11D2F8801141F00101C2F8801130BDB4
:1049A000042030BDD2F880314C7A23430C8843EA8E
:1049B0004453C2F88031D0E7024600200A4200D0BA
:1049C0000120704770B5B0F80710427A4BBA002149
:1049D000042A00D904229C183F2C02D9C2F13F03BB
:1049E0009BB2074C09E000BF00EB41055E186D89E2
:1049F000491C6DBA24F8165089B29142F4D370BDA7
:104A00003C07002070470000044A916800E000BFA6
:104A100093685B1A8342FAD3704700005800002065
:104A200010B50A490A4B00204FF47F4403EBC01233
:104A3000B2F80028A24202D10880012010BD401C1B
:104A400080B20828F2D30020088010BD300000207A
:104A5000003000080F4810B501780F4A01F0070137
:104A6000018000200D4BC90101EB40041444B4F84F
:104A7000024823F81040401C80B23F28F4D33F2165
:104A8000064800F022FB08B1002010BD4FF0FF30B7
:104A900010BD000030000020003000083C0700205E
:104AA000024AC0B232F81000088070473C0700206C
:104AB0002DE9F041244C00254FF6FF77207800F0D7
:104AC0000700208000F0B0F82088204E002106EB7F
:104AD000C01000F08FF820781D4A401C00F007003D
:104AE00002EBC0112080B1F80018B94205D006EBE6
:104AF000C01000F03BF80020208080B206EBC01010
:104B00004FF47F4100F076F83E21124800F0DDFAC4
:104B1000104EDFF83880A6F87C0008F102082088E3
:104B2000C00100EB450101EB080036F8151000F05C
:104B300061F86D1CADB207463F2DF0D300F052F87E
:104B40003846BDE8F0810000300000200038000841
:104B5000003000083C07002002460846D1B2024A55
:104B600022F81100704700003C07002070B5054690
:104B70004FF43026304600F063F8042811D1094C78
:104B8000206940F0020020616561206940F040002A
:104B90002061304600F054F8216941F6FD72114061
:104BA000216170BD0020024008490420CA68D20774
:104BB00001D001207047CA68520701D50220704712
:104BC000C968C906FBD503207047000000200240D9
:104BD00003490020C969890700D5012070470000FA
:104BE000002002400248016941F0800101617047E4
:104BF00000200240F0B506464FF400570D463846F7
:104C000000F01EF804280CD1064C206940F0010089
:104C100020613580384600F013F82169BA1E114032
:104C20002161F0BD00200240034802494160034970
:104C3000416070472301674500200240AB89EFCDFA
:104C400000B50346FFF7B0FF03E000BFFFF7ACFF7E
:104C50005B1E012803D0002B00D1052000BD002BD6
:104C6000F4D1FAE770B50C4691F8441184F8441079
:104C7000417A002521B102290AD019B10AD014E0E5
:104C8000017A19B1017A04290AD00EE030210AE034
:104C9000017A19B1017A042904D006E0402102E02A
:104CA000502100E0602184F8451094F84510827A84
:104CB000114384F84510017A09B14168090E84F85E
:104CC0004610017A09B14168090C84F84710017A4D
:104CD00019B34168090A84F84810017AF9B14168AA
:104CE00084F8491050F80B1FC4F84A104068C4F803
:104CF0004E000E2104F1440000F0CCF984F852007B
:104D0000000A84F85300601990F8440002F07AFB1E
:104D10006D1CADB2102DF6D370BD0168DAE70168E5
:104D2000DEE700002DE9F8430226ADF80060182404
:104D3000DFF8E4908DF8034003258DF802506946B2
:104D4000484600F06FF80221484600F0C3F80420FE
:104D5000ADF800008DF803408DF8025069464846D2
:104D600000F060F8C020ADF800008DF803408DF829
:104D700002506946484600F055F8F001ADF80000D1
:104D80008DF803408DF802506946484600F04AF815
:104D9000E020ADF800008DF803408DF80250694620
:104DA000484600F03FF83002ADF800008DF80340AF
:104DB0008DF802506946484600F034F8B002ADF86C
:104DC000000048278DF803706946484600F02AF82D
:104DD0004FF48058ADF800808DF803408DF80250F4
:104DE0006946484600F01EF8ADF8008010208DF8A6
:104DF00003008DF802606946084800F013F830039C
:104E0000ADF800008DF803708DF802606946044823
:104E100000F008F8BDE8F88300080140000C0140EC
:104E200000100140F0B5CA78002502F00F03D20649
:104E300001D58A7813430A784FF00F0E12F0FF0F56
:104E40004FF001021CD004680F8802FA05F63740C3
:104E5000B74211D14FEA850C0EFA0CF724EA070786
:104E600003FA0CF43C43CF78282F02D0482F02D00D
:104E700002E0466100E006616D1C082DE4D3046089
:104E80000C88FF2C1ED944685FF0000606F1080765
:104E900002FA07F50F882F40AF420FD14FEA860C78
:104EA0000EFA0CF7BC4303FA0CF73C43CF78282FDB
:104EB00000D14561CF78482F00D10561761C082EBE
:104EC000E4D34460F0BD0246002092680A4200D05C
:104ED000012070474161704701617047FEE770B57E
:104EE0000D4606460024305DFFF720F9C2B2A2F15C
:104EF0003000092801D8C0B205E0A2F14100052820
:104F000010D8373AD0B2E10704D005EB5401097844
:104F1000014300E0010105EB5400641CE4B20170A0
:104F2000102CE0D3600870BD10B500F00DF845F20C
:104F3000555000F025F8032000F016F8BDE81040A9
:104F400040F2E24000F016B802494CF6CC4008604E
:104F5000704700000030004002494AF6AA2008606D
:104F60007047000000300040014948607047000071
:104F70000030004001498860704700000030004068
:104F800001490860704700000030004010B500245F
:104F90004FF400510C48FFF796FF0C4900284FF4DE
:104FA0007A72088809D0904201D3022402E0642872
:104FB00000D301240020088004E0431C0B809042B1
:104FC00000D30A80204610BD001001407C00002064
:104FD0000E4810B5002101804FF4906343800123F7
:104FE0008380C38064240484418481844FF6FF74E9
:104FF000C4840A46A0F8283000EB4103491C89B25A
:10500000A3F840201C29F7D310BD00003C07002066
:1050100070B51B4900201B4B0C88421E5C80054666
:10502000022C02D90D805D8010464B8842F2FE347E
:10503000DB1EA34203D34FF4906048801046124E0B
:10504000124C0B7986F8443184F844315B1EF72BFF
:1050500006D30120888086F8440184F84401104674
:105060000B8C40F2E7349B1EA34202D364200884D9
:1050700010464B8C032B01D94D84104670BD0000A7
:105080003C07002058000020EC0100209C0000207C
:10509000FEE7000070B5064600224FF6FF704AF2A8
:1050A00001040FE0B35C58405FF0000310F0010F03
:1050B0004FEA500000D060405B1C9BB2082BF5D338
:1050C000521C92B28A42EDD370BD70B506460022E2
:1050D0004FF6FF704AF201040FE036F812305840E4
:1050E000002310F0010F4FEA500000D060405B1C1D
:1050F0009BB2082BF5D3521C92B28A42EDD370BDFD
:10510000704738B54FF4E06000F05CF825208DF86A
:10511000000000248DF8024001258DF803506846F8
:1051200000F01EF84FF4C06000F04CF803208DF83A
:1051300000008DF801508DF802408DF8035068464C
:1051400000F00EF814208DF800008DF801408DF865
:1051500002408DF80350684600F002F838BD0000A8
:1051600070B50F23C47801780122F4B1144C24687F
:10517000457804F4E064C4F5E064240AC4F104064C
:10518000E3408478B5401C402C4301F1E021230129
:1051900081F80034007800F01F018A404009800047
:1051A00000F1E020C0F8002170BD01F01F00824036
:1051B0004809800000F1E020C0F8802170BD0000A7
:1051C0000CED00E002490843024908607047000006
:1051D0000000FA050CED00E02DE9F04104466848B6
:1051E00000250560B4F84801402821D2221D01277E
:1051F0008154B4F8480150B10226012811D0811E13
:10520000042902D3811F08290ED2411C12E094F810
:1052100044218A4202D02846BDE8F081A4F84871B2
:10522000FAE7A4F84861F7E70E2802D00F2804D067
:10523000A0E00F21A4F84811EEE71021201DFFF790
:1052400029FF002846D1617903234E484E4AB3EB2B
:10525000111F05D121894BBA01680B604D7208E01E
:105260000423B3EB111F06D121894BBA01680B60EF
:105270004E720D721FE04FF0050CBCEB111F0AD1EE
:10528000D4F8061009BA21F0FF06617A0E430168CE
:105290004E604D720EE04FF0060CBCEB111F1AD1A0
:1052A000D4F8061009BA21F0FF07617A0F430168AC
:1052B0004F604E720B72607900F00F008872D4F864
:1052C0000A00C1F80B00D4F80E00C1F80F00104618
:1052D000FFF720FB4EE00B294CD2DFE801F04B0634
:1052E0000D1115181B2A2E354000201D04F144060F
:1052F0000FC886E80F0023E02046FFF761F81FE0A3
:105300002046FFF75FFB35E0FFF7A4FB32E0FFF735
:10531000CFFB2FE087F31388BFF34F8F1B48016843
:105320001B4A01F4E06111430160BFF34F8F00BFDE
:10533000FDE72046FEF7F6FF02E02046FFF722F8E1
:10534000204600F065FE15E0A27A12484FF4805125
:1053500012B1FFF7BFFD0DE0FFF7BEFD0AE0E088E8
:1053600041BA0D480184217A012907D000214184E6
:10537000FFF76AF82846A4F848514DE70221F6E7FE
:10538000600000204C000020006400400CED00E0B4
:105390000400FA05000C01403C070020054909887B
:1053A000012906D104490968642902DD0021A0F819
:1053B000481170475A00002060000020704700002C
:1053C000044A0029D16901D0014300E08143D16141
:1053D0007047000000100240044A0029116901D002
:1053E000014300E08143116170470000001002405A
:1053F000044A0029916901D0014300E08143916191
:105400007047000000100240044A0029D16801D012
:10541000014300E08143D16070470000001002406A
:1054200010B501210448FFF7CBFFBDE81040012172
:1054300044F21C00FFF7DCBF0200000230B51F4938
:105440004A6812F00C031E4A03D0042B01D0082B2B
:1054500021D002604A680F231A4C03EA1212A35C9F
:105460000268DA4042604B68072505EA1323E35CD3
:1054700022FA03F383604B6805EAD323E35CDA4046
:10548000C2604968032303EA9131231F595CB2FBD0
:10549000F1F1016130BD4A684B6802F470124FF0BF
:1054A000020413F4803F04EB924202D04B689B034A
:1054B00001D5054B00E0024B5A43CAE700100240F9
:1054C00000127A000400002000093D007047704778
:1054D0000CB50021264801910091026842F4803207
:1054E00002604FF4A063026802F400320092019A55
:1054F000521C0192009A12B9019A9A42F3D10268A1
:10550000920333D5012100911A490A6842F0100232
:105510000A600A6822F003020A600A6842F0020286
:105520000A604168416041684160416841F48061BE
:105530004160416821F47C114160416841F4E81107
:105540004160016841F08071016001688901FCD50A
:10555000416821F003014160416841F0020141606E
:105560004168C1F381010229FAD10CBD00910CBD43
:10557000001002400020024070B50446014619A008
:1055800001F036FF1A4DA88CE040C00701D019A1E8
:1055900000E01AA11BA001F02BFFE88CE040C0073F
:1055A00001D01BA100E01BA11BA001F021FF288D51
:1055B000E04000F001011BA001F01AFF05EBC4045C
:1055C000B4F8420034F8401F00EB014117A001F08D
:1055D0000FFFE088A188BDE8704000EB014116A0F4
:1055E00001F006BF2066696C7465722025640000B6
:1055F0003C07002069646C697374000069646D6124
:10560000736B0000204D4F44453D257300000000A2
:105610003332000031360000205343414C453D25D4
:1056200073000000204143543D2564002052303D6A
:1056300030782530385800002052313D3078253000
:1056400038580D0A0000000070B5044619480025BE
:10565000006800282DD01848227A01684AB1607A83
:10566000626868B115A000BF01F0C2FE607A48B15F
:105670001AE0607A226808B118A0F5E71FA0F3E7E6
:1056800025A0F1E7A17A2BA001F0B2FE2CA001F039
:10569000C7FE06E06019C17A2BA001F0A9FE6D1CBF
:1056A000EDB2A07AA842F5D8BDE8704028A001F07C
:1056B000B7BE70BD50000020680000202052583A4C
:1056C000253038642052454D4F5445204D534720D6
:1056D00049443D3078253038580000002052583A6F
:1056E000253038642052454D4F5445204D534720B6
:1056F00049443D3078253034580000002052583A53
:10570000253038642044415441204D5347204944BA
:105710003D307825303458002052583A25303864CE
:105720002044415441204D53472049443D30782581
:1057300030385800204C454E3D25642000000000C4
:1057400020444154413D00002530325820000000E3
:105750000D0A000070B51448144C4FF48055408871
:1057600001280DD029462046FFF7B6FB6420FFF73D
:105770004BF929462046FFF7ADFB6420FFF744F9BB
:1057800029462046FFF7A8FB6420FFF73DF929468C
:105790002046FFF79FFB6420FFF736F92946204695
:1057A000BDE87040FFF798BB58000020000C014096
:1057B000044810B50168491C0160FFF7E7FB024986
:1057C000087010BD60000020580000200F4810B580
:1057D000016841F00101016041680D4A11404160DA
:1057E00001680C4A11400160016821F480210160C8
:1057F000416821F4FE0141604FF41F018160FFF711
:1058000067FE06490448086010BD00000010024011
:105810000000FFF8FFFFF6FE0040000808ED00E082
:105820002DE9F05F044600270E46A4F84671BA46FB
:10583000FEF778FC006804F1C40B04F14405805DB8
:1058400010F03E0F4FF0010013D0A4F846010AF803
:105850000560B4F84A01402832D23046FEF76CFCAD
:10586000B4F84A110246481CA4F84A0101F80B207A
:1058700026E002214FF0200E4FF00308082E26D01C
:10588000DFF86C910D2E30D00A2E19D0032E60D087
:10589000102E63D01B2E6AD01D2E73D0554A12686D
:1058A00002EB161393F800C0A4F8460106F00F03AC
:1058B0000AF805C0D25C4255A4F8468101F805E01B
:1058C00094F8460100F03F00A4F8460187E0082262
:1058D0000AF8052000F805E0A4F846814A55B4F816
:1058E0004A010028ECD0401E30E00D230AF80530B4
:1058F0000A22A4F846114255B4F84A01402822D29F
:1059000000F80BA0A4F84AA14FF0FF302060B4F9D2
:105910004C018022C11700EB517121F00701401AA0
:10592000A4F84C0109EBC0105946FEF71DFCB4F970
:105930004C01401CC11700EB517121F00701401AC6
:10594000A4F84C01BCE7504684F803A1A4F84A012E
:10595000B6E729494FF0FF300860B1E727480168F2
:1059600009B1002101E04FF0FF310160A8E7B4F870
:105970004C01401E00B2A4F84C0100280DDA08309A
:1059800009E0FFE7B4F84C01401C00B2A4F84C0158
:10599000082802DB0838A4F84C01B4F94C01802235
:1059A00009EBC0115846FEF7DFFB5846FEF7E8FB4F
:1059B000A4F84A01B4F94C01802209EBC011284631
:1059C000FEF7D2FB2846FEF7DBFBA4F8460177E79B
:1059D000E01990F8440001F015FD7F1CFFB2B4F807
:1059E0004601B842F4D84FF0FF30BDE8F09F000008
:1059F0003C03002034000020540000205000002010
:105A000030B5194D87B0284600F030F8002440F634
:105A10000F60ADF81400ADF81040ADF81640ADF8C9
:105A200012408DF8184004A9284600F017F970209C
:105A3000ADF800000120ADF802000420ADF804002C
:105A400040F20770ADF806000220ADF80800C00172
:105A5000ADF80C00ADF80A40ADF80E406946284696
:105A600000F0BCF807B030BD000400404B4910B551
:105A7000884202D10121C41486E0B0F1804F09D0E0
:105A8000474988420DD101210220FFF7A5FC0021E2
:105A9000022064E001210846FFF79EFC002101205E
:105AA0005DE04049884206D101210420FFF794FCC3
:105AB0000021042053E03C49884206D101210820FE
:105AC000FFF78AFC0021082049E03849884206D1C6
:105AD00001211020FFF780FC002110203FE0344915
:105AE000884206D101212020FFF776FC00212020EA
:105AF00035E03049884202D10121441444E02E4966
:105B0000884202D10121CC043EE02C49884202D1D6
:105B100001210C0538E02A49884202D101214C05B7
:105B200032E02849884206D101214020FFF754FC89
:105B30000021402013E02449884206D10121802021
:105B4000FFF74AFC0021802009E0204988420AD161
:105B5000841501212046FFF73FFC00212046BDE8C7
:105B60001040FFF739BC1A49884202D101210C04C8
:105B70000AE01849884202D101214C0404E0164988
:105B800088420AD101218C042046FFF73DFC2046C3
:105B9000BDE810400021FFF737BC10BD002C0140CC
:105BA0000004004000080040000C004000100040CD
:105BB0000014004000340140004C014000500140FE
:105BC0000054014000180040001C0040002000402C
:105BD00000400140004401400048014030B5028CC3
:105BE00022F001020284028C8388048B22F00202DC
:105BF00024F073050C882C430D8915434A882A43E9
:105C0000114DA8420BD0114DA84208D0104DA8420A
:105C100005D0104DA84202D00F4DA8420DD122F060
:105C200008054A8923F440732A4322F004058A8830
:105C30002A438D891D43CB892B4383800483C988E4
:105C40008186028430BD0000002C014000340140F8
:105C500000400140004401400048014030B5028846
:105C60001B4B1C4C98420DD0A0420BD0B0F1804F82
:105C700008D0194DA84205D0184DA84202D0184DA1
:105C8000A84203D122F070054A882A43154DA84244
:105C900006D0154DA84203D022F44075CA882A4385
:105CA00002808A8882850A88028598420AD0A042AA
:105CB00008D00E4A904205D00D4A904202D00D4ABB
:105CC000904201D1097A01860121818230BD000014
:105CD000002C014000340140000400400008004056
:105CE000000C004000100040001400400040014043
:105CF0000044014000480140074A002152F8213089
:105D0000834201D118467047491C89B20C29F5D34A
:105D10004FF4E130704700007876000870B5104C01
:105D200040F225552946204600F0DDF8002816D01F
:105D30000D490C480860204600F062F9C1B20B48DA
:105D4000008801280A4807D0FFF76AFD2946204647
:105D5000BDE8704000F066B8FFF73EFAF6E770BDA8
:105D600000380140755D0008140000205A00002032
:105D70009C00002010B5064C0146204600F044F976
:105D80008021204600F0A8F80128F9D110BD0000BC
:105D90000038014070B5104C40F225552946204688
:105DA00000F0A1F8002816D00D490C4808602046E4
:105DB00000F026F9C1B20B48008801280A4807D034
:105DC000FFF72EFD29462046BDE8704000F02AB8B6
:105DD000FFF702FAF6E770BD00440040ED5D0008F1
:105DE000140000205A000020EC01002070B50B4D7B
:105DF000044602212846FFF76FF82146084C20464A
:105E000000F002F98021204600F066F80128F9D15F
:105E10002846BDE870400221FFF75CB80008014049
:105E2000004400400A0A01219140C94301807047A3
:105E30000029818902D041F4005101E021F4005190
:105E4000818170472DE9FF410446684600F0EDF876
:105E500014B14FF4E13005E01A486421408848430A
:105E6000FFF74AFF184C00906946204600F072F890
:105E7000164D6946284600F06DF840F2255601227D
:105E80003146204600F04EF840F22777002239468E
:105E9000204600F047F801223146284600F042F83B
:105EA00000223946284600F03DF801212046FFF740
:105EB000BFFF01212846FFF7BBFF064904480860E1
:105EC000BDE8FF813C07002000380140004400404D
:105ED000755D0008140000200246002012880A4266
:105EE00000D00120704730B501F01F0201240025C9
:105EF000C1F3421304FA02F2012B0FD0022B0FD090
:105F0000838A4FEA11210088134204FA01F400EA5F
:105F1000040001D000B10125284630BD8389F0E797
:105F2000038AEEE710B5C1F3421301F01F0401210B
:105F3000A140012B07D0022B07D01430002A0268A1
:105F400005D00A4304E00C30F8E71030F6E78A4346
:105F5000026010BD30B50446008A85B00D464CF68F
:105F6000FF710840E98801432182A1894EF6F310B0
:105F70000140A8882A8910436A890A431043A081F6
:105F8000A08A4FF6FF410840A9890143A1826846D3
:105F9000FFF754FA1948844201D1039800E00298AF
:105FA000A189090400EBC00101EB0010296801D5AB
:105FB000490000E08900B0FBF1F06422B0FBF2F18F
:105FC00009010B096FF018056B4300EB8300A389EF
:105FD0001D044FF0320306D503EBC000B0FBF2F016
:105FE00000F0070005E003EB0010B0FBF2F000F05A
:105FF0000F000843208105B030BD0000003801408B
:106000008088C0F308007047C1F3080181807047A1
:1060100070B505460024281990F8440001F0F2F903
:10602000641CA4B2102CF6D370BD4FF4165101605D
:1060300000218180C18001810C22428181817047D1
:1060400070B5134E02213046FEF7D6FA002814D060
:10605000104D2868802811DA0F4C00213046226844
:10606000FEF7DCFB0D492068884201D2143000E0C5
:106070000B4820602868401C286070BD0021304615
:10608000FEF748FA07480168491C016070BD00002E
:10609000006400403800002048000020A8110020C3
:1060A000BC07002040000020FEE7000000487047C9
:1060B0009800002002E008C8121F08C1002AFAD187
:1060C00070477047002001E001C1121F002AFBD178
:1060D00070470000FFF7A4F9FEF724FEFEF7A0FCCE
:1060E000FEF7B8FC18B9FEF773FFFEF7E1FCFEF708
:1060F0008FFF18B1FEF76CFFFEF7DAFCFFF701F82F
:10610000FFF77EFCFEF7A0F90020FFF79BFEFEF7ED
:106110000BFF4FF400512048FEF7D5FE00241F4D21
:10612000661E88B921466C800020FEF715FD4FF4ED
:10613000E13064216860B0FBF1F081B20120FEF72C
:106140000BFD3046FFF77EFE15484FF47A7100686C
:10615000B0FBF1F0401EB0F1807F0CD24FF0E02197
:106160004861104AF02082F8140D8C610720086104
:10617000688808B102E0FEE701F00AF8FFF7EAFAE2
:1061800001F02CF901F06CF801F0AAF80648FFF7CD
:1061900005F9FEF7E1FEF3E700100140580000208A
:1061A000800000200FE000E09C00002038B53E4D4C
:1061B0003E4C6868002853D03DA1FDF7C3FF00287E
:1061C00018D0A86868B10A220021FEF703F880B24F
:1061D000FEF792FA0546014637A001F009F9258439
:1061E00038BD45A001F01CF9218CBDE838404EA017
:1061F00001F0FEB852A16868FDF7A4FF00281ED088
:10620000A86878B10A220021FDF7E4FF00F0030539
:106210002846FEF745FA024629464BA001F0E8F869
:10622000658438BD57A001F0FBF8608CFEF738FAA2
:10623000618CBDE8384002465DA001F0D9B861A18B
:106240006868FDF77FFF30B160A001F0E9F8BDE8B4
:106250003840FEF7F9B8BDE8384069A001F0E0B871
:1062600075A001F0DDF8608CFEF71AFA0346628C27
:10627000218C7EA001F0BCF88548007800F0010375
:10628000844802688448016884A001F0B1F88E480F
:10629000006800908D4803688D4802688D48016849
:1062A0008DA001F0A5F838BD1C0000203C0700209F
:1062B0006261756400000000207365742043414EE4
:1062C000206261756420746F20256C646B6270734A
:1062D0002C207361766520616E6420696E6974207C
:1062E000746F206170706C79206E657720626175C3
:1062F000642E0D0A000000002063616E206261754B
:1063000064205B6261756420696E206B6270735DEE
:10631000207365742043414E20626175647261741C
:10632000652E0D0A000000002043414E2062617579
:1063300064203D20256C646B6270730D0A000000C0
:106340006D6F646500000000207365742043414E4A
:10635000206D6F646520746F2025642025732C20C8
:106360007361766520616E6420696E697420746F54
:10637000206170706C79206E6577206D6F64652E7A
:106380000D0A00002063616E206D6F6465205B3034
:106390007C317C327C335D207365742043414E2018
:1063A000776F726B206D6F64652E0D0A0000000020
:1063B0002043414E206D6F6465203D2025642025DB
:1063C000730D0A00696E69740000000020696E692F
:1063D000742043414E20696E746572666163652066
:1063E0006163636F7264696E6720746F2075736593
:1063F0007220636F6E6669672E2E2E0D0A000000F4
:106400002063616E205B626175647C6D6F64657C86
:106410007C696E69745D2043414E20696E746572BB
:106420006661636520706172616D73207365747558
:10643000702E0D0A000000002063616E205B626117
:1064400075647C6D6F64657C696E69745D20434121
:106450004E20696E74657266616365207061726159
:106460006D732073657475702E0D0A002043414EC4
:10647000202062617564203D20256C646B6270731E
:10648000206D6F6465203D2025642025730D0A0072
:1064900050000020680000204000002020525820BA
:1064A00020206C6F7374203D20256C64207375630D
:1064B00063657373203D20256C642073686F7720BB
:1064C0003D20256C640D0A00700000206C00002047
:1064D00064000020440000202054582020206C6FCD
:1064E0007374203D20256C6420737563636573733A
:1064F000203D20256C6420726570656174203D200C
:10650000256420696E74657276616C203D20256477
:106510006D730D0A00000000054900200860054960
:10652000086005490860054908600549086070472A
:106530006400002068000020400000206C00002063
:1065400070000020F8B50020394CADF80000054679
:106550006068002869D037A1FDF7F4FD78B3A06822
:1065600000282BD010220021FDF734FEC6B2E068CF
:1065700040B110220021FDF72DFE84B2A4F10800E5
:10658000392812D3402412E0680703D139462BA0E2
:1065900000F02EFFB8B26946FEF782FABDF800108F
:1065A00029A000F025FF6D1CADB2A54202D27719DB
:1065B0003F2FE9D326A000BF00F032FFF8BDFFE770
:1065C00024A16068FDF7BEFDE8B1A0680028F5D001
:1065D000E1680029F2D010220021FDF7FBFDC5B2D1
:1065E00010220021E068FDF7F5FD84B2214628461F
:1065F000FEF7B2FA214619A000F0FAFE29461CA0C7
:1066000000F0F6FEDAE722A16068FDF79BFD18B105
:10661000FEF720FA20A0CFE726A16068FDF792FDE3
:1066200018B1FEF745FA25A0C6E72B48C4E70000DD
:106630001C00002072656164000000000D0A3078C3
:106640002530345820200000253034582000000028
:106650000D0A000077726974650000002077726986
:1066600074652030782530345820746F00000000A5
:1066700020656570726F6D2061646472657373204C
:10668000307825303458202E2E2E0D0A00000000C0
:106690006C6F6164000000004C6F61642066726F73
:1066A0006D20496E742E20454550524F4D2E2E2E92
:1066B0000D0A000073617665000000005361766585
:1066C00020746F20496E742E20454550524F4D2E38
:1066D0002E2E0D0A00000000E87700082DE9F05F7B
:1066E0003D4D6868002872D010220021FDF772FD30
:1066F0003A4C20F060410027206841604772042135
:10670000017237A1A868FDF71DFD20B120680221A4
:106710004172877206E02168A8680B31FEF7DFFB43
:1067200021688872DFF8C0803048C8F800700668B9
:10673000761C47E0DFF8B8A0DAF8000008B12D4871
:1067400007602D482168FEF7E5F820684268407A26
:1067500040B12AA0DFF8C490D9F8001000F048FE3C
:10676000002507E02EA0F5E72844C17A35A000F007
:106770003FFE6D1C2068817AA942F5DC33A000F051
:106780004FFED9F80010761E491CC9F80010D8F841
:1067900000004546002817D1D146DFF858A042F244
:1067A000107B00BFD9F8001061B1DAF80020504624
:1067B0008A4207D20168594504DAFEF7CDFB286802
:1067C0000028EFD0002EB5DCBDE8F09FFFE7BDE864
:1067D000F05F1FA000F024BE1C0000204C00002031
:1067E00072656D6F74650000540000206C0000201D
:1067F0007000002060000020006400402054583ADF
:10680000253038642052454D4F5445204D53472084
:1068100049443D307825303858000000640000209D
:106820002054583A253038642044415441204D5377
:10683000472049443D307825303858204441544160
:106840003D00000025303258200000000D0A0000F5
:1068500020657874205B49445D205B68657820443E
:10686000415441207C2072656D6F74655D2E200D52
:106870000A0000002DE9F041484C0025606800281E
:106880007DD047A1FDF75EFC002879D10A220021C6
:106890006068FDF79FFC0721B0FBF1F201FB1206D7
:1068A00041A1A068FDF74EFC414D012788B1E06889
:1068B000002871D00A220021FDF78CFC10F0010F96
:1068C000A88C07FA06F701D0384300E0B843A88443
:1068D00051E038A1A068FDF735FC88B1E0680028D8
:1068E0005AD00A220021FDF775FC10F0010FE88C48
:1068F00007FA06F701D0384300E0B843E8843AE0ED
:106900002EA1A068FDF71EFC88B1E068002843D0E6
:106910000A220021FDF75EFC10F0010F288D07FA16
:1069200006F701D0384300E0B843288523E024A1CE
:10693000A068FDF707FC60B1E06800282CD01022A9
:106940000021FDF747FC05EBC601020C21F8402FA2
:1069500010E01CA1A068FDF7F5FB60B1E06800281D
:106960001AD010220021FDF735FC05EBC601020C00
:1069700021F8442F4880B0B2BDE8F04101E002E0C8
:106980000AE0FEF7F9BD104800F04AFDA8B2FEF794
:10699000F3FD6D1C072DF9D3BDE8F0811C0000202C
:1069A000726573746F7265006D6F6465000000003E
:1069B0003C0700207363616C650000006163740034
:1069C0007230000072310000547900082DE9F04166
:1069D000124D00242E1F16E004EB440705EB870838
:1069E000D8F8080068B10EA000F01AFD55F827008D
:1069F00000F016FD0BA000F013FDD8F8040000F025
:106A00000FFD641C24B230780B2801D2C0B200E024
:106A10000B20A042E0DCBDE8F0810000D07500084A
:106A200020000000202D3E20000000000B4810B583
:106A30004068002811D010220021FDF7CBFB10F098
:106A4000010F07484FF4805103D0BDE81040FEF716
:106A500041BABDE81040FEF73FBA10BD1C0000204F
:106A6000000C01402DE9F0410025FEF7B1F80128A6
:106A700041D0224E706800283DD010220021FDF741
:106A8000A9FB0446A0F10050B0F5404F0FD3A4F18C
:106A90000060B0F5802F0AD3194840F60F0120445A
:106AA000884204D3A4F18040B0F50D3F21D2B068F4
:106AB0004FF4807740B110220021FDF78BFB86B2A6
:106AC000BE4201D8082E0DD23E460BE0280703D166
:106AD00061190CA000F08CFC615D0DA000F088FC39
:106AE0006D1CADB2B542F1D30BA0BDE8F04100F092
:106AF00097BC0AA0F9E7BDE8F08100001C00002067
:106B0000001000E00D0A30782530385820000000D1
:106B100025303258200000000D0A00002042616438
:106B20002041647265737321200D0A0010B5164C64
:106B30006068002822D015A1FDF704FB30B115A034
:106B400000F06EFCBDE81040FDF784BF1AA160683C
:106B5000FDF7F8FA30B11AA000F062FCBDE8104071
:106B6000FDF7A6BF1EA16068FDF7ECFA30B11EA0CC
:106B700000F056FCBDE81040FEF72ABABDE8104010
:106B800022A000F04DBC00001C0000206C6F61646E
:106B900000000000204C6F616420706172616D65BF
:106BA000746572732066726F6D20454550524F4D6B
:106BB0002E2E2E0D0A000000736176650000000085
:106BC000205361766520706172616D6574657273C2
:106BD00020746F20454550524F4D2E2E2E0D0A0029
:106BE000726573746F72650020526573746F72659D
:106BF0002064656661756C7420706172616D657486
:106C00006572732E2E2E0D0A000000002070617236
:106C1000616D205B6C6F61647C736176657C72650D
:106C200073746F72655D204F70657261746520705A
:106C30006172616D65746572732E0D0A000000004B
:106C400012480024406820B10B220021FDF7C2FA4F
:106C500004460F4D0020286002E000BFFEF77CF9DB
:106C60002868A042FAD30BA000F0DAFB012080F3E1
:106C70001388BFF34F8F0F4801680F4A01F4E0619A
:106C800011430160BFF34F8F00BFFDE71C000020E0
:106C900060000020207265626F6F7420554152546D
:106CA00043414E207368656C6C202E2E2E200D0AF9
:106CB000000000000CED00E00400FA0570B50F4D77
:106CC0000F4E104C686890B10A220021FDF782FA3D
:106CD0002060A86818B10A220021FDF77BFA306015
:106CE0000246216808A0BDE8704000F081BB10A0FA
:106CF00000F096FB326805A02168F4E71C00002034
:106D0000700000206C00002020536574205458202F
:106D1000726570656174203D20256420696E74651C
:106D20007276616C203D2025646D730D0A000000B1
:106D300020726570656174205B6E756D5D205B69A6
:106D40006E74286D73295D2043414E205458207283
:106D500065706561742074696D657320616E64206F
:106D6000696E74657276616C2E0D0A002DE9F05F14
:106D70003C4D6868002870D010220021FDF72AFAE7
:106D8000394CC0F30A010026206801604672067281
:106D900036A1A868FDF7D6F920B12068022141721A
:106DA000867206E02168A8680B31FEF798F8216822
:106DB0008872DFF8C0803048C8F8006007687F1C20
:106DC00046E0DFF8B8A0DAF8000008B12C48066009
:106DD0002C482168FDF79EFD20680268407A40B18A
:106DE00029A0DFF8C490D9F8001000F001FB0025BD
:106DF00007E02EA0F5E72844C17A35A000F0F8FAA4
:106E00006D1C2068817AA942F5DC33A000F008FBF4
:106E1000D9F800107F1E491CC9F80010D8F80000EE
:106E20004546002816D1D146DFF854A042F2107B27
:106E3000D9F8001061B1DAF8002050468A4207D232
:106E40000168594504DAFEF787F828680028EFD072
:106E5000002FB6DCBDE8F09FFFE7BDE8F05F1FA0A4
:106E600000F0DEBA1C0000204C00002072656D6F3F
:106E700074650000540000206C00002070000020A9
:106E800060000020006400402054583A25303864E7
:106E90002052454D4F5445204D53472049443D30E5
:106EA0007825303458000000640000202054583AFF
:106EB000253038642044415441204D5347204944F3
:106EC0003D30782530345820444154413D00000085
:106ED00025303258200000000D0A00002073746431
:106EE000205B6865782049445D205B6865782044B4
:106EF000415441207C2072656D6F74655D2E200DBC
:106F00000A00000070B53C4C3C4D606800285AD027
:106F10003BA1FDF717F9B0B1A06878B10A220021B2
:106F2000FDF758F9FEF7E8FE0446014636A000F0EA
:106F30005FFA6420B4FBF0F0688070BD698864205B
:106F4000414341A051E046A16068FDF7FBF80028ED
:106F50001CD0A06878B10A220021FDF73BF984B269
:106F6000012C06D040A2214641A000F041FA2C801D
:106F700070BD4EA2F7E72988012905D03AA2BDE8E5
:106F800070404BA000F034BA48A2F8E74EA1606808
:106F9000FDF7D8F890B1A06868B10A220021FDF78A
:106FA00019F984B2601EF628E2D8214648A000F004
:106FB0001FFAAC8070BDA98854A016E0BDE87040EF
:106FC00057A000F02DBA56A000F02AFA6988642074
:106FD000414361A000F00CFA2988012909D022A2BE
:106FE00063A000F005FAA98865A0BDE8704000F034
:106FF000FFB92EA2F4E700001C0000203C0700208F
:107000006261756400000000207365742055415270
:1070100054206261756420746F20256C6462707303
:107020002C20736176652026207265626F6F742054
:10703000746F206170706C79206E65772062617565
:10704000642E0D0A00000000205541525420626158
:107050007564203D20256C646270730D0A00000089
:107060006D6F6465000000005445524D0000000043
:10707000207365742055415254206D6F64652074EF
:107080006F2025642025732C2073617665202620CF
:107090007265626F6F7420746F206170706C7920FC
:1070A0006E6577206D6F64652E0D0A00504B54009D
:1070B0002055415254206D6F6465203D2025642089
:1070C00025730D0A00000000616464720000000076
:1070D0002073657420554152542061646472207499
:1070E0006F2025642C2073617665202620726562EE
:1070F0006F6F7420746F206170706C79206E65778B
:1071000020616464722E0D0A000000002055415277
:10711000542061646472203D2025640D0A00000043
:107120002075617274205B626175647C6D6F64654B
:107130007C616464725D205541525420696E7465AF
:10714000726661636520706172616D73207365742E
:1071500075702E0D0A0000002055415254206261C6
:107160007564203D20256C6462707320000000006F
:10717000206D6F6465203D2025642025732000006C
:107180002061646472203D2025640D0A0000000027
:10719000F8B516480024006800880090144801786B
:1071A00001F01F0301880088490AC0F3431211A0AF
:1071B00000F01EF9184D194E28683168005D01EB8A
:1071C0001010007800F01EF928683168005D00F0AA
:1071D0000F00085C00F016F9641CE4B20C2CEBD331
:1071E000BDE8F8400EA000F01BB9000078000020B8
:1071F00060770008205541525443414E2076256463
:107200002E25642E256420466C6173683A25646BD4
:107210004220534E3A000000740000203400002049
:107220000D0A204543484F2053747564696F203C14
:107230006563686F2E786A747540676D61696C2E3E
:10724000636F6D3E2E20416C6C20526967687473C9
:107250002052657365727665642E200D0A00000069
:107260002DE9F0474FF48058164F174C174EDFF8B2
:107270006090184D20E041463846FDF72BFE3068FF
:10728000401C3060B9F80000012807D06068FEF7A4
:10729000DBF96068A84206D2143005E00E49606848
:1072A000FDF7E0FCF5E70D4860602068401E2060B7
:1072B00041463846FDF710FE20680028DBDCBDE8BB
:1072C000F0870000000C014038000020680000201A
:1072D0005A000020A81100209C000020BC070020BC
:1072E00070B5114C2078012819D002281BD1C50295
:1072F0000E4E29463046FDF7EDFD6420FDF784FB78
:1073000060880121814361800020FDF725FCFDF7A5
:10731000CFFB29463046BDE87040FDF7DDBDBDE836
:107320007040FEF717BA70BD58000020000C0140F5
:107330002DE9F041DFF894800025D8F800000028FE
:1073400041D023A108F1C400FCF722FF214C2060AA
:10735000B0B11FA10020FCF71BFF606080B11CA131
:107360000020FCF715FFA06050B119A10020FCF728
:107370000FFFE06020B116A10020FCF709FF20619B
:10738000154F3E1D0AE000BF05EB450056F82010E2
:107390002068FCF7D7FE20B96D1CEDB23878854225
:1073A000F2D33878854206D205EB450006EB800023
:1073B000806800B18047002020606060A060E060CD
:1073C0002061C8F80000BDE8F08100009C000020AA
:1073D000200000001C000020CC75000803484088F5
:1073E000002801D1FFF7A4BF70470000580000201B
:1073F0000FB410B503A9029800F01CF810BC5DF89A
:1074000014FB000005494A681AB102F8010B4A60F2
:10741000704709680029FBD00847000014000020CD
:1074200010B5044602E0641CFFF7ECFF207800284A
:10743000F9D110BD2DE9FF5F8A4605464FEA0D09D7
:1074400015F8010B00286FD0252802D0FFF7DAFFCE
:10745000F6E715F8010B4FF00008302802D02D2870
:1074600002D005E0012000E00220804615F8010B63
:10747000002606E006EB860100EB410615F8010B3D
:10748000303EA0F130010929F4D96C2801D04C28F4
:1074900003D115F8010B48F00408002844D0024637
:1074A000612801D3203AD2B24F2A3ED006DC422ACC
:1074B00038D0432A33D0442AC8D138E0532A0FD0D9
:1074C000552A34D0582AC1D15FF010035FEA4871C1
:1074D00001D4442A2DD05AF8041B442A2BD02FE083
:1074E0005AF8047B002400E0641C385D0028FBD1BE
:1074F00002E02020FFF786FF5FEA887003D4204671
:10750000641CB042F5D33846FFF78AFF02E0202022
:10751000FFF778FF2046641CB04291D2F7E71AF8D3
:10752000040B93E70223D1E74EE00823CEE70A23BA
:10753000CCE75AF8041B002902DA494248F008084F
:1075400000244F46B1FBF3F203FB1212B1FBF3F13F
:10755000D2B2092A05D9782816D04FF0070C624418
:10756000D2B230323A55641C09B1102CEAD35FEA2A
:10757000087003D52D2009F80400641C27465FEA33
:10758000C87004D0302003E04FF0270CE7E720203C
:10759000834602E05846FFF735FF5FEA887003D460
:1075A00038467F1CB042F5D3641E19F80400FFF77B
:1075B00029FF002CF8D102E02020FFF723FF3846F6
:1075C0007F1CB042A9D2F7E7BDE8FF9F0E00000084
:1075D0000C7B0008D8790008AD610008287B000802
:1075E0009879000875680008F87A0008987800080B
:1075F0006D6D0008487B00084C780008DD660008C7
:10760000407B00080C7A0008056F0008207B00080A
:10761000447A000819650008FC7A0008687A0008B6
:107620002D6B0008307B0008E4780008BD6C000872
:10763000387B000820790008416C0008187B00089E
:1076400044790008CD690008107B00082C780008F8
:1076500091710008EC7A0008987A00082D6A0008F9
:10766000047B0008E877000845650008F07A000808
:10767000C07A0008656A000800100E0000080700C4
:107680000084030000C2010000E100000096000039
:10769000004B000080250000C012000060090000BF
:1076A000B00400002C010000000201000600E80305
:1076B000000302000500840300040200050020030B
:1076C0000005020006005802000201000C00F4014F
:1076D000000402000A0090010002010014002C01C5
:1076E000000201001800FA00000201001E00C8009C
:1076F00000020100280096000002010030007D0019
:10770000000201003C0064000003020032005A0045
:10771000000201004B005000000502003C003C004C
:1077200000020100780032000002010096002800EB
:107730000005020078001E00000201002C01140068
:107740000002010058020A0001050300580205006A
:1077500001050300E803030001090500E803020036
:10776000A220004040404040404040404141414113
:107770004140404040404040404040404040404008
:10778000404040050202020202020202020202021C
:10779000020202202020202020202020200202029D
:1077A0000202020290909090909010101010101011
:1077B00010101010101010101010101010100202E5
:1077C0000202020288888888888808080808080851
:1077D0000808080808080808080808080808020235
:1077E0000202400063770008656570726F6D205B70
:1077F0006C6F61647C736176657C726561647C77B3
:10780000726974655D205B616464725D205B6461B4
:1078100074615D204F70657261746520496E742ECD
:1078200020454550524F4D2E0D0A0000646973707B
:107830006C61792053572076657273696F6E206191
:107840006E6420534E2E0D0A0000000065787420EF
:107850005B6865782049445D205B68657820444119
:107860005441207C2072656D6F74655D2073656E78
:107870006420657874656E6465642043414E2064BD
:107880006174612F72656D6F7465206D65737361CE
:1078900067652E0D0A000000737464205B686578CC
:1078A0002049445D205B6865782044415441207C38
:1078B0002072656D6F74655D2073656E64207374EE
:1078C000616E646172642043414E20646174612F73
:1078D00072656D6F7465206D6573736167652E0DDC
:1078E0000A000000726570656174205B6E756D5DE5
:1078F000205B696E74286D73295D2043414E2054CE
:1079000058207265706561742074696D65732061BB
:107910006E6420696E74657276616C2E0D0A0000CB
:107920007265626F6F74205B64656C6179206D7342
:107930005D20526573746172742073797374656D20
:107940002E0D0A0068656C7020496E666F2E0D0A58
:10795000000000002066696C746572205B302D3673
:107960005D205B6D6F64657C7363616C657C6163D6
:10797000747C72307C72315D205B706172616D5D10
:107980002043414E2066696C74657220736574757E
:10799000702E0D0A0000000066696C746572205B31
:1079A000302D365D205B6D6F64657C7363616C6543
:1079B0007C6163747C72307C72315D205B706172BB
:1079C000616D5D2043414E2066696C746572207361
:1079D000657475702E0D0A0063616E205B626175BF
:1079E000647C6D6F64657C696E69745D2043414E93
:1079F00020696E7465726661636520706172616D85
:107A0000732073657475702E0D0A000075617274B1
:107A1000205B626175647C6D6F64657C6164647217
:107A20005D205541525420696E74657266616365CC
:107A300020706172616D732073657475702E0D0A0C
:107A400000000000636C65617220525820616E6412
:107A5000205458206672616D6520636F756E746581
:107A6000722E0D0A00000000706172616D205B6C67
:107A70006F61647C736176657C726573746F726527
:107A80005D204F70657261746520706172616D6513
:107A9000746572732E0D0A006C6564205B307C3156
:107AA0005D20636F6E74726F6C20746865206C6506
:107AB0006420646973706C61792E0D0A0000000007
:107AC0006D656D7264205B68657820616464725DC9
:107AD000205B686578206C656E5D2053686F772049
:107AE0004D656D6F72792E0D0A0000006C656400A3
:107AF0006D656D7264000000737464007061726182
:107B00006D000000656570726F6D000063616E004E
:107B100076657273696F6E0068656C7000000000B6
:107B2000636C65617200000066696C7465720000C8
:107B300072657065617400007265626F6F74000039
:107B40007561727400000000657874003031323362
:107B50003435363738394142434445460000000049
:107B6000807B0008000000209C000000B46000083A
:107B70001C7C00089C00002064160000C460000803
:107B800002040608000000000102030401020304CD
:107B900006070809000000000000000000000000C7
:107BA00000000000000000000000000000000000D5
:107BB000000000004C7B000800000000BC07002013
:107BC0000000000000000000BC070020BC110020E5
:107BD000FFFFFFFF000000000000000000C20100E6
:107BE0000000000000000000000000000000000095
:107BF00000000000E8F7FF1FE0F7FF1F0000000093
:107C000000A24A040000000000000000010203047A
:0C7C10000607080900000000000000004A
:04000005080040EDC2
:00000001FF
